:100000000C9483000C94B4000C94B4000C94B400D1
:100010000C94B4000C94B4000C94B4000C94B40090
:100020000C94B4000C94B4000C94B4000C94B40080
:100030000C94B4000C94B4000C94B4000C94B40070
:100040000C94B4000C94B4000C94B4000C94B40060
:100050000C94B4000C94B4000C94B4000C942C02D6
:100060000C94B4000C94A0020C9476020C94B4008E
:100070000C94B4000C94B4000C94B4000C94B40030
:100080000C94B4000C94B4000C94B4000C94B40020
:100090000C94B4000C94B4000C94B4000C94B40010
:1000A0000C94B4000C94B4000C94B4000C94B40000
:1000B0000C94B4000C94B4000C94B4000C94B400F0
:1000C0000C94B4000C94B4000C94B4000C94B400E0
:1000D0000C94B4000C94B4000C94B4000C94B400D0
:1000E0000C94B4000C941A010C944B030C940B0167
:1000F0000C943C010C94DE000C94C1010C9474012E
:100100000C942E014B0311241FBECFEFD1E2DEBFB2
:10011000CDBF00E00CBF12E0A0E0B2E0E4E0F7E009
:1001200000E00BBF02C007900D92A231B107D9F7D2
:1001300022E0A2E1B2E001C01D92A83BB207E1F7C4
:1001400010E0C3E8D0E000E006C021970109802F4D
:10015000FE010E947803C238D10780E00807A9F7A2
:100160000E94D6020C9480030C940000EBE1F2E0B4
:10017000A089B18982E08C93A485B5851C92A6855F
:10018000B7858FEC8C93108EA489B58986E08C930B
:10019000A289B3898C9180618C93A289B3898C9157
:1001A00088608C93A289B3898C9180688C93028833
:1001B000F389E02D80818F7D80830895AF92BF9277
:1001C000CF92DF92EF92FF920F931F93CF93DF9323
:1001D0006C017B018B01040F151FEB015E01AE1852
:1001E000BF08C017D10759F06991D601ED91FC9174
:1001F0000190F081E02DC6011995892B79F7C50191
:10020000DF91CF911F910F91FF90EF90DF90CF90F2
:10021000BF90AF900895FC01538D448D252F30E0A1
:10022000842F90E0821B930B541710F0CF96089503
:1002300001970895FC01918D828D981761F0A28D30
:10024000AE0FBF2FB11D5D968C91928D9F5F9F73F6
:10025000928F90E008958FEF9FEF0895FC01918DAC
:10026000828D981731F0828DE80FF11D858D90E019
:1002700008958FEF9FEF0895FC01918D228D892FB6
:1002800090E0805C9F4F821B91098F73992708959E
:100290008BE192E00E943C0121E0892B09F420E0EF
:1002A000822F0895FC01A48DA80FB92FB11DA35A68
:1002B000BF4F2C91848D90E001968F739927848F86
:1002C000A689B7892C93A089B1898C9183708064A9
:1002D0008C93938D848D981306C00288F389E02D4A
:1002E00080818F7D80830895EF92FF920F931F93FB
:1002F000CF93DF93EC0181E0888F9B8D8C8D9813D9
:100300001AC0E889F989808185FF15C09FB7F894E4
:10031000EE89FF896083E889F98980818370806430
:1003200080839FBF81E090E0DF91CF911F910F917B
:10033000FF90EF900895F62E0B8D10E00F5F1F4F8A
:100340000F731127E02E8C8D8E110CC00FB607FC99
:10035000FACFE889F989808185FFF5CFCE010E9427
:100360005201F1CFEB8DEC0FFD2FF11DE35AFF4F42
:10037000F0829FB7F8940B8FEA89FB8980818062B5
:10038000CFCFCF93DF93EC01888D8823B9F0AA8972
:10039000BB89E889F9898C9185FD03C0808186FD40
:1003A0000DC00FB607FCF7CF8C9185FFF2CF80818F
:1003B00085FFEDCFCE010E945201E9CFDF91CF91B1
:1003C000089580E090E0892B29F00E944801811176
:1003D0000E94000080E090E0892B49F080E090E0EE
:1003E000892B29F00E94000081110E94000080E00A
:1003F00090E0892B49F080E090E0892B29F00E9461
:10040000000081110E94000080E090E0892B49F0FB
:1004100080E090E0892B29F00E94000081110C946B
:10042000000008950895CF93DF931F921F92CDB7D8
:10043000DEB787E190E09A83898389819A811A8265
:10044000198289819A810F900F90DF91CF91089541
:100450000E94B6000C9413021F920F920FB60F92D7
:1004600011242F933F938F939F93AF93BF938091CA
:10047000170290911802A0911902B0911A023091BE
:10048000160223E0230F2D3758F50196A11DB11D4B
:10049000209316028093170290931802A0931902DA
:1004A000B0931A028091120290911302A09114024B
:1004B000B09115020196A11DB11D80931202909377
:1004C0001302A0931402B0931502BF91AF919F91B4
:1004D0008F913F912F910F900FBE0F901F90189505
:1004E00026E8230F0296A11DB11DD2CF1F920F92B5
:1004F0000FB60F9211240BB60F922F933F934F9389
:100500005F936F937F938F939F93AF93BF93EF937B
:10051000FF938BE192E00E945201FF91EF91BF9116
:10052000AF919F918F917F916F915F914F913F918B
:100530002F910F900BBE0F900FBE0F901F9018952C
:100540001F920F920FB60F9211240BB60F922F939A
:100550008F939F93EF93FF93E0912B02F0912C02E6
:100560008081E0913102F091320282FD1DC09081C4
:10057000809134028F5F8F7320913502821741F092
:10058000E0913402F0E0E55EFD4F958F80933402F8
:10059000FF91EF919F918F912F910F900BBE0F9034
:1005A0000FBE0F901F9018958081F2CF789484B57C
:1005B000826084BD84B5816084BD85B5826085BD5F
:1005C00085B5816085BD80916E00816080936E00ED
:1005D00010928100809181008260809381008091DF
:1005E0008100816080938100809180008160809390
:1005F00080008091B10084608093B1008091B00050
:1006000081608093B000809191008260809391001E
:100610008091910081608093910080919000816031
:10062000809390008091A10082608093A1008091CE
:10063000A10081608093A1008091A00081608093DF
:10064000A00080912101826080932101809121018D
:10065000816080932101809120018160809320013D
:1006600080917A00846080937A0080917A00826021
:1006700080937A0080917A00816080937A008091E3
:100680007A00806880937A001092C1000E9428024C
:100690000E94E101FDCFEBE1F2E01382128288EECD
:1006A00093E0A0E0B0E084839583A683B78384E0E1
:1006B00092E09183808385EC90E09587848784EC39
:1006C00090E09787868780EC90E0918B808B81EC1F
:1006D00090E0938B828B82EC90E0958B848B86EC00
:1006E00090E0978B868B118E128E138E148E089548
:1006F000EE0FFF1F881F8BBF0790F691E02D199416
:04070000F894FFCF9B
:10070400000000007401DE000B01C1013C011A016C
:020714002E01B4
:00000001FF
