:100000000C9483000C94B4000C94B4000C94B400D1
:100010000C94B4000C94B4000C94B4000C94B40090
:100020000C94B4000C94B4000C94B4000C94B40080
:100030000C94B4000C94B4000C94B4000C94B40070
:100040000C94B4000C94B4000C94B4000C94B40060
:100050000C94B4000C94B4000C94B4000C940203FF
:100060000C94B4000C9476030C944C030C94B400E0
:100070000C94B4000C94B4000C94B4000C94B40030
:100080000C94B4000C94B4000C94B4000C94B40020
:100090000C94B4000C94B4000C94B4000C94B40010
:1000A0000C94B4000C94B4000C94B4000C94B40000
:1000B0000C94B4000C94B4000C94B4000C94B400F0
:1000C0000C94B4000C94B4000C94B4000C94B400E0
:1000D0000C94B4000C94B4000C94B4000C94B400D0
:1000E0000C94B4000C94D9000C9415040C941E02CA
:1000F0000C9437010C9429010C9415010C94D10136
:100100000C940601150411241FBECFEFD1E2DEBF0F
:10011000CDBF00E00CBF12E0A0E0B2E0ECEAFFE0EF
:1001200000E00BBF02C007900D92A633B107D9F7CC
:1001300022E0A6E3B2E001C01D92A03EB207E1F7C3
:1001400010E0C3E8D0E000E006C021970109802F4D
:10015000FE010E94B605C238D10780E00807A9F762
:100160000E9442040C94D4070C9400000F931F9338
:10017000CF93DF93EC01FB01448155816081718154
:10018000E881F9810280F381E02D19958C01E881E5
:10019000F9810280F381E02D42E050E062E372E0F9
:1001A000CE011995800F911FDF91CF911F910F9173
:1001B0000895AF92BF92CF92DF92EF92FF920F938A
:1001C0001F93CF93DF936C017B018B01040F151FED
:1001D000EB015E01AE18BF08C017D10759F0699155
:1001E000D601ED91FC910190F081E02DC6011995A9
:1001F000892B79F7C501DF91CF911F910F91FF9066
:10020000EF90DF90CF90BF90AF900895FC01538D99
:10021000448D252F30E0842F90E0821B930B5417E0
:1002200010F0CF96089501970895FC01918D828D6D
:10023000981761F0A28DAE0FBF2FB11D5D968C9106
:10024000928D9F5F9F73928F90E008958FEF9FEF45
:100250000895FC01918D828D981731F0828DE80F01
:10026000F11D858D90E008958FEF9FEF0895FC01BB
:10027000918D228D892F90E0805C9F4F821B910988
:100280008F739927089586E392E00E94370121E059
:10029000892B09F420E0822F0895CF92DF92EF920C
:1002A000FF921F93CF93DF93EC016A017B01122F22
:1002B000E889F98982E08083C11481EED806E104DF
:1002C000F104A1F060E079E08DE390E0A7019601F0
:1002D0000E948505215031094109510956954795DC
:1002E00037952795211580E1380798F0E889F98935
:1002F000108260E874E88EE190E0A70196010E9408
:100300008505215031094109510956954795379581
:100310002795EC85FD853083EE85FF852083188E3B
:10032000EC89FD891083EA89FB8980818061808363
:10033000EA89FB89808188608083EA89FB898081E2
:1003400080688083EA89FB8980818F7D8083DF914B
:10035000CF911F91FF90EF90DF90CF900895FC0117
:10036000A48DA80FB92FB11DA35ABF4F2C91848D16
:1003700090E001968F739927848FA689B7892C9373
:10038000A089B1898C91837080648C93938D848DC6
:10039000981306C00288F389E02D80818F7D8083C9
:1003A0000895EF92FF920F931F93CF93DF93EC0189
:1003B00081E0888F9B8D8C8D98131AC0E889F9890C
:1003C000808185FF15C09FB7F894EE89FF8960830F
:1003D000E889F98980818370806480839FBF81E090
:1003E00090E0DF91CF911F910F91FF90EF900895D2
:1003F000F62E0B8D10E00F5F1F4F0F731127E02EAD
:100400008C8D8E110CC00FB607FCFACFE889F989E4
:10041000808185FFF5CFCE010E94AF01F1CFEB8D3A
:10042000EC0FFD2FF11DE35AFF4FF0829FB7F894B8
:100430000B8FEA89FB8980818062CFCFCF93DF93D6
:10044000EC01888D8823B9F0AA89BB89E889F989EC
:100450008C9185FD03C0808186FD0DC00FB607FC21
:10046000F7CF8C9185FFF2CF808185FFEDCFCE0154
:100470000E94AF01E9CFDF91CF91089580E090E035
:10048000892B29F00E94430181110E94000080E025
:1004900090E0892B49F080E090E0892B29F00E94C0
:1004A000000081110E94000080E090E0892B49F05B
:1004B00080E090E0892B29F00E94000081110E94C9
:1004C000000080E090E0892B49F080E090E0892BEB
:1004D00029F00E94000081110C9400000895CF9330
:1004E000DF9300D000D0CDB7DEB79A8389834B83EA
:1004F0005C836D837E838B819C81AD81BE81E9812C
:10050000FA8126E0AC01BD01CF010E944D01269683
:100510000FB6F894DEBF0FBECDBFDF91CF91089527
:10052000FC0180819181009711F00C945A06089586
:10053000CF92DF92EF92FF920F931F93CF93DF93AF
:10054000CDB7DEB762970FB6F894DEBF0FBECDBF52
:100550008C01CB01F8011182108213821282158264
:10056000148250E09E012F5F3F4F6901B9010E9444
:100570001305F60101900020E9F731977F01EC188F
:10058000FD08F80180819181009729F02281338153
:100590002E153F0590F4B7016F5F7F4F0E94E30671
:1005A000F801009799F091838083F382E28224819D
:1005B0003581232B11F4FC011082F801F582E482CD
:1005C000B601808191810E94CD070DC0808191810B
:1005D000009711F00E945A06F801118210821582CC
:1005E00014821382128262960FB6F894DEBF0FBE99
:1005F000CDBFDF91CF911F910F91FF90EF90DF90D2
:10060000CF9008951F920F920FB60F9211242F933F
:100610003F938F939F93AF93BF938091D802909114
:10062000D902A091DA02B091DB023091D70223E027
:10063000230F2D3758F50196A11DB11D2093D70228
:100640008093D8029093D902A093DA02B093DB0290
:100650008091D3029091D402A091D502B091D6029C
:100660000196A11DB11D8093D3029093D402A09353
:10067000D502B093D602BF91AF919F918F913F91D8
:100680002F910F900FBE0F901F90189526E8230F03
:100690000296A11DB11DD2CF1F920F920FB60F92DD
:1006A00011240BB60F922F933F934F935F936F9349
:1006B0007F938F939F93AF93BF93EF93FF9386E3C3
:1006C00092E00E94AF01FF91EF91BF91AF919F9196
:1006D0008F917F916F915F914F913F912F910F90EB
:1006E0000BBE0F900FBE0F901F9018951F920F9288
:1006F0000FB60F9211240BB60F922F938F939F93E7
:10070000EF93FF93E0914602F09147028081E091E0
:100710004C02F0914D0282FD1DC0908180914F02EC
:100720008F5F8F7320915002821741F0E0914F024A
:10073000F0E0EA5CFD4F958F80934F02FF91EF91BF
:100740009F918F912F910F900BBE0F900FBE0F9026
:100750001F9018958081F2CFCF93DF93CDB7DEB78E
:10076000DF91CF910895CF93DF931F921F92CDB762
:10077000DEB79A83898389819A810F900F90DF91E8
:10078000CF910895CF93DF93CDB7DEB766970FB6BD
:10079000F894DEBF0FBECDBF0E94040521E0892B77
:1007A00009F420E0222321F081E090E09A838983FC
:1007B00089819A810E94B30366960FB6F894DEBFD2
:1007C0000FBECDBFDF91CF910895CF93DF9300D0BF
:1007D00000D01F921F92CDB7DEB740E855E260E02F
:1007E00070E086E392E00E946F020E94C2039A8347
:1007F000898329813A81CE0103964AE0B9010E949A
:100800009802CE010396BC0186E392E00E94B600F6
:10081000CE0103960E94900228960FB6F894DEBF90
:100820000FBECDBFDF91CF910895E6E3F2E01382D2
:10083000128288EE93E0A0E0B0E084839583A683E3
:10084000B78384E292E09183808385EC90E0958782
:10085000848784EC90E09787868780EC90E0918B8A
:10086000808B81EC90E0938B828B82EC90E0958B77
:10087000848B86EC90E0978B868B118E128E138E74
:10088000148E0895789484B5826084BD84B58160A7
:1008900084BD85B5826085BD85B5816085BD80914B
:1008A0006E00816080936E001092810080918100C3
:1008B00082608093810080918100816080938100BB
:1008C000809180008160809380008091B10084607D
:1008D0008093B1008091B00081608093B0008091DE
:1008E000910082608093910080919100816080935B
:1008F0009100809190008160809390008091A10090
:1009000082608093A1008091A10081608093A1000A
:100910008091A00081608093A0008091210182607D
:100920008093210180912101816080932101809138
:10093000200181608093200180917A0084608093FF
:100940007A0080917A00826080937A0080917A00A8
:10095000816080937A0080917A00806880937A0029
:100960001092C1000E94E5030E94AC030E943E0267
:10097000FBCF8F929F92AF92BF92CF92DF92EF9276
:10098000FF92CF93DF93EC01688179818A819B810B
:10099000611571058105910521F464E279ED8BE51E
:1009A00097E02DE133EF41E050E00E94530549010B
:1009B0005A019B01AC01A7EAB1E40E9472056B01E8
:1009C0007C01ACEEB4EFA50194010E948005DC012E
:1009D000CB018C0D9D1DAE1DBF1DB7FF03C0019740
:1009E000A109B04888839983AA83BB839F77DF914D
:1009F000CF91FF90EF90DF90CF90BF90AF909F90FE
:100A00008F9008950C94B90480E092E00C94B9049E
:100A1000B0E0A0E08093000290930102A093020254
:100A2000B093030208954532510520F4423010F08E
:100A30000C941E05FB011082CB010895BB274A30A0
:100A400031F4992322F4BDE2909581959F4F0C9447
:100A50002A05BB27FB015527AA27880F991FAA1F24
:100A6000A41710F0A41B83955051B9F7A05DAA33C9
:100A700008F0A95DA193009779F7B111B193119294
:100A8000CB010C944305DC01FC01672F71917723A6
:100A9000E1F7329704C07C916D9370836291AE1739
:100AA000BF07C8F30895052E97FB1EF400940E941B
:100AB0006A0557FD07D00E94850507FC03D04EF458
:100AC0000C946A0550954095309521953F4F4F4FB6
:100AD0005F4F089590958095709561957F4F8F4FEA
:100AE0009F4F08950E94A705A59F900DB49F900D5C
:100AF000A49F800D911D11240895B7FF0C947205D9
:100B00000E947205821B930B0895A1E21A2EAA1B64
:100B1000BB1BFD010DC0AA1FBB1FEE1FFF1FA217AD
:100B2000B307E407F50720F0A21BB30BE40BF50BAA
:100B3000661F771F881F991F1A9469F76095709533
:100B4000809590959B01AC01BD01CF010895A29FB6
:100B5000B001B39FC001A39F700D811D1124911D91
:100B6000B29F700D811D1124911D0895EE0FFF1F7E
:100B7000881F8BBF0790F691E02D19940F931F9358
:100B8000CF93DF938230910510F482E090E0E09102
:100B9000DE02F091DF0230E020E0B0E0A0E030972C
:100BA00099F42115310509F44AC0281B390B24306A
:100BB0003105D8F58A819B816115710589F1FB01A9
:100BC00093838283FE0111C0408151810281138190
:100BD00048175907E0F04817590799F4109761F042
:100BE00012960C93129713961C933296CF01DF91B5
:100BF000CF911F910F9108950093DE021093DF02B1
:100C0000F4CF2115310551F04217530738F0A901EF
:100C1000DB019A01BD01DF01F801C1CFEF01F9CF7E
:100C20009093DF028093DE02CDCFFE01E20FF31F2F
:100C3000819391932250310939832883D7CF209112
:100C4000DC023091DD02232B41F420910602309129
:100C500007023093DD022093DC02209104023091E0
:100C600005022115310541F42DB73EB74091080228
:100C700050910902241B350BE091DC02F091DD025A
:100C8000E217F307A0F42E1B3F0B2817390778F063
:100C9000AC014E5F5F4F2417350748F04E0F5F1FC2
:100CA0005093DD024093DC02819391939FCFF0E05B
:100CB000E0E09CCFCF93DF930097E9F0FC013297FF
:100CC00013821282A091DE02B091DF02ED0130E0CA
:100CD00020E01097A1F420813181820F931F209191
:100CE000DC023091DD022817390709F061C0F0936A
:100CF000DD02E093DC02DF91CF910895EA01CE1787
:100D0000DF07E8F54A815B819E0141155105B1F786
:100D1000E901FB83EA8349915991C40FD51FEC1770
:100D2000FD0761F4808191810296840F951FE9018E
:100D300099838883828193819B838A83F0E0E0E0BA
:100D400012968D919C9113970097B9F52D913C9136
:100D50001197CD010296820F931F2091DC023091F2
:100D6000DD022817390739F6309751F51092DF0266
:100D70001092DE02B093DD02A093DC02BCCFD383DD
:100D8000C28340815181840F951FC817D90761F430
:100D90004E5F5F4F88819981480F591F518340836F
:100DA0008A819B81938382832115310509F0B0CF1D
:100DB000F093DF02E093DE029ECFFD01DC01C0CFA5
:100DC00013821282D7CF4F925F926F927F928F924F
:100DD0009F92AF92BF92CF92DF92EF92FF920F93CA
:100DE0001F93CF93DF938C01009799F4CB01DF9190
:100DF000CF911F910F91FF90EF90DF90CF90BF9018
:100E0000AF909F908F907F906F905F904F900C94D9
:100E1000BE05FC01E60FF71F9C0122503109E217C5
:100E2000F30708F4AEC0D901CD91DC911197C61734
:100E3000D70720F1C530D10578F0CE010497861789
:100E4000970750F0C61BD70B2297C193D1936D9390
:100E50007C93CF010E945A06C801DF91CF911F9168
:100E60000F91FF90EF90DF90CF90BF90AF909F9049
:100E70008F907F906F905F904F9008955B01AC1AB8
:100E8000BD0A4C018C0E9D1EA091DE02B091DF02C6
:100E9000512C412CF12CE12C109731F58091DC0282
:100EA0009091DD028815990509F05CC04616570639
:100EB00008F058C08091040290910502009741F417
:100EC0008DB79EB74091080250910902841B950B83
:100ED000E817F90708F055C0F093DD02E093DC0253
:100EE000F90171836083B8CF8D919C91119712960F
:100EF0006C90129713967C901397A815B90559F525
:100F00006C0142E0C40ED11CCA14DB0420F1AC0118
:100F10004A195B09DA011296159780F06282738292
:100F200051834083D9016D937C93E114F10471F0F6
:100F3000D7011396FC93EE9312978ECF22968C0FC7
:100F40009D1FF90191838083F301EFCFF093DF02BE
:100F5000E093DE0281CF4816590608F42C017D018A
:100F6000D3019ACFCB010E94BE057C01009749F0C6
:100F7000AE01B8010E94C407C8010E945A06870149
:100F80006BCF10E000E068CFFB01DC0102C00190F4
:100F90000D9241505040D8F70895FB01DC010190BB
:0C0FA0000D920020E1F70895F894FFCFB7
:100FAC00010000000000E0028000353332341415DB
:100FBC00363738393A3B3C3D3E3F4041424344454D
:100FCC0000000000D101D90006011E0237011501F5
:060FDC0029010D0A0000CE
:00000001FF
