:100000000C9426010C9457010C9457010C94570141
:100010000C9457010C9457010C9457010C94570100
:100020000C9457010C9457010C9457010C945701F0
:100030000C9457010C9457010C9457010C945701E0
:100040000C9457010C9457010C9457010C945701D0
:100050000C9457010C9457010C9457010C94C3064F
:100060000C9457010C94CD200C949F220C945701B2
:100070000C9457010C9457010C9457010C945701A0
:100080000C9457010C9457010C9457010C94570190
:100090000C9457010C9457010C9457010C94570180
:1000A0000C9457010C9457010C9457010C94570170
:1000B0000C9457010C9457010C9457010C94570160
:1000C0000C9457010C9457010C9457010C94570150
:1000D0000C9457010C9457010C9457010C94570140
:1000E0000C9457010C94A3010C9493040C945803A2
:1000F0000C948E020C949B020C94C7030C948520E4
:100100000C9496010C94A2230C948D030C94CF2292
:100110000C94F4034E414E494E495459494E46CD34
:10012000CCCC3D0AD7233C17B7D13877CC2B3295AE
:1001300095E6241FB14F0A000020410000C842008C
:10014000401C4620BCBE4CCA1B0E5AAEC59D740056
:10015000407A10F35A00A0724E18090010A5D4E896
:100160000000E87648170000E40B54020000CA9A29
:100170003B000000E1F5050000809698000000407B
:10018000420F000000A086010000001027000000C0
:1001900000E803000000006400000000000A000006
:1001A0000000000100000000002C76D888DC674FBA
:1001B0000823DFC1DFAE59E1B1B796E5E3E453C6EA
:1001C0003AE651997696E8E6C28426EB898C9B62E2
:1001D000ED407C6FFCEFBC9C9F40F2BAA56FA5F48C
:1001E00090055A2AF75C936B6CF9676DC11BFCE0B4
:1001F000E40D47FEF520E6B500D0ED902E03009407
:100200003577050080841E080000204E0A0000009B
:10021000C80C333333330F986E12831141EF8D21A5
:1002200014893BE65516CFFEE6DB18D1844B381B0C
:10023000F77C1D901DA4BBE424203284725E2281D1
:1002400000C9F124ECA1E53D2700852011241FBE43
:10025000CFEFD1E2DEBFCDBF00E00CBF23E0AAECC0
:10026000B2E001C01D92A737B207E1F712E0A0E0AB
:10027000B2E0EEEDFCE500E00BBF02C007900D928E
:10028000AA3CB107D9F711E0C6E2D1E000E006C010
:1002900021970109802FFE010E94C92BC532D10789
:1002A00080E00807A9F70E946F240C946D2E0C942F
:1002B0000000CF93DF931F921F92CDB7DEB79A83D2
:1002C000898389819A81FC011182108289819A81B6
:1002D000FC011382128289819A81FC0115821482A9
:1002E0000F900F90DF91CF910895CF93DF931F92DE
:1002F0001F92CDB7DEB79A83898389819A81FC01E9
:1003000080819181892B29F420E030E040E050E0A9
:1003100004C026E931E040E050E0DA01C901BC0147
:10032000CD010F900F90DF91CF910895CF93DF9380
:100330001F921F92CDB7DEB79A8389830F900F90DB
:10034000DF91CF910895CF93DF9300D000D01F921B
:100350001F92CDB7DEB79C838B837E836D835887D6
:100360004F831A8219828F8198859C01215031090F
:1003700038872F8321E0892B09F420E0222311F113
:100380008B819C81FC0180819181FC0120813181E4
:100390008D819E81AC014F5F5F4F5E834D83FC0179
:1003A00040818B819C81642FF901199521E0892B73
:1003B00009F420E0222331F089819A8101969A8301
:1003C0008983D1CF89819A8128960FB6F894DEBFB0
:1003D0000FBECDBFDF91CF910895CF93DF9300D0B3
:1003E00000D0CDB7DEB79A8389837C836B835E832D
:1003F0004D8389819A81FC01808191810296FC0163
:10040000208131814D815E816B817C8189819A81DE
:10041000F901199526960FB6F894DEBF0FBECDBF31
:10042000DF91CF910895CF93DF931F921F92CDB7A5
:10043000DEB79A83898389819A81FC0180819181C9
:100440000F900F90DF91CF910895CF93DF931F927C
:100450001F92CDB7DEB79A83898389819A81FC0187
:10046000848195810F900F90DF91CF910895CF9364
:10047000DF9300D01F92CDB7DEB79C838B838B8137
:100480009C81FC0180899189FC018081882F90E00A
:100490008470992721E0892B09F020E0222371F153
:1004A0008B819C81FC0186899789FC0180818983ED
:1004B0008B819C81FC01818D8F5F8F738A838B81FF
:1004C0009C81FC01928D81E02A81291709F480E04A
:1004D0008823E1F08B819C81FC01818D882F90E045
:1004E0002B813C81820F931F4D962981FC01208333
:1004F0008B819C812A81FC01218F09C08B819C8189
:10050000FC0186899789FC01808101C000000F9061
:100510000F900F900F90DF91CF910895CF93DF93BD
:100520001F921F92CDB7DEB79A8389830F900F90E9
:10053000DF91CF910895CF93DF931F921F92CDB794
:10054000DEB79A83898380E090E00F900F90DF916F
:10055000CF910895CF93DF931F921F92CDB7DEB74F
:100560009A8389832EE832E089819A81FC01318364
:10057000208389819A81FC01138212820F900F904F
:10058000DF91CF910895CF93DF931F921F92CDB744
:10059000DEB79A83898389819A810E94AA022AE917
:1005A00032E089819A81FC013183208329813A815B
:1005B00088EE93E0A0E0B0E0F90184839583A68300
:1005C000B7830F900F90DF91CF910895CF92DF9274
:1005D000EF92FF920F931F93CF93DF93CDB7DEB7C8
:1005E0002E970FB6F894DEBF0FBECDBF9A838983D6
:1005F0007C836B835E834D8338872F831A870987BB
:10060000FC86EB86DE86CD8689819A810E94C302B4
:100610002CEA32E089819A81FC013183208389812F
:100620009A812B813C81FC013587248789819A81BD
:100630002D813E81FC013787268789819A812F8110
:100640003885FC01318B208B89819A8129853A85F7
:10065000FC01338B228B89819A812B853C85FC019F
:10066000358B248B89819A812D853E85FC01378BC2
:10067000268B89819A81FC01118E89819A81FC01E6
:10068000128E89819A81FC01138E89819A81FC01E5
:10069000148E2E960FB6F894DEBF0FBECDBFDF913D
:1006A000CF911F910F91FF90EF90DF90CF90089521
:1006B000CF93DF9300D01F92CDB7DEB79C838B839F
:1006C0008B819C81FC01838D89838B819C81FC01C2
:1006D000848D8A8399818A81981768F08981882F0F
:1006E00090E02FE330E0281B390B8A81882F90E0BF
:1006F000820F931F0BC08A81282F30E08981882FB9
:1007000090E0A901481B590BCA0101970F900F9067
:100710000F900F90DF91CF910895CF93DF9300D08A
:10072000CDB7DEB79B838A838A819B81FC01218DB3
:100730008A819B81FC01928D81E0291709F080E07C
:10074000882319F08FEF9FEF1CC08A819B81FC01E9
:10075000828D882F90E02A813B81820F931F4D96D6
:10076000FC01808189838A819B81FC01828D8F5F5E
:10077000282F2F738A819B81FC01228F8981882FEA
:1007800090E00F900F900F90DF91CF910895CF934D
:10079000DF931F921F92CDB7DEB79A838983898139
:1007A0009A81FC01218D89819A81FC01928D81E0E1
:1007B000291709F080E0882319F08FEF9FEF0FC011
:1007C00089819A81FC01828D882F90E029813A816C
:1007D000820F931F4D96FC018081882F90E00F902F
:1007E0000F90DF91CF910895CF93DF931F921F92C7
:1007F000CDB7DEB79A83898389819A81FC01818D87
:10080000882F90E09C01205C3F4F89819A81FC01F8
:10081000828D882F90E0A901481B590BCA018F7364
:1008200099270F900F90DF91CF910895CF93DF9389
:10083000CDB7DEB78AEC92E00E94F40321E0892B69
:1008400009F420E0822FDF91CF910895CF93DF93B9
:10085000CDB7DEB780E090E0892B31F00E9416041E
:10086000882311F081E001C080E0882311F00E940C
:10087000000080E090E0892B51F080E090E0892B2F
:1008800031F00E940000882311F081E001C080E077
:10089000882311F00E94000080E090E0892B51F045
:1008A00080E090E0892B31F00E940000882311F055
:1008B00081E001C080E0882311F00E94000080E008
:1008C00090E0892B51F080E090E0892B31F00E947C
:1008D0000000882311F081E001C080E0882311F03E
:1008E0000E940000DF91CF910895CF93DF931F9274
:1008F0001F92CDB7DEB79A8389838FE590E0298177
:100900003A81F9012081FC0120830F900F90DF9143
:10091000CF910895CF93DF93CDB7DEB7F89481E000
:10092000DF91CF910895CF93DF93CDB7DEB70E94CB
:10093000D72D0F931F93CF93DF9300D01F92CDB786
:10094000DEB79A8389837C836B838B819C81892B1F
:1009500019F480E090E015C089819A81FC018081C2
:1009600091810296FC01008111818B819C810E9402
:10097000222EAC012B813C8189819A81B901F80139
:1009800019950F900F900F900F90DF91CF911F91BD
:100990000F910895CF93DF93CDB7DEB7DF91CF915D
:1009A0000895CF93DF93CDB7DEB7789484E490E0D9
:1009B000FC01208184E490E02260FC01208384E437
:1009C00090E0FC01208184E490E02160FC01208320
:1009D00085E490E0FC01208185E490E02260FC0148
:1009E000208385E490E0FC01208185E490E0216093
:1009F000FC0120838EE690E0FC0120818EE690E0F1
:100A00002160FC01208381E890E0FC01108281E8F4
:100A100090E0FC01208181E890E02260FC012083CD
:100A200081E890E0FC01208181E890E02160FC01F8
:100A3000208380E890E0FC01208180E890E0216044
:100A4000FC01208381EB90E0FC01208181EB90E0B0
:100A50002460FC01208380EB90E0FC01208180EB8E
:100A600090E02160FC01208381E990E0FC0120817D
:100A700081E990E02260FC01208381E990E0FC01A3
:100A8000208181E990E02160FC01208380E990E0F1
:100A9000FC01208180E990E02160FC01208381EA53
:100AA00090E0FC01208181EA90E02260FC0120833B
:100AB00081EA90E0FC01208181EA90E02160FC0164
:100AC000208380EA90E0FC01208180EA90E02160B0
:100AD000FC01208381E291E0FC01208181E291E030
:100AE0002260FC01208381E291E0FC01208181E20F
:100AF00091E02160FC01208380E291E0FC012081F3
:100B000080E291E02160FC0120838AE790E0FC0113
:100B100020818AE790E02460FC0120838AE790E04E
:100B2000FC0120818AE790E02260FC0120838AE7B3
:100B300090E0FC0120818AE790E02160FC012083A5
:100B40008AE790E0FC0120818AE790E02068FC01C0
:100B5000208381EC90E0FC011082DF91CF91089519
:100B6000CF93DF931F921F92CDB7DEB79A8389830D
:100B700089819A81029798F089819A81880F991FBB
:100B8000880F991F9A83898389819A8105979A830F
:100B9000898389819A810197F1F79A8389830F90DC
:100BA0000F90DF91CF910895CF93DF9300D000D0C5
:100BB000CDB7DEB78FE590E0FC0180818D83F8949E
:100BC00080916D0390916E03A0916F03B0917003BB
:100BD00089839A83AB83BC8386E490E0FC018081A7
:100BE0008E8385E390E0FC018081882F90E0817006
:100BF0009927892B71F08E818F3F59F089819A81D5
:100C0000AB81BC810196A11DB11D89839A83AB8301
:100C1000BC838FE590E02D81FC01208389819A813E
:100C2000AB81BC812227382F492F5A2F8E81882FE4
:100C300090E0A0E0B0E0820F931FA41FB51F880FC3
:100C4000991FAA1FBB1F880F991FAA1FBB1FBC019A
:100C5000CD0126960FB6F894DEBF0FBECDBFDF9153
:100C6000CF910895EF92FF920F931F93CF93DF934D
:100C700000D000D01F921F92CDB7DEB76D837E8368
:100C80008F8398870E94D405DC01CB0189839A83E6
:100C9000AB83BC8337C00E94CA0417C08D819E817C
:100CA000AF81B8850197A109B1098D839E83AF8378
:100CB000B88789819A81AB81BC8188519C4FAF4FA5
:100CC000BF4F89839A83AB83BC838D819E81AF8123
:100CD000B885892B8A2B8B2BA9F00E94D4059B0108
:100CE000AC0189819A81AB81BC8179018A01E81AC2
:100CF000F90A0A0B1B0BD801C701883E9340A105D6
:100D0000B10560F68D819E81AF81B885892B8A2BD4
:100D10008B2B09F628960FB6F894DEBF0FBECDBF19
:100D2000DF91CF911F910F91FF90EF900895CF9396
:100D3000DF9300D01F921F92CDB7DEB78FE590E012
:100D4000FC0180818983F8948091690390916A0302
:100D5000A0916B03B0916C038A839B83AC83BD83AA
:100D60008FE590E02981FC0120838A819B81AC8101
:100D7000BD81BC01CD010F900F900F900F900F908F
:100D8000DF91CF9108951F920F920FB60F92112409
:100D90008F939F93AF93BF93CF93DF93CDB7DEB77E
:100DA0002597DEBFCDBF8091690390916A03A09122
:100DB0006B03B0916C0389839A83AB83BC8380916E
:100DC00068038D8389819A81AB81BC810196A11DC5
:100DD000B11D89839A83AB83BC838D818D5F8D83A5
:100DE0008D818D3770F08D818D578D8389819A81AA
:100DF000AB81BC810196A11DB11D89839A83AB8310
:100E0000BC838D818093680389819A81AB81BC8189
:100E10008093690390936A03A0936B03B0936C0370
:100E200080916D0390916E03A0916F03B091700358
:100E30000196A11DB11D80936D0390936E03A09345
:100E40006F03B09370030F900F900F900F900F905F
:100E5000DF91CF91BF91AF919F918F910F900FBE76
:100E60000F901F901895CF93DF93CDB7DEB7DF912A
:100E7000CF910895CF93DF93CDB7DEB7DF91CF91B8
:100E80000895CF93DF931F921F92CDB7DEB79A8359
:100E9000898380E090E00F900F90DF91CF910895CB
:100EA000CF93DF93CDB7DEB70E94D72DCF93DF93DB
:100EB0001F921F92CDB7DEB79A83898389819A8169
:100EC000FC0180819181892B51F089819A81FC01FB
:100ED000808191810E949C24DC01CB0103C080E0D1
:100EE00090E0DC01BC01CD010F900F90DF91CF911C
:100EF0000895CF93DF931F921F92CDB7DEB79A83E9
:100F0000898389819A810E945607DC01CB01BC014B
:100F1000CD010F900F90DF91CF910895CF93DF9384
:100F20001F921F92CDB7DEB79A83898389819A81F8
:100F3000FC0180819181892B51F089819A81FC018A
:100F4000808191810E94A024DC01CB0103C080E05C
:100F500090E0DC01BC01CD010F900F90DF91CF91AB
:100F60000895CF93DF9300D000D0CDB7DEB79E8336
:100F70008D838D819E81FC0180819181892B09F473
:100F80007EC08D819E81FC0184819581892B09F42D
:100F900076C08D819E81FC01808191819A838983B5
:100FA00089819A81FC018081082E000C990B0E9496
:100FB0001D29892B31F089819A8101969A83898331
:100FC000EFCF8D819E81FC01208131818D819E81B9
:100FD000FC01848195810197820F931F9C838B83F1
:100FE0008B819C81FC018081082E000C990B0E9452
:100FF0001D29892B69F02B813C8189819A812817D1
:10100000390730F08B819C8101979C838B83E8CFDB
:101010008B819C8101969C0189819A81A901481B41
:10102000590BCA019C018D819E81FC01358324836B
:101030008D819E81FC018081918129813A81821775
:10104000930778F48D819E81FC01448155818D81C7
:101050009E81FC018081918129813A81B9010E94A0
:10106000EC2D8D819E81FC01208131818D819E81BD
:10107000FC0184819581820F931FFC0110822696CA
:101080000FB6F894DEBF0FBECDBFDF91CF910895AC
:10109000CF93DF9300D01F92CDB7DEB79C838B83B5
:1010A0008B819C81FC0180819181892B09F18B814D
:1010B0009C81FC01808191819A83898389819A81B5
:1010C000FC0180818823A1F089819A81FC018081C3
:1010D000082E000C990B0E94E42D282F89819A81FB
:1010E000FC01208389819A8101969A838983E6CFC6
:1010F0000F900F900F900F90DF91CF910895CF93A5
:10110000DF9300D01F92CDB7DEB79C838B838B819A
:101110009C81FC0180819181892B09F18B819C81CB
:10112000FC01808191819A83898389819A81FC0164
:1011300080818823A1F089819A81FC018081082E19
:10114000000C990B0E94DC2D282F89819A81FC01CB
:10115000208389819A8101969A838983E6CF0F90B3
:101160000F900F900F90DF91CF910895CF93DF9361
:1011700000D000D01F921F92CDB7DEB79C838B8327
:101180007E836D8358874F838B819C81FC01848192
:1011900095812D813E812817390708F066C08F811F
:1011A0009885892B09F461C08B819C81FC01248185
:1011B00035818D819E81A901481B590BCA012F8160
:1011C00038858217930768F48B819C81FC01248108
:1011D00035818D819E81A901481B590BCA019887D1
:1011E0008F838B819C81FC01208131818D819E8147
:1011F000820F931F9A8389838B819C81FC012481B8
:1012000035818F819885281B390B8B819C81FC014E
:10121000358324838B819C81FC01248135818D81E0
:101220009E81B901681B790B8B819C81FC01208117
:1012300031814D815E818F819885840F951F280FA4
:10124000391F89819A81AB01B9010E94392E8B81A6
:101250009C81FC01208131818B819C81FC018481F6
:101260009581820F931FFC01108228960FB6F89487
:10127000DEBF0FBECDBFDF91CF910895CF93DF9337
:1012800000D01F92CDB7DEB79A8389837C836B83AE
:101290002B813C8189819A814FEF5FEFB9010E94D8
:1012A000B6080F900F900F900F90DF91CF91089597
:1012B000CF93DF9300D000D0CDB7DEB79C838B8374
:1012C0006D834E838B819C81FC0180819181892B70
:1012D000F9F08B819C81FC01808191819A838983C3
:1012E00089819A81FC018081882391F089819A818A
:1012F000FC0180819D81981729F489819A812E8132
:10130000FC01208389819A8101969A838983E8CFA1
:1013100026960FB6F894DEBF0FBECDBFDF91CF91FA
:101320000895CF93DF9300D000D000D01F92CDB7A7
:10133000DEB79E838D8378876F835A8749878F8135
:101340009885FC0184819581892BA1F08D819E81F6
:10135000FC0184819581892B69F08F819885FC013E
:10136000248135818D819E81FC0184819581821744
:10137000930718F48FEF9FEF5DC08D819E81FC0174
:101380008481958129853A852817390740F08D8118
:101390009E81FC018481958101979A8789878FEFCF
:1013A0009FEF9A8389838D819E81FC018081918149
:1013B0009C838B838D819E81FC0120813181898575
:1013C0009A85820F931F2B813C818217930780F1AE
:1013D0008F819885FC01208131818B819C81B901AD
:1013E0000E94532E9C838B838B819C81892B01F1DE
:1013F0008B819C812D813E81F90120813181821B6D
:10140000930B9C0189859A858217930758F08B81ED
:101410009C812D813E81F90120813181821B930BBA
:101420009A8389838B819C8101969C838B83C2CF15
:1014300089819A812A960FB6F894DEBF0FBECDBF80
:10144000DF91CF910895CF93DF9300D01F92CDB756
:10145000DEB79A8389837C836B8389819A81FC01BF
:10146000248135818B819C81FC0184819581A90136
:10147000481B590B2B813C8189819A81B9010E94BB
:1014800091090F900F900F900F90DF91CF910895D9
:10149000CF93DF9300D000D01F921F92CDB7DEB75D
:1014A0009D838C836E8358874F838C819D81FC0143
:1014B000848195812F8138852817390718F08FEF9F
:1014C0009FEF44C08C819D81FC01208131818F81FF
:1014D00098850196820F931FFC01808189838C81FE
:1014E0009D81FC01208131818F8198850196820F39
:1014F000931FFC0110828E81282F880F330B8C8163
:101500009D81FC0180819181B9010E94482E9B83BD
:101510008A838C819D81FC01208131818F81988516
:101520000196820F931F2981FC0120838A819B8170
:10153000892B19F48FEF9FEF09C08A819B812C8141
:101540003D81F90120813181821B930B28960FB6D2
:10155000F894DEBF0FBECDBFDF91CF910895CF933A
:10156000DF9300D0CDB7DEB79A8389836B838981FF
:101570009A81FC01848195819C01215031098981E6
:101580009A81A9016B810E94480A0F900F900F90D9
:10159000DF91CF910895CF93DF9300D000D01F92B9
:1015A0001F92CDB7DEB79C838B837E836D83588774
:1015B0004F838B819C81FC01848195812F813885AB
:1015C0002817390718F08FEF9FEF23C08D819E8178
:1015D000FC01408151818B819C81FC012081318102
:1015E0008F819885820F931FBA010E94532E9A8390
:1015F000898389819A81892B19F48FEF9FEF09C024
:1016000089819A812B813C81F90120813181821B62
:10161000930B28960FB6F894DEBF0FBECDBFDF91B7
:10162000CF910895CF93DF9300D01F92CDB7DEB74F
:101630009A8389837C836B832B813C8189819A8106
:1016400040E050E0B9010E94CB0A0F900F900F903C
:101650000F90DF91CF910895CF93DF9300D000D00A
:101660001F92CDB7DEB79C838B836D835F834E83E0
:101670008B819C81FC01848195812E813F8128177B
:10168000390718F08FEF9FEF22C08D81482F880F08
:10169000550B8B819C81FC01208131818E819F8142
:1016A000820F931FBA010E94072E9A838983898132
:1016B0009A81892B19F48FEF9FEF09C089819A8154
:1016C0002B813C81F90120813181821B930B27966C
:1016D0000FB6F894DEBF0FBECDBFDF91CF91089556
:1016E000CF93DF9300D0CDB7DEB79A8389836B8326
:1016F00089819A8140E050E06B810E942C0B0F9011
:101700000F900F90DF91CF910895CF93DF9300D08A
:1017100000D000D01F92CDB7DEB79C838B837E8331
:101720006D8358874F833A8729878F819885892BC6
:1017300009F44EC08D819E81892B09F449C08B81AB
:101740009C81FC018481958129853A852817390778
:1017500028F08D819E81FC0110823AC08F8198858E
:1017600001979A8389838B819C81FC012481358137
:1017700089859A85A901481B590BCA0129813A819B
:101780008217930768F48B819C81FC012481358149
:1017900089859A85A901481B590BCA019A838983B7
:1017A0008B819C81FC012081318189859A85280F5C
:1017B000391F49815A818D819E81B9010E94392E3C
:1017C0002D813E8189819A81820F931FFC011082B5
:1017D0002A960FB6F894DEBF0FBECDBFDF91CF9132
:1017E0000895CF93DF9300D01F92CDB7DEB79A83D1
:1017F00089837C836B8389819A81FC0184819581B3
:101800002B813C812817390738F489819A81FC01A2
:1018100080819181892B11F480E00BC089819A81AC
:10182000FC01208131818B819C81820F931FFC01FF
:1018300080810F900F900F900F90DF91CF910895BE
:10184000CF93DF9300D01F92CDB7DEB79A83898301
:101850007C836B8389819A81FC01848195812B81B2
:101860003C812817390738F489819A81FC018081ED
:101870009181892B29F41092670387E693E009C0D0
:1018800089819A81FC01208131818B819C81820F29
:10189000931F0F900F900F900F90DF91CF910895AD
:1018A000CF93DF9300D01F921F92CDB7DEB79A83FC
:1018B00089837C836B834D8389819A81FC01848138
:1018C00095812B813C812817390760F489819A81A1
:1018D000FC01208131818B819C81820F931F2D819E
:1018E000FC0120830F900F900F900F900F90DF91CD
:1018F000CF910895CF93DF9300D01F92CDB7DEB77D
:101900009A8389837C836B832B813C8189819A8133
:10191000B9010E94F10B0F900F900F900F90DF9183
:10192000CF910895CF93DF9300D01F92CDB7DEB74C
:101930009A8389837C836B8389819A81FC012481CA
:1019400035818B819C81FC01848195812817390721
:1019500070F089819A81FC0180819181892B39F015
:101960008B819C81FC0180819181892B11F480E025
:1019700021C08B819C81FC016081718189819A8168
:10198000FC012081318189819A81FC01448155814A
:101990008B819C81FC0184819581FA01E81BF90B04
:1019A000CF01820F931F0E94122E21E0892B09F094
:1019B00020E0822F0F900F900F900F90DF91CF912A
:1019C0000895CF93DF9300D000D0CDB7DEB79A83D0
:1019D00089837C836B835E834D8389819A81FC013B
:1019E000248135818B819C81FC0184819581A901B1
:1019F000481B590BCA012D813E818217930770F055
:101A000089819A81FC0180819181892B39F08B81B8
:101A10009C81FC0180819181892B11F480E01AC0A6
:101A20008B819C81FC01448155818B819C81FC01CF
:101A30006081718189819A81FC01208131818D8150
:101A40009E81820F931F0E942B2E21E0892B09F08B
:101A500020E0822F26960FB6F894DEBF0FBECDBFD2
:101A6000DF91CF910895CF93DF9300D01F92CDB730
:101A7000DEB79A8389837C836B8389819A81FC0199
:101A8000248135818B819C81FC018481958128177B
:101A9000390710F480E009C02B813C8189819A814B
:101AA00040E050E0B9010E94E10C0F900F900F90C0
:101AB0000F90DF91CF9108950F931F93CF93DF93F2
:101AC00000D000D01F921F92CDB7DEB79E838D83CA
:101AD00078876F832D813E818F81988528173907FC
:101AE00011F481E053C08D819E81FC0124813581F8
:101AF0008F819885FC01848195812817390711F021
:101B000080E044C08D819E81FC0184819581892B78
:101B100011F481E03BC08D819E81FC018081918127
:101B20009A8389838F819885FC01808191819C8330
:101B30008B8389819A81FC018081882331F189819D
:101B40009A819C012F5F3F4F3A832983FC0180815A
:101B5000082E000C990B0E94DC2D8C018B819C813E
:101B60009C012F5F3F4F3C832B83FC018081082E1B
:101B7000000C990B0E94DC2D21E00817190709F4CD
:101B800020E02223B1F280E001C081E028960FB668
:101B9000F894DEBF0FBECDBFDF91CF911F910F91A3
:101BA0000895CF93DF9300D01F92CDB7DEB79A830D
:101BB00089837C836B8389819A81FC0184819581EF
:101BC000892B71F48B819C81892B31F08B819C81D5
:101BD000FC018081882311F481E021C080E01FC0D6
:101BE0008B819C81892B61F489819A81FC018081A0
:101BF0009181FC01908181E0992389F080E00FC000
:101C000089819A81FC01808191812B813C81B9017C
:101C10000E94122E21E0892B09F020E0822F0F90E4
:101C20000F900F900F90DF91CF910895CF93DF9396
:101C300000D01F92CDB7DEB79A8389837C836B83F4
:101C400089819A81FC0180819181892B39F08B8176
:101C50009C81FC0180819181892BB1F58B819C81D4
:101C6000FC0180819181892BA1F08B819C81FC01F9
:101C700084819581892B69F08B819C81FC01808115
:101C80009181FC018081882F90E091958195910947
:101C900028C089819A81FC0180819181892B89F0FA
:101CA00089819A81FC0184819581892B51F08981F8
:101CB0009A81FC0180819181FC018081882F90E0D4
:101CC00010C080E090E00DC08B819C81FC012081E0
:101CD000318189819A81FC0180819181B9010E94C1
:101CE000122E0F900F900F900F90DF91CF910895CB
:101CF000CF93DF9300D01F92CDB7DEB79A8389834D
:101D00007C836B832B813C8189819A81B9010E94FC
:101D1000160E892F8095881F8827881F0F900F9097
:101D20000F900F90DF91CF910895CF93DF9300D064
:101D30001F92CDB7DEB79A8389837C836B832B8117
:101D40003C8189819A81B9010E94160E21E0181602
:101D500019060CF420E0822F0F900F900F900F9037
:101D6000DF91CF910895CF93DF9300D01F92CDB72D
:101D7000DEB79A8389837C836B832B813C81898145
:101D80009A81B9010E94160E21E0181619060CF06E
:101D900020E0822F0F900F900F900F90DF91CF9146
:101DA0000895CF93DF9300D01F92CDB7DEB79A830B
:101DB00089837C836B832B813C8189819A81B901E2
:101DC0000E94160E892F881F8827881F0F900F905A
:101DD0000F900F90DF91CF910895CF93DF9300D0B4
:101DE0001F92CDB7DEB79A8389837C836B83898109
:101DF0009A81FC01248135818B819C81FC01848145
:101E000095812817390759F42B813C8189819A8162
:101E1000B9010E94160E892B11F481E001C080E007
:101E20000F900F900F900F90DF91CF910895CF9367
:101E3000DF9300D01F92CDB7DEB79A8389837C836E
:101E40006B8389819A81FC0180819181892B09F4BE
:101E500044C08B819C810E947501DC01CB019C01F7
:101E6000232B29F4CD0181709927892B79F0898161
:101E70009A81FC01228133818B819C81FC018481C8
:101E800095812817390710F081E001C080E0882390
:101E9000E9F08B819C81FC012081318189819A81CB
:101EA000FC0180819181B9010E941B2E8B819C8154
:101EB000FC012481358189819A81FC013583248349
:101EC0008B819C81FC011582148234C089819A81A6
:101ED000FC01808191810E946D2C8B819C81FC0191
:101EE0002081318189819A81FC01318320838B811A
:101EF0009C81FC012281338189819A81FC01338399
:101F000022838B819C81FC012481358189819A8186
:101F1000FC01358324838B819C81FC01118210821A
:101F20008B819C81FC01138212828B819C81FC013C
:101F3000158214820F900F900F900F90DF91CF9128
:101F40000895CF93DF9300D01F92CDB7DEB79A8369
:101F500089837C836B838B819C8129813A812817BB
:101F6000390739F02B813C8189819A81B9010E941E
:101F7000170F89819A810F900F900F900F90DF912A
:101F8000CF910895CF93DF9300D01F92CDB7DEB7E6
:101F90009A8389837C836B8329813A818B819C819D
:101FA0002817390739F02B813C8189819A81B90141
:101FB0000E94170F89819A810F900F900F900F90B8
:101FC000DF91CF910895CF93DF9300D000D0CDB7AC
:101FD000DEB79C838B837E836D838D819E819C0184
:101FE0002F5F3F4F8B819C81FC0180819181B901E2
:101FF0000E94F62C9A83898389819A81892B81F0AA
:102000008B819C8129813A81FC01318320838B81E2
:102010009C812D813E81FC013383228381E001C0BC
:1020200080E026960FB6F894DEBF0FBECDBFDF91DD
:10203000CF910895CF93DF93CDB7DEB764970FB6F6
:10204000F894DEBF0FBECDBF988B8F877A8B698BDC
:102050005C8B4B8B8F859889FC0184819581892BC2
:1020600009F4A4C189899A89FC0184819581892B0D
:1020700009F49CC18B899C89FC0124813581898963
:102080009A89FC0184819581A901481B590BCA01D9
:102090009A8789878F859889FC01808191819A83AD
:1020A000898389859A85892B81F589899A89FC019B
:1020B0002081318189819A81B9010E94532E9C87A8
:1020C0008B8721E08B859C85892B09F420E02223D6
:1020D00009F46CC18B899C89FC01448155818B89F1
:1020E0009C89FC01208131818B859C85B9010E94EE
:1020F000EC2D8B899C89FC01848195812B853C8505
:10210000820F931F9A838983D0CF89859A859923DB
:102110000CF073C08F859889FC01808191819C832C
:102120008B8389899A89FC012081318189819A81F7
:10213000B9010E94532E9C878B8721E08B859C855B
:10214000892B09F420E0222309F44FC02B853C851C
:1021500089819A81A901481B590BCA019E878D87E5
:102160004D855E8529813A818B819C81B9010E94D0
:10217000EC2D2B813C818D859E85820F931F9C8346
:102180008B838B899C89FC01448155818B899C8937
:10219000FC01208131818B819C81B9010E94EC2D51
:1021A0008B899C89FC01848195812B813C81820FE4
:1021B000931F9C838B8389899A89FC0184819581F3
:1021C0002B853C85820F931F9A8389838F859889FD
:1021D000FC012481358189859A85280F391F8F85D7
:1021E0009889FC01358324839CCF29813A818B8196
:1021F0009C81B9010E941B2ED9C08F859889FC0152
:10220000848195819E838D8389899A89FC012081AF
:10221000318189819A81B9010E94532E9C878B87D5
:1022200021E08B859C85892B09F420E02223A1F0F5
:1022300089899A89FC01848195812B853C85820F4F
:10224000931F9A83898389859A852D813E81820F88
:10225000931F9E838D83D8CF8F859889FC018481BD
:1022600095812D813E812817390709F49FC08F85FC
:102270009889FC01828193812D813E818217930789
:1022800058F42D813E818F859889B9010E94E30F12
:10229000882311F481E001C080E0882309F086C022
:1022A0008F859889FC0184819581019798878F8318
:1022B0008F81988599238CF04F81588529893A8997
:1022C0008F859889B9010E94910998878F838F81A2
:1022D0009885992314F081E001C080E0882309F4F7
:1022E00065C08F859889FC012081318189899A890F
:1022F000FC01448155818F819885840F951F820F41
:10230000931F9A8389838F859889FC0184819581A5
:1023100029813A814F855889FA0140815181241BD6
:10232000350BAC01421B530B89859A8529813A8173
:10233000820F931F29813A81B9010E94F52D8F8563
:102340009889FC012481358189859A85280F391F58
:102350008F859889FC01358324838F859889FC01BA
:10236000208131818F859889FC0184819581820F3C
:10237000931FFC0110828B899C89FC01448155814B
:102380008B899C89FC01608171818F859889FC0112
:10239000208131818F819885820F931F0E94EC2DBF
:1023A0008F819885019798878F8382CF64960FB627
:1023B000F894DEBF0FBECDBFDF91CF910895CF93CC
:1023C000DF9300D01F92CDB7DEB79A8389837C83D9
:1023D0006B8389819A81FC0180819181892B61F0D5
:1023E00089819A81FC01828193812B813C818217B2
:1023F000930710F081E01FC02B813C8189819A8175
:10240000B9010E94E30F982F81E0992309F480E03D
:10241000882381F089819A81FC0184819581892BAF
:1024200039F489819A81FC0180819181FC011082BB
:1024300081E001C080E00F900F900F900F90DF912E
:10244000CF910895CF93DF9300D000D000D01F929A
:10245000CDB7DEB798878F837A87698789859A8514
:10246000892B11F480E044C089859A859E838D83F1
:102470008D819E810E94CE249A83898389819A814D
:10248000892B11F481E034C08F819885FC0124816F
:10249000358189819A81820F931F9C838B832B8145
:1024A0003C818F819885B9010E94DF11982F81E0CE
:1024B000992309F080E0882311F080E019C08F8112
:1024C0009885FC01208131818F819885FC01848170
:1024D0009581820F931F29853A85B9010E94C724EF
:1024E0008F8198852B813C81FC013583248381E099
:1024F0002A960FB6F894DEBF0FBECDBFDF91CF9105
:102500000895CF93DF9300D000D01F921F92CDB7D4
:10251000DEB79C838B837E836D8358874F838B814B
:102520009C81FC01848195812F813885820F931FC6
:102530009A8389838D819E81892B11F480E02FC03D
:102540008F819885892B11F481E029C029813A81F6
:102550008B819C81B9010E94DF11982F81E0992322
:1025600009F080E0882311F080E019C08B819C8104
:10257000FC01208131818B819C81FC0184819581CA
:10258000820F931F2D813E81B9010E941B2E8B81EA
:102590009C8129813A81FC013583248381E028963E
:1025A0000FB6F894DEBF0FBECDBFDF91CF91089577
:1025B0000F931F93CF93DF93CDB7DEB76C970FB612
:1025C000F894DEBF0FBECDBF988F8F8B498F5A8F87
:1025D0006B8F7C8F9E012D5F3F4F898D9A8DAB8DC8
:1025E000BC8D890122E044E0BC01CD010E947E2423
:1025F0009A83898389819A810E94222EAC01298144
:102600003A818F89988DB9010E9481126C960FB61C
:10261000F894DEBF0FBECDBFDF91CF911F910F9118
:1026200008950F931F93CF93DF93CDB7DEB76C97C9
:102630000FB6F894DEBF0FBECDBF988F8F8B498F3A
:102640005A8F6B8F7C8F9E012D5F3F4F898D9A8DA6
:10265000AB8DBC8D890122E044E0BC01CD010E941C
:102660007E249A83898389819A810E94222EAC01DB
:1026700029813A818F89988DB9010E9481126C96C7
:102680000FB6F894DEBF0FBECDBFDF91CF911F9183
:102690000F910895CF93DF93CDB7DEB763970FB651
:1026A000F894DEBF0FBECDBF9F878E87488B598BB6
:1026B0006A8B7B8B88899989AA89BB892AE030E05B
:1026C000AE014F5F5F4FBC01CD010E941C25CE01C2
:1026D00001960E94222E9C018E859F85A9019E0154
:1026E0002F5F3F4FB9010E94811263960FB6F89495
:1026F000DEBF0FBECDBFDF91CF910895CF93DF93A3
:10270000CDB7DEB764970FB6F894DEBF0FBECDBF6E
:10271000988B8F87498B5A8B6B8B7C8B89899A8995
:10272000AB89BC892AE030E0AE014F5F5F4FBC014E
:10273000CD010E94ED24CE0101960E94222E9C0123
:102740008F859889A9019E012F5F3F4FB9010E9493
:10275000811264960FB6F894DEBF0FBECDBFDF9135
:10276000CF910895CF93DF9300D000D000D01F9277
:102770001F92CDB7DEB7998788877B876A878A855E
:102780009B854AE050E09E012F5F3F4FB9010E94B8
:102790004925CE0101960E94222E9C0188859985AB
:1027A000A9019E012F5F3F4FB9010E9481122B9614
:1027B0000FB6F894DEBF0FBECDBFDF91CF91089565
:1027C000CF93DF93CDB7DEB72C970FB6F894DEBF6B
:1027D0000FBECDBF9A8789877C876B878B859C8549
:1027E0004AE050E09E012F5F3F4FB9010E94D7247D
:1027F000CE0101960E94222E9C0189859A85A9010D
:102800009E012F5F3F4FB9010E9481122C960FB697
:10281000F894DEBF0FBECDBFDF91CF910895CF9367
:10282000DF9300D000D01F92CDB7DEB79E838D839B
:102830006F838F81882F90E04AE050E09E012F5FE8
:102840003F4FB9010E94D724CE0101960E94222E4B
:102850009C018D819E81A9019E012F5F3F4FB9018F
:102860000E94811227960FB6F894DEBF0FBECDBF2F
:10287000DF91CF910895CF93DF9300D01F921F92E5
:10288000CDB7DEB79C838B836D838D8189831A825C
:102890008B819C8141E050E09E012F5F3F4FB90149
:1028A0000E9481120F900F900F900F900F90DF9168
:1028B000CF910895CF93DF9300D01F92CDB7DEB7AD
:1028C0009A8389837C836B838B819C81892B11F410
:1028D00080E00CC08B819C810E94222EAC012B8158
:1028E0003C8189819A81B9010E9481120F900F90D9
:1028F0000F900F90DF91CF910895CF93DF9300D089
:102900001F92CDB7DEB79A8389837C836B838B81DB
:102910009C81FC01448155818B819C81FC0120813B
:10292000318189819A81B9010E9481120F900F90A3
:102930000F900F90DF91CF910895CF93DF931F9267
:102940001F92CDB7DEB79A83898389819A81FC0172
:1029500080819181892B39F089819A81FC01808164
:1029600091810E946D2C89819A81FC0111821082D3
:1029700089819A81FC011582148289819A81FC01E6
:102980002481358189819A81FC01338322830F90D0
:102990000F90DF91CF910895CF93DF9300D000D0B7
:1029A000CDB7DEB79C838B837E836D838B819C81C7
:1029B0009A83898389819A812D813E81B9010E9400
:1029C0002212982F81E0992309F080E0882321F0DA
:1029D00089819A810E949D1489819A8126960FB6D9
:1029E000F894DEBF0FBECDBFDF91CF910895CF9396
:1029F000DF9300D000D01F921F92CDB7DEB79C832B
:102A00008B834D835E836F8378878B819C819A83D0
:102A1000898329813A818D819E81AF81B885AC01FE
:102A2000BD01C9010E94D812982F81E0992309F0B5
:102A300080E0882321F089819A810E949D148981F8
:102A40009A8128960FB6F894DEBF0FBECDBFDF91F6
:102A5000CF910895CF93DF9300D000D01F921F92A3
:102A6000CDB7DEB79C838B834D835E836F8378877E
:102A70008B819C819A83898329813A818D819E8172
:102A8000AF81B885AC01BD01C9010E941113982F17
:102A900081E0992309F080E0882321F089819A81DF
:102AA0000E949D1489819A8128960FB6F894DEBF02
:102AB0000FBECDBFDF91CF910895CF93DF9300D0AC
:102AC00000D01F921F92CDB7DEB79C838B834D83BE
:102AD0005E836F8378878B819C819A838983298128
:102AE0003A818D819E81AF81B885AC01BD01C9015C
:102AF0000E944A13982F81E0992309F080E08823EF
:102B000021F089819A810E949D1489819A81289659
:102B10000FB6F894DEBF0FBECDBFDF91CF91089501
:102B2000CF93DF9300D000D01F921F92CDB7DEB7B6
:102B30009C838B834D835E836F8378878B819C819D
:102B40009A83898329813A818D819E81AF81B8855D
:102B5000AC01BD01C9010E947E13982F81E0992329
:102B600009F080E0882321F089819A810E949D14D8
:102B700089819A8128960FB6F894DEBF0FBECDBF2B
:102B8000DF91CF910895CF93DF9300D000D0CDB7E0
:102B9000DEB79C838B837E836D838B819C819A833C
:102BA000898389819A812D813E81B9010E94B21366
:102BB000982F81E0992309F080E0882321F0898112
:102BC0009A810E949D1489819A8126960FB6F89465
:102BD000DEBF0FBECDBFDF91CF910895CF93DF93BE
:102BE00000D000D0CDB7DEB79C838B837E836D830E
:102BF0008B819C819A83898389819A812D813E81F1
:102C0000B9010E94E013982F81E0992309F080E038
:102C1000882321F089819A810E949D1489819A815B
:102C200026960FB6F894DEBF0FBECDBFDF91CF91D1
:102C30000895CF93DF9300D01F921F92CDB7DEB7D8
:102C40009C838B836D838B819C819A83898389810B
:102C50009A816D810E940F14982F81E0992309F0C9
:102C600080E0882321F089819A810E949D148981C6
:102C70009A810F900F900F900F900F90DF91CF914E
:102C80000895CF93DF9300D01F921F92CDB7DEB788
:102C90009C838B836D838B819C819A8389838981BB
:102CA0009A816D810E943B14982F81E0992309F04D
:102CB00080E0882321F089819A810E949D14898176
:102CC0009A810F900F900F900F900F90DF91CF91FE
:102CD00008950F931F93CF93DF9300D000D0CDB70B
:102CE000DEB79C838B837E836D838B819C819A83EB
:102CF00089838D819E81892B81F009811A818D8143
:102D00009E810E94222E9C018D819E81A901BC0181
:102D1000C8010E948112882311F481E001C080E083
:102D2000882321F089819A810E949D1489819A814A
:102D300026960FB6F894DEBF0FBECDBFDF91CF91C0
:102D40001F910F910895CF93DF9300D000D0CDB79E
:102D5000DEB79C838B837E836D838B819C819A837A
:102D6000898329813A818D819E81FC01448155812D
:102D70008D819E81FC0180819181BC01C9010E94ED
:102D80008112982F81E0992309F080E0882321F0B7
:102D900089819A810E949D1489819A8126960FB615
:102DA000F894DEBF0FBECDBFDF91CF910895CF93D2
:102DB000DF9300D000D0CDB7DEB79A8389837C83C0
:102DC0006B835E834D832D813E8189819A81B90118
:102DD0000E94DF11982F81E0992309F080E0882379
:102DE00039F089819A810E949D1489819A8113C04A
:102DF00089819A812D813E81FC01358324838981DB
:102E00009A81FC01808191812B813C81B9010E94D2
:102E1000C72489819A8126960FB6F894DEBF0FBE2B
:102E2000CDBFDF91CF910895CF93DF9300D000D035
:102E3000CDB7DEB79C838B837E836D838D819E812E
:102E4000892B89F08D819E819A83898389819A81DA
:102E50000E94CE24AC012D813E818B819C81B901E1
:102E60000E94D71604C08B819C810E949D148B8187
:102E70009C8126960FB6F894DEBF0FBECDBFDF91C2
:102E8000CF910895CF93DF9300D000D0CDB7DEB7B8
:102E90009A8389837C836B835E834D832D813E81FE
:102EA00089819A81B9010E94DF11982F81E09923CD
:102EB00009F080E0882339F089819A810E949D146D
:102EC00089819A8113C089819A812D813E81FC017B
:102ED0003583248389819A81FC01808191812B81B2
:102EE0003C81B9010E941B2E89819A8126960FB6DA
:102EF000F894DEBF0FBECDBFDF91CF910895CF9381
:102F0000DF9300D01F92CDB7DEB79A8389837C838D
:102F10006B838B819C81892B69F08B819C810E94C2
:102F2000222EAC012B813C8189819A81B9010E94BA
:102F3000421704C089819A810E949D1489819A81D7
:102F40000F900F900F900F90DF91CF910895CF9336
:102F5000DF9300D01F92CDB7DEB79A8389837C833D
:102F60006B8329813A818B819C812817390719F459
:102F700089819A811DC08B819C81FC018081918116
:102F8000892B81F08B819C81FC01448155818B814F
:102F90009C81FC012081318189819A81B9010E9443
:102FA000421704C089819A810E949D1489819A8167
:102FB0000F900F900F900F90DF91CF910895CF93C6
:102FC000DF931F921F92CDB7DEB79A8389838981E1
:102FD0009A81FC0180819181892B39F089819A81C4
:102FE000FC01808191810E946D2C0F900F90DF91E8
:102FF000CF9108950F931F93CF93DF93CDB7DEB793
:10300000A8970FB6F894DEBF0FBECDBF9BA38AA3CF
:103010004CA35DA36EA37FA328A78AA19BA10E94B6
:10302000590188A58E5F482F8CA19DA1AEA1BFA19B
:103030009E012F5F3F4F890128A5BC01CD010E9451
:103040007E249C018AA19BA1B9010E947F17A896AA
:103050000FB6F894DEBF0FBECDBFDF91CF911F91A9
:103060000F9108950F931F93CF93DF93CDB7DEB7E2
:10307000A8970FB6F894DEBF0FBECDBF9BA38AA35F
:103080004CA35DA36EA37FA328A78AA19BA10E9446
:10309000590188A58E5F482F8CA19DA1AEA1BFA12B
:1030A0009E012F5F3F4F890128A5BC01CD010E94E1
:1030B0007E249C018AA19BA1B9010E947F17A8963A
:1030C0000FB6F894DEBF0FBECDBFDF91CF911F9139
:1030D0000F910895CF93DF93CDB7DEB7A8970FB6C2
:1030E000F894DEBF0FBECDBF9BA38AA34CA35DA304
:1030F0006EA37FA328A78AA19BA10E94590188A53E
:10310000282F30E08CA19DA1AEA1BFA1AE014F5FE1
:103110005F4FBC01CD010E941C258AA19BA19E018D
:103120002F5F3F4FB9010E947F17A8960FB6F89402
:10313000DEBF0FBECDBFDF91CF910895CF93DF9358
:10314000CDB7DEB7A9970FB6F894DEBF0FBECDBFDF
:103150009CA38BA34DA35EA36FA378A729A78BA1E4
:103160009CA10E94590189A5282F30E08DA19EA124
:10317000AFA1B8A5AE014F5F5F4FBC01CD010E946A
:10318000ED248BA19CA19E012F5F3F4FB9010E94AE
:103190007F17A9960FB6F894DEBF0FBECDBFDF91A3
:1031A000CF910895CF93DF93CDB7DEB766970FB673
:1031B000F894DEBF0FBECDBF9B8B8A8B7D8B6C8B53
:1031C0004E8B8A899B890E9459018E89282F30E075
:1031D0008C899D89A9019E012F5F3F4FB9010E94F3
:1031E00049258A899B899E012F5F3F4FB9010E9423
:1031F0007F1766960FB6F894DEBF0FBECDBFDF9186
:10320000CF910895CF93DF93CDB7DEB767970FB611
:10321000F894DEBF0FBECDBF9C8B8B8B7E8B6D8BEE
:103220004F8B8B899C890E9459018F89282F30E010
:103230008D899E89A9019E012F5F3F4FB9010E9490
:10324000D7248B899C899E012F5F3F4FB9010E9433
:103250007F1767960FB6F894DEBF0FBECDBFDF9124
:10326000CF910895CF93DF93CDB7DEB72D970FB6EB
:10327000F894DEBF0FBECDBF9B878A876C874D87D2
:103280008A859B850E9459018D85282F30E08C8589
:10329000882F90E0A9019E012F5F3F4FB9010E9446
:1032A00049258A859B859E012F5F3F4FB9010E946A
:1032B0007F172D960FB6F894DEBF0FBECDBFDF91FE
:1032C000CF910895CF93DF9300D01F921F92CDB777
:1032D000DEB79C838B836D838B819C810E94590117
:1032E0008D8189831A828B819C819E012F5F3F4F44
:1032F000B9010E947F170F900F900F900F900F90C1
:10330000DF91CF910895CF93DF9300D01F92CDB777
:10331000DEB79A8389837C836B8389819A810E943B
:1033200059012B813C8189819A81B9010E94170F33
:103330000F900F900F900F90DF91CF910895CF9342
:10334000DF9300D01F92CDB7DEB79A8389837C8349
:103350006B8389819A810E9459012B813C818981EB
:103360009A81B9010E94170F0F900F900F900F9044
:10337000DF91CF910895CF93DF9300D01F92CDB707
:10338000DEB79A8389837C836B8389819A810E94CB
:1033900059012B813C8189819A81B9010E941417BE
:1033A0000F900F900F900F90DF91CF910895CF93D2
:1033B000DF9300D01F92CDB7DEB79A8389837C83D9
:1033C0006B8389819A810E9459012B813C8189817B
:1033D0009A81B9010E94A7170F900F900F900F903C
:1033E000DF91CF910895CF93DF9300D01F92CDB797
:1033F000DEB79A8389837C836B8389819A810E945B
:1034000059018B819C81892B61F08B819C810E9469
:10341000222EAC012B813C8189819A81B9010E94C5
:1034200042170F900F900F900F90DF91CF9108955A
:10343000CF93DF9300D000D000D01F921F92CDB762
:10344000DEB79D838C837F836E83598748873B8754
:103450002A87288539858A859B858217930760F49A
:103460008A859B859A838983888599859B878A87A6
:1034700089819A81998788878C819D816CEB72E024
:103480000E94F3198E819F81FC018481958128859A
:1034900039852817390708F042C08E819F81FC01C9
:1034A000848195812A853B858217930738F48E8124
:1034B0009F81FC01848195819B878A878E819F8172
:1034C000FC01208131818A859B85820F931FFC013D
:1034D00080818B838E819F81FC01208131818A854F
:1034E0009B85820F931FFC0110828E819F81FC01BE
:1034F0002081318188859985280F391F8C819D8194
:10350000B9010E947F178E819F81FC01208131814A
:103510008A859B85820F931F2B81FC0120838C81E0
:103520009D812B960FB6F894DEBF0FBECDBFDF9105
:10353000CF910895CF93DF93CDB7DEB7AB970FB69A
:10354000F894DEBF0FBECDBF9EA38DA34FA358A797
:1035500069A77AA72BA7CE01049680969A838983C0
:1035600089819A81FC0110828BA5823010F48AE057
:103570008BA78BA5282F30E040E050E08FA198A5C5
:10358000A9A5BAA5BC01CD010E94A72BDC01CB01E6
:103590008B838BA5282F30E040E050E08FA198A5C9
:1035A000A9A5BAA5BC01CD010E94A72BDA01C901CA
:1035B0008FA398A7A9A7BAA78B818A3024F48B81FF
:1035C000805D282F03C08B81895C282F89819A8197
:1035D00001979A83898389819A81FC0120838FA135
:1035E00098A5A9A5BAA5892B8A2B8B2B11F6298121
:1035F0003A818DA19EA1B9010E949904AB960FB6A4
:10360000F894DEBF0FBECDBFDF91CF910895CF9369
:10361000DF931F921F92CDB7DEB79A83898389818A
:103620009A816AEB72E00E9499040F900F90DF91EB
:10363000CF910895CF93DF9300D01F92CDB7DEB71F
:103640009A8389837C836B838B819C81FC0180813D
:103650009181FC012081318149815A818B819C813A
:10366000BA01F90119950F900F900F900F90DF910B
:10367000CF910895CF93DF9300D000D0CDB7DEB7C0
:103680009C838B837E836D832D813E818B819C8186
:10369000B9010E941A1B9A8389838B819C810E94A5
:1036A000071B9C0189819A81820F931F9A838983CA
:1036B00089819A8126960FB6F894DEBF0FBECDBFE2
:1036C000DF91CF910895CF93DF9300D000D01F9268
:1036D0001F92CDB7DEB79A8389834B835C836D835A
:1036E0007E8338872F838F819885892B79F4898110
:1036F0009A81FC0180819181FC01208131814B8183
:1037000089819A81642FF90119950CC02F818B81D1
:103710009C81AD81BE81E981FA81AC01BD01CF01FF
:103720000E949A1A28960FB6F894DEBF0FBECDBF3E
:10373000DF91CF910895CF93DF9300D000D000D0D8
:103740001F92CDB7DEB79C838B834D835E836F83DF
:1037500078873A87298729853A858D819E81AF812F
:10376000B885EB81FC81AC01BD01CF010E94631BD8
:103770009A8389838B819C810E94071B9C0189818C
:103780009A81820F931F9A83898389819A812A96CD
:103790000FB6F894DEBF0FBECDBFDF91CF91089575
:1037A000CF93DF9300D000D0CDB7DEB79A83898363
:1037B0007C836B835E834D838B819C81CC01A0E0F5
:1037C000B0E02D813E81E981FA81AC01BD01CF01DC
:1037D0000E94631B26960FB6F894DEBF0FBECDBFC6
:1037E000DF91CF910895CF93DF9300D000D01F9247
:1037F0001F92CDB7DEB79C838B837E836D83588702
:103800004F834F8158852D813E818B819C81B901E9
:103810000E94D01B9A8389838B819C810E94071B05
:103820009C0189819A81820F931F9A838983898160
:103830009A8128960FB6F894DEBF0FBECDBFDF91F8
:10384000CF910895CF93DF9300D01F921F92CDB7F1
:10385000DEB79A8389836B835D834C838B81882F4A
:1038600090E0A0E0B0E02C813D81E981FA81AC01DB
:10387000BD01CF010E94631B0F900F900F900F901E
:103880000F90DF91CF910895CF93DF9300D000D0B8
:103890001F92CDB7DEB79C838B836D835F834E838E
:1038A0002E813F818B819C81A9016D810E94221C08
:1038B0009A8389838B819C810E94071B9C0189814B
:1038C0009A81820F931F9A83898389819A8127968F
:1038D0000FB6F894DEBF0FBECDBFDF91CF91089534
:1038E000CF93DF9300D0CDB7DEB79A8389836B8304
:1038F00089819A81FC0180819181FC012081318143
:103900004B8189819A81642FF90119950F900F904D
:103910000F90DF91CF910895CF93DF9300D01F9246
:103920001F92CDB7DEB79C838B836D838B819C8187
:103930006D810E94701C9A8389838B819C810E9477
:10394000071B9C0189819A81820F931F9A83898327
:1039500089819A810F900F900F900F900F90DF91B7
:10396000CF910895CF93DF9300D000D000D01F9265
:10397000CDB7DEB79C838B834D835E836F8378875F
:103980003A87298789859A85892B79F48B819C814F
:10399000FC0180819181FC01208131814D818B81ED
:1039A0009C81642FF90119954BC089859A850A97E6
:1039B000D9F58D819E81AF81B885BB2344F58B817C
:1039C0009C816DE20E94701C9A8389838D819E8107
:1039D000AF81B885B095A095909581959F4FAF4FD9
:1039E000BF4F8D839E83AF83B8878D819E81AF81CA
:1039F000B885EB81FC812AE0AC01BD01CF010E94BA
:103A00009A1A9C0189819A81820F931F19C08D8116
:103A10009E81AF81B885EB81FC812AE0AC01BD01BC
:103A2000CF010E949A1A0CC029858D819E81AF8199
:103A3000B885EB81FC81AC01BD01CF010E949A1ACF
:103A40002A960FB6F894DEBF0FBECDBFDF91CF919F
:103A50000895CF93DF9300D000D000D01F92CDB750
:103A6000DEB79C838B834D835E836F8378873A8731
:103A7000298729853A858D819E81AF81B885EB8123
:103A8000FC81AC01BD01CF010E94B21C9A838983E5
:103A90008B819C810E94071B9C0189819A81820FE6
:103AA000931F9A83898389819A812A960FB6F89405
:103AB000DEBF0FBECDBFDF91CF910895CF93DF93CF
:103AC00000D000D0CDB7DEB79A8389837C836B8327
:103AD0005E834D838B819C81092E000CAA0BBB0B4E
:103AE0002D813E81E981FA81AC01BD01CF010E94A7
:103AF000B21C26960FB6F894DEBF0FBECDBFDF9185
:103B0000CF910895CF93DF9300D000D01F921F92E2
:103B1000CDB7DEB79C838B837E836D8358874F83BD
:103B20004F8158852D813E818B819C81B9010E94F6
:103B30005E1D9A8389838B819C810E94071B9C0157
:103B400089819A81820F931F9A83898389819A81BF
:103B500028960FB6F894DEBF0FBECDBFDF91CF9190
:103B60000895CF93DF9300D01F92CDB7DEB79A832D
:103B700089837C836B832B813C8189819A81B90104
:103B80000E9499040F900F900F900F90DF91CF91AA
:103B90000895CF92DF92EF92FF921F93CF93DF931E
:103BA000CDB7DEB768970FB6F894DEBF0FBECDBFB6
:103BB0009B8B8A8B4C8B5D8B6E8B7F8B288F1A82B5
:103BC00019822C893D894E895F896C897D898E890E
:103BD0009F890E94A22B882311F081E001C080E020
:103BE000882339F08A899B896DEB72E00E94B11DB0
:103BF00039C18C899D89AE89BF896C017D01E894AA
:103C0000F7F811E02FEF3FEF4FE75FE7C701B6018D
:103C10000E94A22B882359F42FEF3FEF4FE75FE775
:103C2000C701B6010E944E2918160CF410E081E07D
:103C30008127882F90E08170882339F08A899B89B9
:103C400061EC72E00E94B11D0DC12FEF3FEF4FE715
:103C50005FE46C897D898E899F890E949D2B18164F
:103C60003CF48A899B8965EC72E00E94B11DFAC020
:103C70002FEF3FEF4FE75FEC6C897D898E899F893D
:103C80000E944E2988233CF48A899B8965EC72E066
:103C90000E94B11DE7C020E030E0A9016C897D8958
:103CA0008E899F890E944E298823ACF48A899B893A
:103CB0006DE20E94701C9C0189819A81820F931F82
:103CC0009A8389838C899D89AE89BF89B0588C8BF2
:103CD0009D8BAE8BBF8B80E090E0A0E0BFE38B8339
:103CE0009C83AD83BE831F829F81888D9817A0F42B
:103CF00020E030E040E251E46B817C818D819E8147
:103D00000E94FC2ADC01CB018B839C83AD83BE83A4
:103D10008F818F5F8F83E8CF2B813C814D815E81C6
:103D20006C897D898E899F890E94902ADC01CB0154
:103D30008C8B9D8BAE8BBF8B6C897D898E899F8987
:103D40000E946E2BDC01CB018C879D87AE87BF87DD
:103D50006C857D858E859F850E945329DC01CB0172
:103D60009C01AD016C897D898E899F890E948F2A73
:103D7000DC01CB0188879987AA87BB878C859D85C5
:103D8000AE85BF85EA89FB892AE030E0AC01BD0140
:103D9000CF010E94631B9C0189819A81820F931F2E
:103DA0009A838983888D882361F08A899B896EE252
:103DB0000E94701C9C0189819A81820F931F9A83B3
:103DC0008983888D9FEF980F988F91E0882309F45D
:103DD00090E0992309F444C020E030E040E251E44F
:103DE000688579858A859B850E94B429DC01CB0191
:103DF00088879987AA87BB87688579858A859B8507
:103E00000E946E2BDC01CB01998B888B2889398924
:103E10008A899B894AE050E0B9010E94D01B9C012D
:103E200089819A81820F931F9A83898388899989CE
:103E3000CC01A0E0B0E0BC01CD010E945329DC011F
:103E4000CB019C01AD01688579858A859B850E949F
:103E50008F2ADC01CB0188879987AA87BB87B1CFDE
:103E600089819A8168960FB6F894DEBF0FBECDBFE8
:103E7000DF91CF911F91FF90EF90DF90CF90089549
:103E8000CF93DF9300D000D01F921F92CDB7DEB743
:103E90009A8389834B835C836D837E8338872F83EA
:103EA0002F818B819C81AD81BE81E981FA81AC013A
:103EB000BD01CF010E94C91D28960FB6F894DEBF40
:103EC0000FBECDBFDF91CF910895CF93DF9300D088
:103ED00000D000D01F92CDB7DEB79C838B834D837B
:103EE0005E836F8378873A87298729853A858D8114
:103EF0009E81AF81B885EB81FC81AC01BD01CF0112
:103F00000E94401F9A8389838B819C810E94071B9A
:103F10009C0189819A81820F931F9A838983898169
:103F20009A812A960FB6F894DEBF0FBECDBFDF91FF
:103F3000CF910895CF93DF9300D000D0CDB7DEB7F7
:103F40009C838B837E836D832D813E818B819C81BD
:103F5000B9010E94B11D9A8389838B819C810E9443
:103F6000071B9C0189819A81820F931F9A83898301
:103F700089819A8126960FB6F894DEBF0FBECDBF19
:103F8000DF91CF9108950F931F93CF93DF9300D0CC
:103F90001F92CDB7DEB79A8389837C836B838B8135
:103FA0009C810E9425028C018B819C810E941302BE
:103FB0009C0189819A81A801B9010E94ED010F90AD
:103FC0000F900F900F90DF91CF911F910F91089557
:103FD000CF93DF9300D000D0CDB7DEB79C838B8327
:103FE0007E836D832D813E818B819C81B9010E94EE
:103FF000C31F9A8389838B819C810E94071B9C012C
:1040000089819A81820F931F9A83898389819A81FA
:1040100026960FB6F894DEBF0FBECDBFDF91CF91CD
:104020000895CF93DF93CDB7DEB72C970FB6F894F2
:10403000DEBF0FBECDBF9A8789877C876B878B8554
:104040009C859A8389831C821B8289819A819C0129
:104050002F5F3F4F3A8329839E838D838D819E817D
:10406000FC0184918F838F81888788858823C9F09C
:1040700089859A85FC0180819181FC0120813181B3
:1040800089859A856885F901199521E0892B09F4BC
:1040900020E0222331F08B819C8101969C838B83CD
:1040A000D4CF8B819C812C960FB6F894DEBF0FBEC7
:1040B000CDBFDF91CF910895CF93DF9300D000D093
:1040C000CDB7DEB79C838B837E836D832D813E814C
:1040D0008B819C81B9010E9411209A8389838B81F5
:1040E0009C810E94071B9C0189819A81820F931FEA
:1040F0009A83898389819A8126960FB6F894DEBFC8
:104100000FBECDBFDF91CF910895CF93DF93CDB791
:10411000DEB76FEF7FEF81E090E00E949220DF91A9
:10412000CF910895CF92DF92EF92FF920F931F935A
:10413000CF93DF9300D01F92CDB7DEB79A838983E8
:104140007C836B8389819A810197D1F48B819C81D7
:104150000196B1F40F2EF6ECCF2ED12CF02D0F2EB0
:10416000F2ECEF2EF12CF02D01EC10E020EC30E021
:1041700044EC50E065EC70E08AEC92E00E94E602CC
:104180000F900F900F900F90DF91CF911F910F9193
:10419000FF90EF90DF90CF9008951F920F920FB68F
:1041A0000F9211240BB60F922F933F934F935F936F
:1041B0006F937F938F939F93AF93BF93EF93FF93EF
:1041C000CF93DF93CDB7DEB78AEC92E00E9437023F
:1041D000DF91CF91FF91EF91BF91AF919F918F911F
:1041E0007F916F915F914F913F912F910F900BBEF7
:1041F0000F900FBE0F901F901895CF93DF931F92D3
:104200001F92CDB7DEB79A83898389819A81FC0199
:10421000808191810696FC012081318189819A817A
:10422000F901199589819A81FC0182899389FC01A0
:10423000208189819A81FC01828993892F7EFC01EA
:10424000208389819A81FC0182899389FC012081E4
:1042500089819A81FC0182899389277FFC012083CF
:1042600089819A81FC0182899389FC01208189815D
:104270009A81FC01828993892F77FC0120838981AF
:104280009A81FC0182899389FC01208189819A812C
:10429000FC01828993892F7DFC01208389819A8189
:1042A000FC01228D89819A81FC01218F0F900F9052
:1042B000DF91CF910895CF93DF9300D000D000D04D
:1042C000CDB7DEB79C838B834D835E836F83788706
:1042D000298780E099E0ADE3B0E02D813E814F81F8
:1042E0005885BC01CD010E94A72BDA01C9010197B5
:1042F000A109B109B695A795979587959A83898362
:104300008B819C81FC018089918922E0FC012083C2
:104310008D819E81AF81B8858115914EA105B10532
:1043200029F089819A8181159041F0F08B819C81DF
:10433000FC0180899189FC01108280E894E8AEE15B
:10434000B0E02D813E814F815885BC01CD010E9496
:10435000A72BDA01C9010197A109B109B695A79563
:10436000979587959A83898389819A81292F332705
:104370008B819C81FC0184859585FC0120838B8148
:104380009C81FC01868597852981FC0120838B8196
:104390009C81FC01108E8B819C81FC018489958914
:1043A0002985FC0120838B819C81FC018289938972
:1043B000FC0120818B819C81FC0182899389206191
:1043C000FC0120838B819C81FC0182899389FC0103
:1043D00020818B819C81FC01828993892860FC016A
:1043E00020838B819C81FC0182899389FC0120813F
:1043F0008B819C81FC01828993892068FC01208348
:104400008B819C81FC0182899389FC0120818B81B5
:104410009C81FC01828993892F7DFC012083299650
:104420000FB6F894DEBF0FBECDBFDF91CF910895D8
:10443000CF93DF9300D000D0CDB7DEB79A838983C6
:104440004B835C836D837E838B819C81AD81BE8138
:10445000E981FA8126E0AC01BD01CF010E945B2118
:1044600026960FB6F894DEBF0FBECDBFDF91CF9179
:104470000895CF93DF9300D0CDB7DEB79B838A83B7
:104480008A819B81FC01848D882F90E02A813B8169
:10449000820F931F835A9F4FFC01808189838A81F9
:1044A0009B81FC01848D882F90E001968F7390781A
:1044B000992324F40197806C9F6F0196282F8A819D
:1044C0009B81FC01248F8A819B81FC0186899789CD
:1044D0002981FC0120838A819B81FC01808991894B
:1044E000FC0180818370282F20648A819B81FC01DC
:1044F00080899189FC0120838A819B81FC01238D25
:104500008A819B81FC01948D81E0291709F080E06C
:10451000882379F08A819B81FC0182899389FC013F
:1045200020818A819B81FC01828993892F7DFC01F6
:1045300020830F900F900F90DF91CF9108951F92DD
:104540000F920FB60F9211240BB60F922F933F9339
:104550004F935F936F937F938F939F93AF93BF938B
:10456000EF93FF93CF93DF93CDB7DEB78AEC92E062
:104570000E943922DF91CF91FF91EF91BF91AF91CE
:104580009F918F917F916F915F914F913F912F916B
:104590000F900BBE0F900FBE0F901F901895CF93EA
:1045A000DF9300D000D01F921F92CDB7DEB79F835C
:1045B0008E8368878E819F8121E0FC01208F8E8110
:1045C0009F81FC01238D8E819F81FC01848D2817A2
:1045D00079F48E819F81FC0180899189FC01808121
:1045E000882F90E080729927892B11F081E001C01B
:1045F00080E0882369F18FE590E0FC0180818D8364
:104600000E948A04898389818823D9F08E819F81C1
:10461000FC01868997892885FC0120838E819F81F2
:10462000FC0180899189FC0180818370282F20649E
:104630008E819F81FC0180899189FC0120831982F0
:10464000E2CFCE0105960E94750481E090E071C032
:104650008E819F81FC01838D882F90E001968F735E
:104660009078992324F40197806C9F6F01968B8337
:104670008E819F81FC01948D81E02B81291709F0A7
:1046800080E0882301F18FE590E0FC018081809536
:10469000881F8827881F882359F38E819F81FC01FA
:1046A00080899189FC018081882F90E08072992710
:1046B00021E0892B09F420E02223D1F28E819F8111
:1046C0000E943922D5CF8E819F81FC01838D882F56
:1046D00090E02E813F81820F931F835A9F4F288540
:1046E000FC0120838FE590E0FC0180818C830E9497
:1046F0008A048A838A818823B1F08E819F812B81ED
:10470000FC01238F8E819F81FC0182899389FC01AA
:1047100020818E819F81FC01828993892062FC0126
:1047200020831A82E7CFCE0104960E94750481E0AF
:1047300090E028960FB6F894DEBF0FBECDBFDF9194
:10474000CF910895CF93DF931F921F92CDB7DEB71D
:104750009A83898389819A81FC01908D81E08927E0
:10476000882309F04EC089819A81FC01828993894E
:10477000FC018081882F90E080729927892B69F451
:1047800089819A81FC0180899189FC018081882F2F
:1047900090E080749927892B11F481E001C080E0BA
:1047A000882379F18FE590E0FC01808188237CF0FB
:1047B00089819A81FC0182899389FC018081882FFB
:1047C00090E080729927892B11F081E001C080E090
:1047D000882349F289819A81FC0180899189FC01B1
:1047E0008081882F90E08072992721E0892B09F43D
:1047F00020E0222309F4B7CF89819A810E943922CF
:10480000B2CF0F900F90DF91CF910895CF93DF93A8
:10481000CDB7DEB7DF91CF910895CF93DF931F928D
:104820001F92CDB7DEB79A83898389819A810F90D1
:104830000F90DF91CF910895CF93DF93CDB7DEB77F
:1048400066970FB6F894DEBF0FBECDBF8D859E85EF
:1048500021E04E9709F020E0222321F081E090E052
:104860009A83898389819A810E940D2466960FB666
:10487000F894DEBF0FBECDBFDF91CF910895CF93E7
:10488000DF9300D000D01F921F92CDB7DEB740E873
:1048900055E260E070E08AEC92E00E9418220E94EB
:1048A0001C249A83898329813A81CE0103964AE0A8
:1048B000B9010E940219CE010396BC018AEC92E074
:1048C0000E94E81FCE0103960E94DF1728960FB6BC
:1048D000F894DEBF0FBECDBFDF91CF910895CF9387
:1048E000DF93CDB7DEB70E94D1040E943A070E9441
:1048F0003F240E9406240E942604FBCFEF920F93D0
:104900001F93CF93DF93E80134E047FD34E1042E99
:10491000000C550B57FF03C0519541955109E32EEB
:10492000022F242FAE010E946E25CE01DF91CF9180
:104930001F910F91EF900895662777270C94E72633
:104940001F93FC0199278827BC01E894119110322C
:10495000E9F3193010F01E30C8F31B3251F01D324C
:1049600049F4689406C00E940725610F711D811DDE
:10497000911D119110531A30B0F33EF4909580952B
:10498000709561957F4F8F4F9F4F1F910895FB0149
:10499000DC0105900D920020E1F70895FC010590DF
:1049A0000020E9F7809590958E0F9F1F089545325E
:1049B000510520F4423010F00C94E224FB011082E7
:1049C000CB010895BB274A3031F4992322F4BDE28C
:1049D000909581959F4F0C9455252532310520F4F3
:1049E000223010F00C94F824FA011082CA010895C4
:1049F000BB272A3051F4992342F4BDE2909580956B
:104A0000709561957F4F8F4F9F4F0C942825592F9C
:104A1000482F372F262F660F771F881F991F660F85
:104A2000771F881F991F620F731F841F951F660FC2
:104A3000771F881F991F08952532310520F42230F1
:104A400010F00C942725FA011082CA010895BB27A3
:104A5000FA01A62F6217710581059105330B30FB12
:104A600066F0AA27660F771F881F991FAA1FA21733
:104A700010F0A21B63953850A9F7A05DAA3308F087
:104A8000A95DA19336F7B111B1931082CA010C94BC
:104A90003E294532510520F4423010F00C94542543
:104AA000FB011082CB010895BB27FB015527AA27E4
:104AB000880F991FAA1FA41710F0A41B83955051AB
:104AC000B9F7A05DAA3308F0A95DA193009779F723
:104AD000B111B1931192CB010C943E298F929F9208
:104AE000AF92BF92CF92DF92EF92FF920F931F93FC
:104AF000CF93DF9300D000D000D0CDB7DEB76A01EE
:104B0000F22EB02E102FFBE3AF2EA01608F41BE3FD
:104B10001F5F012F27E0AE014F5F5F4F0E944528C6
:104B2000BC018981982F9970913009F44EC09BE2A5
:104B3000E1FC04C09E2D9170E0FC49C05E2D5071D7
:104B4000E82FE87083FF55C084E0911101C083E035
:104B5000EF2DE81B8F1508F0E0E0D6018E2F20E244
:104B60005523C9F1992329F0D6019C93C6010196DA
:104B70006C0196012D5F3F4FE2FE33C08EE4D601FB
:104B80008C9391E411969C93119712968C93D90172
:104B90008E2F90E281112AC0E20FF32FF11D1082B7
:104BA0008EEF9FEF29960FB6F894DEBF0FBECDBFF4
:104BB000DF91CF911F910F91FF90EF90DF90CF90F9
:104BC000BF90AF909F908F9008959DE2B7CF90E2F5
:104BD000B5CF2D9381508111FCCFCE0ED11CE0E0DA
:104BE000C1CF8EE6D6018C9391E6CCCF9D938150B8
:104BF000D1CF482F447082FF3DC084E0911101C0A5
:104C000083E08F1510F4EF2DE81BD6018E2F20E2E4
:104C1000552309F1992329F0D6019C93C6010196E9
:104C20006C0196012D5F3F4FE2FE1BC089E4D60167
:104C30008C938EE411968C93119786E412968C9344
:104C4000D9018E2F90E2882309F4A6CF9D9381503D
:104C5000FACF2D9381508111FCCFCE0ED11CE0E014
:104C6000D9CF89E6D6018C938EE611968C93119755
:104C700086E6E4CF9B0177FF02C030E020E0A1E0B0
:104C8000B0E0911102C0B0E0A0E0F9013196AE0FA2
:104C9000BF1F8B2C912CBB2009F461C05401EFEF96
:104CA000AE1ABE0AAA0DBB1DFA161B0619F014F0A7
:104CB0004F2D4A1B511188C0E3FC59C07601A42F27
:104CC000B0E2A1114FC0C40ED11C992309F45BC0FE
:104CD00040E0D6011196F60190836D01552309F449
:104CE00048C0012F060F9A81582F507184FF03C0CE
:104CF000913309F4015010160CF047C0093008F048
:104D000008E0EEE2FE2E5B01A01AB1088501919445
:104D1000819491082F3F320729F4D601FC92F601C5
:104D200031966F016217730794F1021713077CF530
:104D3000DB01A21BB30BAA24A394B12CAC0EBD1EA5
:104D4000AA0DBB1D11968C9121503109D6011196E7
:104D500028153905F4F0F60180836D01DBCFB12C05
:104D6000A12CA0CFF701B1937F01A150AACF91113F
:104D7000B0CFD601942F50E302C05D9391509111B2
:104D8000FCCFC40ED11C40E0ACCF01E0BACF80E331
:104D9000DBCF6217730731F4963388F4953311F43F
:104DA000552369F0F6018083FD01842F90E2811183
:104DB00008C0A40FB11D1C9290E080E0F3CE81E307
:104DC000F1CF91938150F3CF911183CF8ACF8F92FE
:104DD0009F92AF92BF92CF92DF92EF92FF920F938A
:104DE0001F93CF93DF935C017B016115710519F06F
:104DF000DB018D939C9385010F5F1F4FF501D081DF
:104E00008D2F90E00E941D296C01892BB9F5DD32B0
:104E1000B9F50F5F1F4FD5011196DC91C1E0580124
:104E2000F1E0AF1AB10843E050E06CE171E0C50178
:104E30000E942629892B69F5680182E0C80ED11CE1
:104E400045E050E067E171E0C6010E942629892B08
:104E500021F4680197E0C90ED11CE114F10419F0A6
:104E6000D701CD92DC9260E070E080E89FEFC11145
:104E7000FFC060E070E080E89FE7FAC05801BBCF58
:104E8000DB3229F485010E5F1F4FF501D181C0E0AF
:104E9000C6CF43E050E064E171E0C5010E942629DD
:104EA000892BE9F0F80110E000E020E030E0A901F2
:104EB0005F01B0ED8B2E8D0E89E08815C8F19C2E18
:104EC000689491F88C2F8870C2FF16C0811102C0BF
:104ED0000F5F1F4F3196D501DC91C92DE9CFE11449
:104EE000F10429F00E5F1F4FF7011183008360E08A
:104EF00070E080EC9FE7BCC0882311F001501109DD
:104F0000A5E0B0E00E94752A9B01AC01220F331F7F
:104F1000441F551F280D311D411D511D283999E988
:104F20003907490799E15907A8F2C6609C2ED2CFEC
:104F3000AEEF8A1206C0C3FD3CC09C2E689493F865
:104F4000C9CFDF7DD534A9F580818D3239F4C061B8
:104F5000DF011296818162E070E006C0DF018B32D2
:104F6000C1F3119661E070E080535D01A61AB70AA3
:104F70008A30F8F4E0E8CE16ECE0DE065CF4B60128
:104F8000660F771F660F771FC60ED71ECC0CDD1C71
:104F9000C80ED11C5D01FFEFAF1ABF0A8C91805380
:104FA0008A30A8F1C4FF03C0D194C194D1080C0D7C
:104FB0001D1DC1FF09C0E114F10431F081E0A81A00
:104FC000B108D701AD92BC92CA01B9010E94532920
:104FD000C370C33009F490584B015C0120E030E00D
:104FE000A9010E944E29882309F440C0CBE4D1E0F6
:104FF00017FF05C0119501951109C3E3D1E06E01BA
:10500000B8E1CB1AD10880E2E82EF12C0FC0D5010F
:10501000B1CFFE0125913591459154910E191F098B
:10502000C501B4010E94B4294B015C01D501C40142
:105030000E151F0574F72497F594E794CC16DD063A
:10504000A9F78A2F880F8B2F881F8F3F49F020E008
:1050500030E0A901C501B4010E944E29811106C0AA
:1050600082E290E09093720380937103C501B401D2
:10507000DF91CF911F910F91FF90EF90DF90CF9034
:10508000BF90AF909F908F900895283008F027E050
:105090003327DA01990F311D87FD91600096610574
:1050A000710539F432602E5F3D9330E32A95E1F7C4
:1050B00008959F3F30F080387105610509F03C5F2D
:1050C0003C5F3D93913008F08068911DDF93CF9352
:1050D0001F930F93FF92EF92192F987F9695E92FC8
:1050E00096959695E90FFF27E755FE4F99273327A9
:1050F000EE24FF24A701E70105900894079428F403
:10510000360FE71EF81E491F511D660F771F881FB7
:10511000991F0694A1F70590079428F4E70EF81E4E
:10512000491F561FC11D770F881F991F661F0694C0
:10513000A1F70590079428F4F80E491F561FC71FC2
:10514000D11D880F991F661F771F0694A1F7059040
:10515000079420F4490F561FC71FD81F990F661FC9
:10516000771F881F0694A9F784911095177041F056
:10517000D695C79557954795F794E7941A95C1F733
:10518000EFE4F1E068941590159135916591959152
:1051900005907FE27395E118F10A430B560BC90B9A
:1051A000D009C0F7E10CF11E431F561FC91FD01DC7
:1051B0007EF4703311F48A95E6CFE894015030F014
:1051C000080F0AF40027021708F4202F2395022F56
:1051D0007A3328F079E37D932A95E9F710C07D931F
:1051E0002A9589F60694979567953795179517949C
:1051F000E118F10A430B560BC90BD00998F023951F
:105200007E9173957A3308F070E37C932013B8F79E
:105210007E9170617D9330F0839571E37D9370E3AF
:105220002A95E1F71124EF90FF900F911F91CF91F4
:10523000DF91992787FD9095089591110C94212A6B
:10524000803219F089508550C8F70895FB01DC01C0
:105250004150504088F08D9181341CF08B350CF416
:10526000805E659161341CF06B350CF4605E861BCA
:10527000611171F3990B0895881BFCCFDC01FC01CF
:10528000672F71917723E1F7329704C07C916D937A
:1052900070836291AE17BF07C8F308950E949029EA
:1052A00008F481E00895E89409C097FB3EF49095D6
:1052B0008095709561957F4F8F4F9F4F9923A9F0EF
:1052C000F92F96E9BB279395F6958795779567957E
:1052D000B795F111F8CFFAF4BB0F11F460FF1BC0C2
:1052E0006F5F7F4F8F4F9F4F16C0882311F096E955
:1052F00011C0772321F09EE8872F762F05C0662303
:1053000071F096E8862F70E060E02AF09A95660FBB
:10531000771F881FDAF7880F9695879597F9089574
:10532000990F0008550FAA0BE0E8FEEF16161706B6
:10533000E807F907C0F012161306E407F50798F01E
:10534000621B730B840B950B39F40A2661F0232B37
:10535000242B252B21F408950A2609F4A140A695B3
:105360008FEF811D811D08950E94C7290C943B2A4F
:105370000E942D2A38F00E94342A20F0952311F043
:105380000C94242A0C942A2A11240C946F2A0E942B
:105390004C2A70F3959FC1F3950F50E0551F629F03
:1053A000F001729FBB27F00DB11D639FAA27F00D7E
:1053B000B11DAA1F649F6627B00DA11D661F829FA5
:1053C0002227B00DA11D621F739FB00DA11D621F8A
:1053D000839FA00D611D221F749F3327A00D611DA7
:1053E000231F849F600D211D822F762F6A2F112489
:1053F0009F5750409AF0F1F088234AF0EE0FFF1FBC
:10540000BB1F661F771F881F91505040A9F79E3F12
:10541000510580F00C94242A0C946F2A5F3FE4F32A
:10542000983ED4F3869577956795B795F795E79568
:105430009F5FC1F7FE2B880F911D9695879597F971
:10544000089599278827089597F99F6780E870E065
:1054500060E008959FEF80EC089500240A941616EA
:10546000170618060906089500240A941216130652
:10547000140605060895092E0394000C11F48823E0
:1054800052F0BB0F40F4BF2B11F460FF04C06F5FFC
:105490007F4F8F4F9F4F089557FD9058440F551FD2
:1054A00059F05F3F71F04795880F97FB991F61F0A6
:1054B0009F3F79F087950895121613061406551F1D
:1054C000F2CF4695F1DF08C0161617061806991F89
:1054D000F1CF86957105610508940895E894BB277E
:1054E00066277727CB0197F908950E94802AA59F08
:1054F000900DB49F900DA49F800D911D11240895CF
:10550000A29FB001B39FC001A39F700D811D112404
:10551000911DB29F700D811D1124911D0895505849
:10552000BB27AA270E94A72A0C943B2A0E942D2A57
:1055300038F00E94342A20F039F49F3F19F426F401
:105540000C942A2A0EF4E095E7FB0C94242AE92F08
:105550000E944C2A58F3BA1762077307840795070D
:1055600020F079F4A6F50C946E2A0EF4E0950B2E3B
:10557000BA2FA02D0B01B90190010C01CA01A001A5
:105580001124FF27591B99F0593F50F4503E68F100
:105590001A16F040A22F232F342F4427585FF3CF41
:1055A000469537952795A795F0405395C9F77EF412
:1055B0001F16BA0B620B730B840BBAF09150A1F05B
:1055C000FF0FBB1F661F771F881FC2F70EC0BA0FE1
:1055D000621F731F841F48F4879577956795B79569
:1055E000F7959E3F08F0B0CF9395880F08F0992764
:1055F000EE0F9795879508950E94102B0C943B2AE7
:105600000E94342A58F00E942D2A40F029F45F3F6E
:1056100029F00C94242A51110C946F2A0C942A2AF4
:105620000E944C2A68F39923B1F3552391F3951BFB
:10563000550BBB27AA2762177307840738F09F5FB3
:105640005F4F220F331F441FAA1FA9F335D00E2E20
:105650003AF0E0E832D091505040E695001CCAF78D
:105660002BD0FE2F29D0660F771F881FBB1F261750
:1056700037074807AB07B0E809F0BB0B802DBF0127
:10568000FF2793585F4F3AF09E3F510578F00C94F6
:10569000242A0C946F2A5F3FE4F3983ED4F3869556
:1056A00077956795B795F7959F5FC9F7880F911D17
:1056B0009695879597F90895E1E0660F771F881F03
:1056C000BB1F621773078407BA0720F0621B730BB6
:1056D000840BBA0BEE1F88F7E09508950E94542AB8
:1056E00088F09F5798F0B92F9927B751B0F0E1F0A3
:1056F000660F771F881F991F1AF0BA95C9F714C053
:10570000B13091F00E946E2AB1E008950C946E2A97
:10571000672F782F8827B85F39F0B93FCCF386958B
:1057200077956795B395D9F73EF4909580957095E8
:1057300061957F4F8F4F9F4F08950E94902908F4E5
:105740008FEF08950E949029880B990B0895A1E28C
:105750001A2EAA1BBB1BFD010DC0AA1FBB1FEE1FEB
:10576000FF1FA217B307E407F50720F0A21BB30B36
:10577000E40BF50B661F771F881F991F1A9469F7B2
:1057800060957095809590959B01AC01BD01CF010E
:105790000895EE0FFF1F881F8BBF0790F691E02D35
:1057A00019940F931F93CF93DF938230910510F4D8
:1057B00082E090E0E0917503F091760330E020E024
:1057C000B0E0A0E0309799F42115310509F44AC002
:1057D000281B390B24303105D8F58A819B8161154E
:1057E000710589F1FB0193838283FE0111C0408121
:1057F00051810281138148175907E0F04817590772
:1058000099F4109761F012960C93129713961C93CB
:105810003296CF01DF91CF911F910F9108950093A0
:10582000750310937603F4CF2115310551F042171B
:10583000530738F0A901DB019A01BD01DF01F8012E
:10584000C1CFEF01F9CF9093760380937503CDCF4D
:10585000FE01E20FF31F81939193225031093983A6
:105860002883D7CF2091730330917403232B41F405
:10587000209102023091030230937403209373034A
:1058800020910002309101022115310541F42DB71C
:105890003EB74091040250910502241B350BE09164
:1058A0007303F0917403E217F307A0F42E1B3F0B70
:1058B0002817390778F0AC014E5F5F4F2417350782
:1058C00048F04E0F5F1F509374034093730381930E
:1058D00091939FCFF0E0E0E09CCFCF93DF930097D0
:1058E000E9F0FC01329713821282A0917503B09106
:1058F0007603ED0130E020E01097A1F420813181A2
:10590000820F931F20917303309174032817390776
:1059100009F061C0F0937403E0937303DF91CF91BA
:105920000895EA01CE17DF07E8F54A815B819E0101
:1059300041155105B1F7E901FB83EA83499159917A
:10594000C40FD51FEC17FD0761F480819181029689
:10595000840F951FE90199838883828193819B83BA
:105960008A83F0E0E0E012968D919C911397009766
:10597000B9F52D913C911197CD010296820F931F9D
:1059800020917303309174032817390739F6309743
:1059900051F51092760310927503B0937403A0939F
:1059A0007303BCCFD383C28340815181840F951F81
:1059B000C817D90761F44E5F5F4F88819981480FFE
:1059C000591F518340838A819B8193838283211550
:1059D000310509F0B0CFF0937603E09375039ECFC5
:1059E000FD01DC01C0CF13821282D7CF4F925F92AC
:1059F0006F927F928F929F92AF92BF92CF92DF92DF
:105A0000EF92FF920F931F93CF93DF938C01009738
:105A100099F4CB01DF91CF911F910F91FF90EF90FF
:105A2000DF90CF90BF90AF909F908F907F906F90BE
:105A30005F904F900C94D12BFC01E60FF71F9C0157
:105A400022503109E217F30708F4AEC0D901CD9115
:105A5000DC911197C617D70720F1C530D10578F032
:105A6000CE0104978617970750F0C61BD70B2297D5
:105A7000C193D1936D937C93CF010E946D2CC8018B
:105A8000DF91CF911F910F91FF90EF90DF90CF901A
:105A9000BF90AF909F908F907F906F905F904F904E
:105AA00008955B01AC1ABD0A4C018C0E9D1EA0919D
:105AB0007503B0917603512C412CF12CE12C1097F9
:105AC00031F580917303909174038815990509F05D
:105AD0005CC04616570608F058C0809100029091AD
