:100000000C9483000C94B4000C94B4000C94B400D1
:100010000C94B4000C94B4000C94B4000C94B40090
:100020000C94B4000C94B4000C94B4000C94B40080
:100030000C94B4000C94B4000C94B4000C94B40070
:100040000C94B4000C94B4000C94B4000C94B40060
:100050000C94B4000C94B4000C94B4000C940203FF
:100060000C94B4000C9476030C944C030C94B400E0
:100070000C94B4000C94B4000C94B4000C94B40030
:100080000C94B4000C94B4000C94B4000C94B40020
:100090000C94B4000C94B4000C94B4000C94B40010
:1000A0000C94B4000C94B4000C94B4000C94B40000
:1000B0000C94B4000C94B4000C94B4000C94B400F0
:1000C0000C94B4000C94B4000C94B4000C94B400E0
:1000D0000C94B4000C94B4000C94B4000C94B400D0
:1000E0000C94B4000C9406010C94D9000C943701C4
:1000F0000C94EC030C94D1010C9415010C9429017F
:100100000C941E02EC0311241FBECFEFD1E2DEBF20
:10011000CDBF00E00CBF22E0A2E3B2E001C01D921F
:10012000AC3DB207E1F712E0A0E0B2E0E4E2FEE0AD
:1001300000E00BBF02C007900D92A233B107D9F7C0
:1001400010E0C3E8D0E000E006C021970109802F4D
:10015000FE010E94F204C238D10780E00807A9F727
:100160000E9419040C9410070C9400000F931F9325
:10017000CF93DF93EC01FB01448155816081718154
:10018000E881F9810280F381E02D19958C01E881E5
:10019000F9810280F381E02D42E050E06EE272E0EE
:1001A000CE011995800F911FDF91CF911F910F9173
:1001B0000895AF92BF92CF92DF92EF92FF920F938A
:1001C0001F93CF93DF936C017B018B01040F151FED
:1001D000EB015E01AE18BF08C017D10759F0699155
:1001E000D601ED91FC910190F081E02DC6011995A9
:1001F000892B79F7C501DF91CF911F910F91FF9066
:10020000EF90DF90CF90BF90AF900895FC01538D99
:10021000448D252F30E0842F90E0821B930B5417E0
:1002200010F0CF96089501970895FC01918D828D6D
:10023000981761F0A28DAE0FBF2FB11D5D968C9106
:10024000928D9F5F9F73928F90E008958FEF9FEF45
:100250000895FC01918D828D981731F0828DE80F01
:10026000F11D858D90E008958FEF9FEF0895FC01BB
:10027000918D228D892F90E0805C9F4F821B910988
:100280008F739927089582E392E00E94370121E05D
:10029000892B09F420E0822F0895CF92DF92EF920C
:1002A000FF921F93CF93DF93EC016A017B01122F22
:1002B000E889F98982E08083C11481EED806E104DF
:1002C000F104A1F060E079E08DE390E0A7019601F0
:1002D0000E94D00421503109410951095695479592
:1002E00037952795211580E1380798F0E889F98935
:1002F000108260E874E88EE190E0A70196010E9408
:10030000D004215031094109510956954795379537
:100310002795EC85FD853083EE85FF852083188E3B
:10032000EC89FD891083EA89FB8980818061808363
:10033000EA89FB89808188608083EA89FB898081E2
:1003400080688083EA89FB8980818F7D8083DF914B
:10035000CF911F91FF90EF90DF90CF900895FC0117
:10036000A48DA80FB92FB11DA35ABF4F2C91848D16
:1003700090E001968F739927848FA689B7892C9373
:10038000A089B1898C91837080648C93938D848DC6
:10039000981306C00288F389E02D80818F7D8083C9
:1003A0000895EF92FF920F931F93CF93DF93EC0189
:1003B00081E0888F9B8D8C8D98131AC0E889F9890C
:1003C000808185FF15C09FB7F894EE89FF8960830F
:1003D000E889F98980818370806480839FBF81E090
:1003E00090E0DF91CF911F910F91FF90EF900895D2
:1003F000F62E0B8D10E00F5F1F4F0F731127E02EAD
:100400008C8D8E110CC00FB607FCFACFE889F989E4
:10041000808185FFF5CFCE010E94AF01F1CFEB8D3A
:10042000EC0FFD2FF11DE35AFF4FF0829FB7F894B8
:100430000B8FEA89FB8980818062CFCFCF93DF93D6
:10044000EC01888D8823B9F0AA89BB89E889F989EC
:100450008C9185FD03C0808186FD0DC00FB607FC21
:10046000F7CF8C9185FFF2CF808185FFEDCFCE0154
:100470000E94AF01E9CFDF91CF91089580E090E035
:10048000892B29F00E94430181110E94000080E025
:1004900090E0892B49F080E090E0892B29F00E94C0
:1004A000000081110E94000080E090E0892B49F05B
:1004B00080E090E0892B29F00E94000081110E94C9
:1004C000000080E090E0892B49F080E090E0892BEB
:1004D00029F00E94000081110C9400000895CF9330
:1004E000DF9300D000D0CDB7DEB79A8389834B83EA
:1004F0005C836D837E838B819C81AD81BE81E9812C
:10050000FA8126E0AC01BD01CF010E944D01269683
:100510000FB6F894DEBF0FBECDBFDF91CF91089527
:10052000FC0180819181009711F00C94960508954B
:10053000CF92DF92EF92FF920F931F93CF93DF93AF
:10054000CDB7DEB762970FB6F894DEBF0FBECDBF52
:100550008C01CB01F8011182108213821282158264
:10056000148250E09E012F5F3F4F6901B9010E9444
:100570009004F60101900020E9F731977F01EC1813
:10058000FD08F80180819181009729F02281338153
:100590002E153F0590F4B7016F5F7F4F0E941F0635
:1005A000F801009799F091838083F382E28224819D
:1005B0003581232B11F4FC011082F801F582E482CD
:1005C000B601808191810E9409070DC080819181CF
:1005D000009711F00E949605F80111821082158291
:1005E00014821382128262960FB6F894DEBF0FBE99
:1005F000CDBFDF91CF911F910F91FF90EF90DF90D2
:10060000CF9008951F920F920FB60F9211242F933F
:100610003F938F939F93AF93BF938091D402909118
:10062000D502A091D602B091D7023091D30223E037
:10063000230F2D3758F50196A11DB11D2093D3022C
:100640008093D4029093D502A093D602B093D702A0
:100650008091CF029091D002A091D102B091D202AC
:100660000196A11DB11D8093CF029093D002A0935B
:10067000D102B093D202BF91AF919F918F913F91E0
:100680002F910F900FBE0F901F90189526E8230F03
:100690000296A11DB11DD2CF1F920F920FB60F92DD
:1006A00011240BB60F922F933F934F935F936F9349
:1006B0007F938F939F93AF93BF93EF93FF9382E3C7
:1006C00092E00E94AF01FF91EF91BF91AF919F9196
:1006D0008F917F916F915F914F913F912F910F90EB
:1006E0000BBE0F900FBE0F901F9018951F920F9288
:1006F0000FB60F9211240BB60F922F938F939F93E7
:10070000EF93FF93E0914202F09143028081E091E8
:100710004802F091490282FD1DC0908180914B02F8
:100720008F5F8F7320914C02821741F0E0914B0252
:10073000F0E0EE5CFD4F958F80934B02FF91EF91BF
:100740009F918F912F910F900BBE0F900FBE0F9026
:100750001F9018958081F2CFCF93DF93CDB7DEB78E
:10076000DF91CF910895CF93DF9300D000D01F92F7
:100770001F92CDB7DEB782E090E09A83898329810A
:100780003A81CE0103964AE0B9010E949802CE0157
:100790000396BC0182E392E00E94B600CE0103966C
:1007A0000E94900228960FB6F894DEBF0FBECDBF10
:1007B000DF91CF910895CF93DF93CDB7DEB740E8B7
:1007C00055E260E070E082E392E00E946F020E94D6
:1007D000B303DF91CF910895E2E3F2E01382128236
:1007E00088EE93E0A0E0B0E084839583A683B7838E
:1007F00080E292E09183808385EC90E09587848706
:1008000084EC90E09787868780EC90E0918B808BDA
:1008100081EC90E0938B828B82EC90E0958B848BC3
:1008200086EC90E0978B868B118E128E138E148E31
:100830000895789484B5826084BD84B5816084BD58
:1008400085B5826085BD85B5816085BD80916E006E
:10085000816080936E00109281008091810082609F
:1008600080938100809181008160809381008091DC
:1008700080008160809380008091B10084608093CB
:10088000B1008091B00081608093B00080919100B0
:1008900082608093910080919100816080939100AB
:1008A000809190008160809390008091A10082608F
:1008B0008093A1008091A10081608093A10080912C
:1008C000A00081608093A0008091210182608093CC
:1008D000210180912101816080932101809120017B
:1008E00081608093200180917A00846080937A00F7
:1008F00080917A00826080937A0080917A00816092
:1009000080937A0080917A00806880937A001092B8
:10091000C1000E94DB030E94AC030E943E02FBCF99
:100920004532510520F4423010F00C949B04FB0139
:100930001082CB010895BB274A3031F4992322F469
:10094000BDE2909581959F4F0C94A704BB27FB01B6
:100950005527AA27880F991FAA1FA41710F0A41BB8
:1009600083955051B9F7A05DAA3308F0A95DA19312
:10097000009779F7B111B1931192CB010C94C00497
:10098000DC01FC01672F71917723E1F7329704C0F6
:100990007C916D9370836291AE17BF07C8F3089581
:1009A000A1E21A2EAA1BBB1BFD010DC0AA1FBB1F73
:1009B000EE1FFF1FA217B307E407F50720F0A21BE5
:1009C000B30BE40BF50B661F771F881F991F1A9452
:1009D00069F760957095809590959B01AC01BD017C
:1009E000CF010895EE0FFF1F881F8BBF0790F69170
:1009F000E02D19940F931F93CF93DF9382309105CD
:100A000010F482E090E0E091DA02F091DB0230E055
:100A100020E0B0E0A0E0309799F42115310509F409
:100A20004AC0281B390B24303105D8F58A819B81B7
:100A30006115710589F1FB0193838283FE0111C069
:100A4000408151810281138148175907E0F048170E
:100A5000590799F4109761F012960C931297139618
:100A60001C933296CF01DF91CF911F910F91089582
:100A70000093DA021093DB02F4CF2115310551F017
:100A80004217530738F0A901DB019A01BD01DF01CC
:100A9000F801C1CFEF01F9CF9093DB028093DA0226
:100AA000CDCFFE01E20FF31F8193919322503109C4
:100AB00039832883D7CF2091D8023091D902232BB4
:100AC00041F420910202309103023093D902209325
:100AD000D80220910002309101022115310541F424
:100AE0002DB73EB74091040250910502241B350BEF
:100AF000E091D802F091D902E217F307A0F42E1B7F
:100B00003F0B2817390778F0AC014E5F5F4F241771
:100B1000350748F04E0F5F1F5093D9024093D8021B
:100B2000819391939FCFF0E0E0E09CCFCF93DF9350
:100B30000097E9F0FC01329713821282A091DA0249
:100B4000B091DB02ED0130E020E01097A1F42081AC
:100B50003181820F931F2091D8023091D90228173A
:100B6000390709F061C0F093D902E093D802DF9110
:100B7000CF910895EA01CE17DF07E8F54A815B813E
:100B80009E0141155105B1F7E901FB83EA834991C3
:100B90005991C40FD51FEC17FD0761F48081918135
:100BA0000296840F951FE90199838883828193813E
:100BB0009B838A83F0E0E0E012968D919C911397DD
:100BC0000097B9F52D913C911197CD010296820FB6
:100BD000931F2091D8023091D9022817390739F68E
:100BE000309751F51092DB021092DA02B093D902DD
:100BF000A093D802BCCFD383C28340815181840F9C
:100C0000951FC817D90761F44E5F5F4F888199819E
:100C1000480F591F518340838A819B81938382832C
:100C20002115310509F0B0CFF093DB02E093DA0231
:100C30009ECFFD01DC01C0CF13821282D7CF4F922D
:100C40005F926F927F928F929F92AF92BF92CF925C
:100C5000DF92EF92FF920F931F93CF93DF938C015C
:100C6000009799F4CB01DF91CF911F910F91FF90E5
:100C7000EF90DF90CF90BF90AF909F908F907F903C
:100C80006F905F904F900C94FA04FC01E60FF71FF1
:100C90009C0122503109E217F30708F4AEC0D901D4
:100CA000CD91DC911197C617D70720F1C530D1053A
:100CB00078F0CE0104978617970750F0C61BD70B24
:100CC0002297C193D1936D937C93CF010E94960597
:100CD000C801DF91CF911F910F91FF90EF90DF90AE
:100CE000CF90BF90AF909F908F907F906F905F90CC
:100CF0004F9008955B01AC1ABD0A4C018C0E9D1EED
:100D0000A091DA02B091DB02512C412CF12CE12CA4
:100D1000109731F58091D8029091D90288159905E4
:100D200009F05CC04616570608F058C080910002D2
:100D300090910102009741F48DB79EB74091040253
:100D400050910502841B950BE817F90708F055C070
:100D5000F093D902E093D802F90171836083B8CF90
:100D60008D919C91119712966C90129713967C908E
:100D70001397A815B90559F56C0142E0C40ED11CB2
:100D8000CA14DB0420F1AC014A195B09DA0112969E
:100D9000159780F06282738251834083D9016D93ED
:100DA0007C93E114F10471F0D7011396FC93EE9358
:100DB00012978ECF22968C0F9D1FF901918380830D
:100DC000F301EFCFF093DB02E093DA0281CF481614
:100DD000590608F42C017D01D3019ACFCB010E9462
:100DE000FA047C01009749F0AE01B8010E940007A7
:100DF000C8010E94960587016BCF10E000E068CF24
:100E0000FB01DC0102C001900D9241505040D8F727
:100E10000895FB01DC0101900D920020E1F7089597
:040E2000F894FFCF74
:100E24000000DC028000353332341415363738398B
:100E34003A3B3C3D3E3F40414243444500000000B4
:100E4400D101D90006011E023701150129010D0A3D
:020E540000009C
:00000001FF
