:100000000C9483000C94B4000C94B4000C94B400D1
:100010000C94B4000C94B4000C94B4000C94B40090
:100020000C94B4000C94B4000C94B4000C94B40080
:100030000C94B4000C94B4000C94B4000C94B40070
:100040000C94B4000C94B4000C94B4000C94B40060
:100050000C94B4000C94B4000C94B4000C9485027D
:100060000C94B4000C94F9020C94CF020C94B400DC
:100070000C94B4000C94B4000C94B4000C94B40030
:100080000C94B4000C94B4000C94B4000C94B40020
:100090000C94B4000C94B4000C94B4000C94B40010
:1000A0000C94B4000C94B4000C94B4000C94B40000
:1000B0000C94B4000C94B4000C94B4000C94B400F0
:1000C0000C94B4000C94B4000C94B4000C94B400E0
:1000D0000C94B4000C94B4000C94B4000C94B400D0
:1000E0000C94B4000C94A4030C943C010C94C10136
:1000F0000C941A010C9474010C94DE000C942E01E3
:100100000C940B01A40311241FBECFEFD1E2DEBF7C
:10011000CDBF00E00CBF12E0A0E0B2E0EAE5FEE0F7
:1001200000E00BBF02C007900D92A032B107D9F7D3
:1001300022E0A0E2B2E001C01D92AA3CB207E1F7C2
:1001400010E0C3E8D0E000E006C021970109802F4D
:10015000FE010E940D05C238D10780E00807A9F70B
:100160000E942F030C942B070C940000E9E2F2E0AC
:10017000A089B18982E08C93A485B5851C92A6855F
:10018000B7858FEC8C93108EA489B58986E08C930B
:10019000A289B3898C9180618C93A289B3898C9157
:1001A00088608C93A289B3898C9180688C93028833
:1001B000F389E02D80818F7D80830895AF92BF9277
:1001C000CF92DF92EF92FF920F931F93CF93DF9323
:1001D0006C017B018B01040F151FEB015E01AE1852
:1001E000BF08C017D10759F06991D601ED91FC9174
:1001F0000190F081E02DC6011995892B79F7C50191
:10020000DF91CF911F910F91FF90EF90DF90CF90F2
:10021000BF90AF900895FC01538D448D252F30E0A1
:10022000842F90E0821B930B541710F0CF96089503
:1002300001970895FC01918D828D981761F0A28D30
:10024000AE0FBF2FB11D5D968C91928D9F5F9F73F6
:10025000928F90E008958FEF9FEF0895FC01918DAC
:10026000828D981731F0828DE80FF11D858D90E019
:1002700008958FEF9FEF0895FC01918D228D892FB6
:1002800090E0805C9F4F821B91098F73992708959E
:1002900089E292E00E943C0121E0892B09F420E0F0
:1002A000822F0895FC01A48DA80FB92FB11DA35A68
:1002B000BF4F2C91848D90E001968F739927848F86
:1002C000A689B7892C93A089B1898C9183708064A9
:1002D0008C93938D848D981306C00288F389E02D4A
:1002E00080818F7D80830895EF92FF920F931F93FB
:1002F000CF93DF93EC0181E0888F9B8D8C8D9813D9
:100300001AC0E889F989808185FF15C09FB7F894E4
:10031000EE89FF896083E889F98980818370806430
:1003200080839FBF81E090E0DF91CF911F910F917B
:10033000FF90EF900895F62E0B8D10E00F5F1F4F8A
:100340000F731127E02E8C8D8E110CC00FB607FC99
:10035000FACFE889F989808185FFF5CFCE010E9427
:100360005201F1CFEB8DEC0FFD2FF11DE35AFF4F42
:10037000F0829FB7F8940B8FEA89FB8980818062B5
:10038000CFCFCF93DF93EC01888D8823B9F0AA8972
:10039000BB89E889F9898C9185FD03C0808186FD40
:1003A0000DC00FB607FCF7CF8C9185FFF2CF80818F
:1003B00085FFEDCFCE010E945201E9CFDF91CF91B1
:1003C000089580E090E0892B29F00E944801811176
:1003D0000E94000080E090E0892B49F080E090E0EE
:1003E000892B29F00E94000081110E94000080E00A
:1003F00090E0892B49F080E090E0892B29F00E9461
:10040000000081110E94000080E090E0892B49F0FB
:1004100080E090E0892B29F00E94000081110C946B
:1004200000000895089521E030E0892B11F030E0BC
:1004300020E0C9010895CF92DF92EF92FF920F93CF
:100440001F93CF93DF93CDB7DEB762970FB6F894C3
:10045000DEBF0FBECDBF0E94B6000E941D04CB01BF
:100460000E9413024AE09E012F5F3F4F6901B901CC
:100470000E947504F60101900020E9F731978F0181
:100480000C191D09B8016F5F7F4F90E080E00E945A
:100490003A067C01009739F1FC011082B6010E94F6
:1004A0002407A801B70189E292E00E94DE0042E041
:1004B00050E06CE172E089E292E00E94DE00E1141B
:1004C000F104A1F0C70162960FB6F894DEBF0FBE2B
:1004D000CDBFDF91CF911F910F91FF90EF90DF90F3
:1004E000CF900C94B10510E000E0DBCF62960FB620
:1004F000F894DEBF0FBECDBFDF91CF911F910F915A
:10050000FF90EF90DF90CF9008951F920F920FB65B
:100510000F9211242F933F938F939F93AF93BF9389
:100520008091250290912602A0912702B091280285
:100530003091240223E0230F2D3758F50196A11D99
:10054000B11D209324028093250290932602A0934C
:100550002702B09328028091200290912102A0915D
:100560002202B09123020196A11DB11D80932002A9
:1005700090932102A0932202B0932302BF91AF91E6
:100580009F918F913F912F910F900FBE0F901F90D1
:10059000189526E8230F0296A11DB11DD2CF1F92F8
:1005A0000F920FB60F9211240BB60F922F933F9319
:1005B0004F935F936F937F938F939F93AF93BF936B
:1005C000EF93FF9389E292E00E945201FF91EF9135
:1005D000BF91AF919F918F917F916F915F914F915B
:1005E0003F912F910F900BBE0F900FBE0F901F9059
:1005F00018951F920F920FB60F9211240BB60F92FF
:100600002F938F939F93EF93FF93E0913902F09193
:100610003A028081E0913F02F091400282FD1DC0CC
:100620009081809142028F5F8F73209143028217E5
:1006300041F0E0914202F0E0E75DFD4F958F80933D
:100640004202FF91EF919F918F912F910F900BBEDE
:100650000F900FBE0F901F9018958081F2CF789465
:1006600084B5826084BD84B5816084BD85B58260B7
:1006700085BD85B5816085BD80916E008160809368
:100680006E001092810080918100826080938100D1
:1006900080918100816080938100809180008160E1
:1006A000809380008091B10084608093B10080913C
:1006B000B00081608093B00080919100826080934F
:1006C00091008091910081608093910080919000D1
:1006D0008160809390008091A10082608093A1004E
:1006E0008091A10081608093A1008091A000816031
:1006F0008093A000809121018260809321018091EC
:10070000210181608093210180912001816080938B
:10071000200180917A00846080937A0080917A0031
:10072000826080937A0080917A00816080937A0061
:1007300080917A00806880937A001092C1000E94B4
:100740001B020E94E101FDCFE9E2F2E01382128276
:1007500088EE93E0A0E0B0E084839583A683B7831E
:100760008EE092E09183808385EC90E0958784878A
:1007700084EC90E09787868780EC90E0918B808B6B
:1007800081EC90E0938B828B82EC90E0958B848B54
:1007900086EC90E0978B868B118E128E138E148EC2
:1007A00008958F929F92AF92BF92CF92DF92EF9275
:1007B000FF92CF93DF93EC01688179818A819B81DD
:1007C000611571058105910521F464E279ED8BE5F0
:1007D00097E02DE133EF41E050E00E94AA04490187
:1007E0005A019B01AC01A7EAB1E40E94C9046B0164
:1007F0007C01ACEEB4EFA50194010E94D704C60EB3
:10080000D71EE81EF91EF7FE06C081E0C81AD108FF
:10081000E10880E8F80AC882D982EA82FB82C7012F
:10082000B6019F77DF91CF91FF90EF90DF90CF904F
:10083000BF90AF909F908F9008958F929F92AF92AC
:10084000BF92CF92DF92EF92FF926091000270917F
:1008500001028091020290910302611571058105E8
:10086000910521F464E279ED8BE597E02DE133EF1A
:1008700041E050E00E94AA0449015A019B01AC01E9
:10088000A7EAB1E40E94C9046B017C01ACEEB4EFAD
:10089000A50194010E94D704C60ED71EE81EF91EBA
:1008A000F7FE06C081E0C81AD108E10880E8F80A1E
:1008B000C0920002D0920102E0920202F092030282
:1008C000C701B6019F77FF90EF90DF90CF90BF9068
:1008D000AF909F908F9008956093000270930102F3
:1008E00080930202909303020895BB274A3031F4AB
:1008F000992322F4BDE2909581959F4F0C94810439
:10090000BB27FB015527AA27880F991FAA1FA417E9
:1009100010F0A41B83955051B9F7A05DAA3308F0DD
:10092000A95DA193009779F7B111B1931192CB0111
:100930000C949A04DC01FC01672F71917723E1F795
:10094000329704C07C916D9370836291AE17BF079C
:10095000C8F30895052E97FB1EF400940E94C1046D
:1009600057FD07D00E94DC0407FC03D04EF40C9422
:10097000C10450954095309521953F4F4F4F5F4FA3
:10098000089590958095709561957F4F8F4F9F4FFB
:1009900008950E94FE04A59F900DB49F900DA49F02
:1009A000800D911D11240895B7FF0C94C9040E9475
:1009B000C904821B930B0895A1E21A2EAA1BBB1B2C
:1009C000FD010DC0AA1FBB1FEE1FFF1FA217B3071B
:1009D000E407F50720F0A21BB30BE40BF50B661F31
:1009E000771F881F991F1A9469F7609570958095F5
:1009F00090959B01AC01BD01CF010895A29FB0016C
:100A0000B39FC001A39F700D811D1124911DB29F42
:100A1000700D811D1124911D0895EE0FFF1F881F79
:100A20008BBF0790F691E02D19940F931F93CF93EE
:100A3000DF938230910510F482E090E0E091C802EB
:100A4000F091C90230E020E0B0E0A0E0309799F4E6
:100A50002115310509F44AC0281B390B2430310512
:100A6000D8F58A819B816115710589F1FB0193831A
:100A70008283FE0111C04081518102811381481798
:100A80005907E0F04817590799F4109761F012964A
:100A90000C93129713961C933296CF01DF91CF914E
:100AA0001F910F9108950093C8021093C902F4CFCB
:100AB0002115310551F04217530738F0A901DB0128
:100AC0009A01BD01DF01F801C1CFEF01F9CF909389
:100AD000C9028093C802CDCFFE01E20FF31F8193BC
:100AE00091932250310939832883D7CF2091C602B0
:100AF0003091C702232B41F4209106023091070266
:100B00003093C7022093C60220910402309105025F
:100B10002115310541F42DB73EB74091080250919F
:100B20000902241B350BE091C602F091C702E217BF
:100B3000F307A0F42E1B3F0B2817390778F0AC0100
:100B40004E5F5F4F2417350748F04E0F5F1F5093DD
:100B5000C7024093C602819391939FCFF0E0E0E0FB
:100B60009CCFCF93DF930097E9F0FC01329713827B
:100B70001282A091C802B091C902ED0130E020E0DC
:100B80001097A1F420813181820F931F2091C6021A
:100B90003091C7022817390709F061C0F093C702E6
:100BA000E093C602DF91CF910895EA01CE17DF07E7
:100BB000E8F54A815B819E0141155105B1F7E901D4
:100BC000FB83EA8349915991C40FD51FEC17FD07A8
:100BD00061F4808191810296840F951FE9019983C8
:100BE0008883828193819B838A83F0E0E0E0129680
:100BF0008D919C9113970097B9F52D913C91119788
:100C0000CD010296820F931F2091C6023091C70238
:100C10002817390739F6309751F51092C90210920A
:100C2000C802B093C702A093C602BCCFD383C283CD
:100C300040815181840F951FC817D90761F44E5F19
:100C40005F4F88819981480F591F518340838A8162
:100C50009B81938382832115310509F0B0CFF093F6
:100C6000C902E093C8029ECFFD01DC01C0CF138210
:100C70001282D7CF4F925F926F927F928F929F9204
:100C8000AF92BF92CF92DF92EF92FF920F931F939A
:100C9000CF93DF938C01009799F4CB01DF91CF9133
:100CA0001F910F91FF90EF90DF90CF90BF90AF908A
:100CB0009F908F907F906F905F904F900C94150550
:100CC000FC01E60FF71F9C0122503109E217F307E0
:100CD00008F4AEC0D901CD91DC911197C617D707A2
:100CE00020F1C530D10578F0CE010497861797071B
:100CF00050F0C61BD70B2297C193D1936D937C9371
:100D0000CF010E94B105C801DF91CF911F910F91D2
:100D1000FF90EF90DF90CF90BF90AF909F908F901B
:100D20007F906F905F904F9008955B01AC1ABD0A61
:100D30004C018C0E9D1EA091C802B091C902512C8D
:100D4000412CF12CE12C109731F58091C602909145
:100D5000C7028815990509F05CC04616570608F0C9
:100D600058C08091040290910502009741F48DB71C
:100D70009EB74091080250910902841B950BE81719
:100D8000F90708F055C0F093C702E093C602F901D5
:100D900071836083B8CF8D919C91119712966C905E
:100DA000129713967C901397A815B90559F56C0105
:100DB00042E0C40ED11CCA14DB0420F1AC014A1974
:100DC0005B09DA011296159780F062827382518373
:100DD0004083D9016D937C93E114F10471F0D70144
:100DE0001396FC93EE9312978ECF22968C0F9D1F35
:100DF000F90191838083F301EFCFF093C902E0936F
:100E0000C80281CF4816590608F42C017D01D30190
:100E10009ACFCB010E9415057C01009749F0AE01E5
:100E2000B8010E941B07C8010E94B10587016BCF62
:100E300010E000E068CFFB01DC0102C001900D92E0
:100E400041505040D8F70895FB01DC0101900D920C
:0A0E50000020E1F70895F894FFCFA9
:100E5A00010000000000CA028000000000007401C6
:100E6A00DE000B01C1013C011A012E010D0A00002E
:00000001FF
