:100000000C9483000C94B4000C94B4000C94B400D1
:100010000C94B4000C94B4000C94B4000C94B40090
:100020000C94B4000C94B4000C94B4000C94B40080
:100030000C94B4000C94B4000C94B4000C94B40070
:100040000C94B4000C94B4000C94B4000C94B40060
:100050000C94B4000C94B4000C94B4000C94A90259
:100060000C94B4000C941D030C94F3020C94B40093
:100070000C94B4000C94B4000C94B4000C94B40030
:100080000C94B4000C94B4000C94B4000C94B40020
:100090000C94B4000C94B4000C94B4000C94B40010
:1000A0000C94B4000C94B4000C94B4000C94B40000
:1000B0000C94B4000C94B4000C94B4000C94B400F0
:1000C0000C94B4000C94B4000C94B4000C94B400E0
:1000D0000C94B4000C94B4000C94B4000C94B400D0
:1000E0000C94B4000C942E010C94DE000C94C80304
:1000F0000C9474010C943C010C941A010C940B01A7
:100100000C94C101C80311241FBECFEFD1E2DEBFA2
:10011000CDBF00E00CBF12E0A0E0B2E0E2E4F8E006
:1001200000E00BBF02C007900D92A631B107D9F7CE
:1001300022E0A6E1B2E001C01D92AC3BB207E1F7BC
:1001400010E0C3E8D0E000E006C021970109802F4D
:10015000FE010E941704C238D10780E00807A9F702
:100160000E9453030C941F040C940000EFE1F2E092
:10017000A089B18982E08C93A485B5851C92A6855F
:10018000B7858FEC8C93108EA489B58986E08C930B
:10019000A289B3898C9180618C93A289B3898C9157
:1001A00088608C93A289B3898C9180688C93028833
:1001B000F389E02D80818F7D80830895AF92BF9277
:1001C000CF92DF92EF92FF920F931F93CF93DF9323
:1001D0006C017B018B01040F151FEB015E01AE1852
:1001E000BF08C017D10759F06991D601ED91FC9174
:1001F0000190F081E02DC6011995892B79F7C50191
:10020000DF91CF911F910F91FF90EF90DF90CF90F2
:10021000BF90AF900895FC01538D448D252F30E0A1
:10022000842F90E0821B930B541710F0CF96089503
:1002300001970895FC01918D828D981761F0A28D30
:10024000AE0FBF2FB11D5D968C91928D9F5F9F73F6
:10025000928F90E008958FEF9FEF0895FC01918DAC
:10026000828D981731F0828DE80FF11D858D90E019
:1002700008958FEF9FEF0895FC01918D228D892FB6
:1002800090E0805C9F4F821B91098F73992708959E
:100290008FE192E00E943C0121E0892B09F420E0EB
:1002A000822F0895FC01A48DA80FB92FB11DA35A68
:1002B000BF4F2C91848D90E001968F739927848F86
:1002C000A689B7892C93A089B1898C9183708064A9
:1002D0008C93938D848D981306C00288F389E02D4A
:1002E00080818F7D80830895EF92FF920F931F93FB
:1002F000CF93DF93EC0181E0888F9B8D8C8D9813D9
:100300001AC0E889F989808185FF15C09FB7F894E4
:10031000EE89FF896083E889F98980818370806430
:1003200080839FBF81E090E0DF91CF911F910F917B
:10033000FF90EF900895F62E0B8D10E00F5F1F4F8A
:100340000F731127E02E8C8D8E110CC00FB607FC99
:10035000FACFE889F989808185FFF5CFCE010E9427
:100360005201F1CFEB8DEC0FFD2FF11DE35AFF4F42
:10037000F0829FB7F8940B8FEA89FB8980818062B5
:10038000CFCFCF93DF93EC01888D8823B9F0AA8972
:10039000BB89E889F9898C9185FD03C0808186FD40
:1003A0000DC00FB607FCF7CF8C9185FFF2CF80818F
:1003B00085FFEDCFCE010E945201E9CFDF91CF91B1
:1003C000089580E090E0892B29F00E944801811176
:1003D0000E94000080E090E0892B49F080E090E0EE
:1003E000892B29F00E94000081110E94000080E00A
:1003F00090E0892B49F080E090E0892B29F00E9461
:10040000000081110E94000080E090E0892B49F0FB
:1004100080E090E0892B29F00E94000081110C946B
:10042000000008950895CF93DF93CDB7DEB76497AA
:100430000FB6F894DEBF0FBECDBF8B859C854E975F
:1004400059F481E090E064960FB6F894DEBF0FBED9
:10045000CDBFDF91CF91089583E090E0F4CF8F92EC
:100460009F92AF92BF920F931F93CF93DF93CDB71D
:10047000DEB7A1970FB6F894DEBF0FBECDBF19A2AD
:10048000423008F44AE08E010F5D1F4F842E912CFC
:10049000B12CA12CA50194010E94F503E62FB9010E
:1004A000CA01EA3044F5E05DD801EE938D01232BBB
:1004B000242B252B79F790E080E0109769F0FD015F
:1004C00001900020E9F73197AF014A1B5B0BBD019A
:1004D0008FE192E00E94DE00A1960FB6F894DEBF95
:1004E0000FBECDBFDF91CF911F910F91BF90AF9005
:1004F0009F908F900895E95CD7CFCF92DF92EF92D3
:10050000FF920E94B6000E9413026C01990FEE0840
:10051000FF084AE0C701B601F7FE0DC06DE28FE1AA
:1005200092E00E94740166277727CB016C197D0940
:100530008E099F094AE00E942F0242E050E062E1EA
:1005400072E08FE192E0FF90EF90DF90CF900C94FB
:10055000DE001F920F920FB60F9211242F933F933C
:100560008F939F93AF93BF9380911B0290911C0236
:10057000A0911D02B0911E0230911A0223E0230FB8
:100580002D3758F50196A11DB11D20931A028093B5
:100590001B0290931C02A0931D02B0931E02809137
:1005A000160290911702A0911802B09119020196BB
:1005B000A11DB11D8093160290931702A0931802FB
:1005C000B0931902BF91AF919F918F913F912F915D
:1005D0000F900FBE0F901F90189526E8230F0296DC
:1005E000A11DB11DD2CF1F920F920FB60F921124F1
:1005F0000BB60F922F933F934F935F936F937F931D
:100600008F939F93AF93BF93EF93FF938FE192E00C
:100610000E945201FF91EF91BF91AF919F918F91F5
:100620007F916F915F914F913F912F910F900BBEF2
:100630000F900FBE0F901F9018951F920F920FB63C
:100640000F9211240BB60F922F938F939F93EF93DA
:10065000FF93E0912F02F09130028081E09135020A
:10066000F091360282FD1DC09081809138028F5F2B
:100670008F7320913902821741F0E0913802F0E047
:10068000E15EFD4F958F80933802FF91EF919F912E
:100690008F912F910F900BBE0F900FBE0F901F9058
:1006A00018958081F2CF789484B5826084BD84B53A
:1006B000816084BD85B5826085BD85B5816085BD5D
:1006C00080916E00816080936E0010928100809115
:1006D000810082608093810080918100816080939D
:1006E0008100809180008160809380008091B100C2
:1006F00084608093B1008091B00081608093B000ED
:10070000809191008260809391008091910081603E
:1007100080939100809190008160809390008091FF
:10072000A10082608093A1008091A10081608093EC
:10073000A1008091A00081608093A00080912101A0
:100740008260809321018091210181608093210149
:100750008091200181608093200180917A008460E3
:1007600080937A0080917A00826080937A008091F1
:100770007A00816080937A0080917A00806880930B
:100780007A001092C1000E947D020E94E101FDCF1B
:10079000EFE1F2E01382128288EE93E0A0E0B0E095
:1007A00084839583A683B78384E092E091838083DA
:1007B00085EC90E09587848784EC90E09787868726
:1007C00080EC90E0918B808B81EC90E0938B828B1E
:1007D00082EC90E0958B848B86EC90E0978B868BF7
:1007E000118E128E138E148E0895A1E21A2EAA1B5A
:1007F000BB1BFD010DC0AA1FBB1FEE1FFF1FA217D1
:10080000B307E407F50720F0A21BB30BE40BF50BCD
:10081000661F771F881F991F1A9469F76095709556
:10082000809590959B01AC01BD01CF010895EE0F1D
:10083000FF1F881F8BBF0790F691E02D1994F89445
:02084000FFCFE8
:10084200000000007401DE000B01C1013C011A012D
:060852002E010D0A00005A
:00000001FF
