:100000000C9483000C94B4000C94B4000C94B400D1
:100010000C94B4000C94B4000C94B4000C94B40090
:100020000C94B4000C94B4000C94B4000C94B40080
:100030000C94B4000C94B4000C94B4000C94B40070
:100040000C94B4000C94B4000C94B4000C94B40060
:100050000C94B4000C94B4000C94B4000C9495026D
:100060000C94B4000C9409030C94DF020C94B400BB
:100070000C94B4000C94B4000C94B4000C94B40030
:100080000C94B4000C94B4000C94B4000C94B40020
:100090000C94B4000C94B4000C94B4000C94B40010
:1000A0000C94B4000C94B4000C94B4000C94B40000
:1000B0000C94B4000C94B4000C94B4000C94B400F0
:1000C0000C94B4000C94B4000C94B4000C94B400E0
:1000D0000C94B4000C94B4000C94B4000C94B400D0
:1000E0000C94B4000C94FB010C94B6000C94AE017B
:1000F0000C9406010C9414010C9477030C94F200F8
:100100000C94E300770311241FBECFEFD1E2DEBFD2
:10011000CDBF00E00CBF12E0A0E0B2E0EEE8F8E0F6
:1001200000E00BBF02C007900D92A437B107D9F7CA
:1001300023E0A4E7B2E001C01D92AA31B207E1F7C3
:1001400010E0C3E8D0E000E006C021970109802F4D
:10015000FE010E943D04C238D10780E00807A9F7DC
:100160000E94A4030C9445040C940000AF92BF922B
:10017000CF92DF92EF92FF920F931F93CF93DF9373
:100180006C017B018B01040F151FEB015E01AE18A2
:10019000BF08C017D10759F06991D601ED91FC91C4
:1001A0000190F081E02DC6011995892B79F7C501E1
:1001B000DF91CF911F910F91FF90EF90DF90CF9043
:1001C000BF90AF900895FC01538D448D252F30E0F2
:1001D000842F90E0821B930B541710F0CF96089554
:1001E00001970895FC01918D828D981761F0A28D81
:1001F000AE0FBF2FB11D5D968C91928D9F5F9F7347
:10020000928F90E008958FEF9FEF0895FC01918DFC
:10021000828D981731F0828DE80FF11D858D90E069
:1002200008958FEF9FEF0895FC01918D228D892F06
:1002300090E0805C9F4F821B91098F7399270895EE
:1002400084E792E00E94140121E0892B09F420E068
:10025000822F0895CF92DF92EF92FF921F93CF9358
:10026000DF93EC016A017B01122FE889F98982E0B2
:100270008083C11481EED806E104F104A1F060E0AE
:1002800079E08DE390E0A70196010E941B042150C4
:1002900031094109510956954795379527952115FB
:1002A00080E1380798F0E889F989108260E874E8FD
:1002B0008EE190E0A70196010E941B0421503109B4
:1002C000410951095695479537952795EC85FD8548
:1002D0003083EE85FF852083188EEC89FD8910839D
:1002E000EA89FB89808180618083EA89FB8980813A
:1002F00088608083EA89FB89808180688083EA89BD
:10030000FB8980818F7D8083DF91CF911F91FF904A
:10031000EF90DF90CF900895FC01A48DA80FB92F26
:10032000B11DA35ABF4F2C91848D90E001968F731D
:100330009927848FA689B7892C93A089B1898C913C
:10034000837080648C93938D848D981306C002888B
:10035000F389E02D80818F7D80830895EF92FF9255
:100360000F931F93CF93DF93EC0181E0888F9B8DD8
:100370008C8D98131AC0E889F989808185FF15C092
:100380009FB7F894EE89FF896083E889F9898081B5
:100390008370806480839FBF81E090E0DF91CF9184
:1003A0001F910F91FF90EF900895F62E0B8D10E0A6
:1003B0000F5F1F4F0F731127E02E8C8D8E110CC015
:1003C0000FB607FCFACFE889F989808185FFF5CF60
:1003D000CE010E948C01F1CFEB8DEC0FFD2FF11DB2
:1003E000E35AFF4FF0829FB7F8940B8FEA89FB899D
:1003F00080818062CFCFCF93DF93EC01888D8823FB
:10040000B9F0AA89BB89E889F9898C9185FD03C077
:10041000808186FD0DC00FB607FCF7CF8C9185FF5C
:10042000F2CF808185FFEDCFCE010E948C01E9CF14
:10043000DF91CF91089580E090E0892B29F00E9410
:10044000200181110E94000080E090E0892B49F09A
:1004500080E090E0892B29F00E94000081110E9429
:10046000000080E090E0892B49F080E090E0892B4B
:1004700029F00E94000081110E94000080E090E0BD
:10048000892B49F080E090E0892B29F00E94000040
:1004900081110C9400000895CF93DF9300D000D019
:1004A000CDB7DEB79A8389834B835C836D837E836C
:1004B0008B819C81AD81BE81E981FA8126E0AC010E
:1004C000BD01CF010E942A0126960FB6F894DEBF27
:1004D0000FBECDBFDF91CF910895FB0101900020A9
:1004E000E9F73197AF01461B570BDC01ED91FC9109
:1004F0000280F381E02D19940F931F93CF93DF9324
:100500008C01D0E0C0E06115710519F00E946D0208
:10051000EC0168E272E0C8010E946D028C0F9D1F21
:10052000DF91CF911F910F9108951F920F920FB6F7
:100530000F9211242F933F938F939F93AF93BF9369
:100540008091160390911703A0911803B09119039D
:100550003091150323E0230F2D3758F50196A11D87
:10056000B11D209315038093160390931703A09356
:100570001803B09319038091110390911203A09175
:100580001303B09114030196A11DB11D80931103B3
:1005900090931203A0931303B0931403BF91AF91F0
:1005A0009F918F913F912F910F900FBE0F901F90B1
:1005B000189526E8230F0296A11DB11DD2CF1F92D8
:1005C0000F920FB60F9211240BB60F922F933F93F9
:1005D0004F935F936F937F938F939F93AF93BF934B
:1005E000EF93FF9384E792E00E948C01FF91EF91DB
:1005F000BF91AF919F918F917F916F915F914F913B
:100600003F912F910F900BBE0F900FBE0F901F9038
:1006100018951F920F920FB60F9211240BB60F92DE
:100620002F938F939F93EF93FF93E0918402F09128
:1006300085028081E0918A02F0918B0282FD1DC0CB
:10064000908180918D028F5F8F7320918E0282172F
:1006500041F0E0918D02F0E0EC58FD4F958F8093D2
:100660008D02FF91EF919F918F912F910F900BBE73
:100670000F900FBE0F901F9018958081F2CFCF93EF
:10068000DF93CDB7DEB7DF91CF910895CF93DF939E
:1006900000D01F921F92CDB7DEB728E4EBE2F2E064
:1006A000CE010196DC0101900D922A95E1F7CE0171
:1006B0000196BC0184E792E00E947C020F900F90AB
:1006C0000F900F900F90DF91CF910895CF93DF930C
:1006D000CDB7DEB740E855E260E070E084E792E035
:1006E0000E944C020E944603DF91CF910895E4E7F7
:1006F000F2E01382128288EE93E0A0E0B0E08483FF
:100700009583A683B7838AE192E09183808385EC09
:1007100090E09587848784EC90E09787868780ECCB
:1007200090E0918B808B81EC90E0938B828B82ECBC
:1007300090E0958B848B86EC90E0978B868B118E66
:10074000128E138E148E0895789484B5826084BDC1
:1007500084B5816084BD85B5826085BD85B58160C5
:1007600085BD80916E00816080936E001092810043
:1007700080918100826080938100809181008160FE
:1007800080938100809180008160809380008091BF
:10079000B10084608093B1008091B000816080934B
:1007A000B0008091910082608093910080919100CF
:1007B000816080939100809190008160809390008F
:1007C0008091A10082608093A1008091A10081604E
:1007D0008093A1008091A00081608093A00080910F
:1007E00021018260809321018091210181608093A9
:1007F00021018091200181608093200180917A0005
:10080000846080937A0080917A00826080937A007D
:1008100080917A00816080937A0080917A0080686C
:1008200080937A001092C1000E9466030E943F03E9
:100830000E941B02FBCFA1E21A2EAA1BBB1BFD01CB
:100840000DC0AA1FBB1FEE1FFF1FA217B307E407AF
:10085000F50720F0A21BB30BE40BF50B661F771F07
:10086000881F991F1A9469F76095709580959095E7
:100870009B01AC01BD01CF010895EE0FFF1F881F42
:0E0880008BBF0790F691E02D1994F894FFCFEE
:10088E00353332341415363738393A3B3C3D3E3F1A
:10089E0040414243444500000000AE01B600E30073
:1008AE00FB011401F20006010D0A004141414141D4
:1008BE00414141414141414141414141414141411A
:1008CE00414141414141414141414141414141410A
:1008DE0041414141414141414141414141414141FA
:1008EE0041414141414141414141414141414141EA
:0408FE004141000074
:00000001FF
