:100000000C9483000C94B4000C94B4000C94B400D1
:100010000C94B4000C94B4000C94B4000C94B40090
:100020000C94B4000C94B4000C94B4000C94B40080
:100030000C94B4000C94B4000C94B4000C94B40070
:100040000C94B4000C94B4000C94B4000C94B40060
:100050000C94B4000C94B4000C94B4000C941203EF
:100060000C94B4000C9486030C945C030C94B400C0
:100070000C94B4000C94B4000C94B4000C94B40030
:100080000C94B4000C94B4000C94B4000C94B40020
:100090000C94B4000C94B4000C94B4000C94B40010
:1000A0000C94B4000C94B4000C94B4000C94B40000
:1000B0000C94B4000C94B4000C94B4000C94B400F0
:1000C0000C94B4000C94B4000C94B4000C94B400E0
:1000D0000C94B4000C94B4000C94B4000C94B400D0
:1000E0000C94B4000C94FB010C94B6000C94AE017B
:1000F0000C9406010C9414010C94F0030C94F2007F
:100100000C94E300F00311241FBECFEFD1E2DEBF59
:10011000CDBF00E00CBF12E0A0E0B2E0E0E8F9E003
:1001200000E00BBF02C007900D92AC32B107D9F7C7
:1001300022E0ACE2B2E001C01D92A23DB207E1F7BD
:1001400010E0C3E8D0E000E006C021970109802F4D
:10015000FE010E94B604C238D10780E00807A9F763
:100160000E941D040C94BE040C940000AF92BF9238
:10017000CF92DF92EF92FF920F931F93CF93DF9373
:100180006C017B018B01040F151FEB015E01AE18A2
:10019000BF08C017D10759F06991D601ED91FC91C4
:1001A0000190F081E02DC6011995892B79F7C501E1
:1001B000DF91CF911F910F91FF90EF90DF90CF9043
:1001C000BF90AF900895FC01538D448D252F30E0F2
:1001D000842F90E0821B930B541710F0CF96089554
:1001E00001970895FC01918D828D981761F0A28D81
:1001F000AE0FBF2FB11D5D968C91928D9F5F9F7347
:10020000928F90E008958FEF9FEF0895FC01918DFC
:10021000828D981731F0828DE80FF11D858D90E069
:1002200008958FEF9FEF0895FC01918D228D892F06
:1002300090E0805C9F4F821B91098F7399270895EE
:100240008CE292E00E94140121E0892B09F420E065
:10025000822F0895CF92DF92EF92FF921F93CF9358
:10026000DF93EC016A017B01122FE889F98982E0B2
:100270008083C11481EED806E104F104A1F060E0AE
:1002800079E08DE390E0A70196010E94940421504B
:1002900031094109510956954795379527952115FB
:1002A00080E1380798F0E889F989108260E874E8FD
:1002B0008EE190E0A70196010E949404215031093B
:1002C000410951095695479537952795EC85FD8548
:1002D0003083EE85FF852083188EEC89FD8910839D
:1002E000EA89FB89808180618083EA89FB8980813A
:1002F00088608083EA89FB89808180688083EA89BD
:10030000FB8980818F7D8083DF91CF911F91FF904A
:10031000EF90DF90CF900895FC01A48DA80FB92F26
:10032000B11DA35ABF4F2C91848D90E001968F731D
:100330009927848FA689B7892C93A089B1898C913C
:10034000837080648C93938D848D981306C002888B
:10035000F389E02D80818F7D80830895EF92FF9255
:100360000F931F93CF93DF93EC0181E0888F9B8DD8
:100370008C8D98131AC0E889F989808185FF15C092
:100380009FB7F894EE89FF896083E889F9898081B5
:100390008370806480839FBF81E090E0DF91CF9184
:1003A0001F910F91FF90EF900895F62E0B8D10E0A6
:1003B0000F5F1F4F0F731127E02E8C8D8E110CC015
:1003C0000FB607FCFACFE889F989808185FFF5CF60
:1003D000CE010E948C01F1CFEB8DEC0FFD2FF11DB2
:1003E000E35AFF4FF0829FB7F8940B8FEA89FB899D
:1003F00080818062CFCFCF93DF93EC01888D8823FB
:10040000B9F0AA89BB89E889F9898C9185FD03C077
:10041000808186FD0DC00FB607FCF7CF8C9185FF5C
:10042000F2CF808185FFEDCFCE010E948C01E9CF14
:10043000DF91CF91089580E090E0892B29F00E9410
:10044000200181110E94000080E090E0892B49F09A
:1004500080E090E0892B29F00E94000081110E9429
:10046000000080E090E0892B49F080E090E0892B4B
:1004700029F00E94000081110E94000080E090E0BD
:10048000892B49F080E090E0892B29F00E94000040
:1004900081110C9400000895CF93DF9300D000D019
:1004A000CDB7DEB79A8389834B835C836D837E836C
:1004B0008B819C81AD81BE81E981FA8126E0AC010E
:1004C000BD01CF010E942A0126960FB6F894DEBF27
:1004D0000FBECDBFDF91CF910895FB0101900020A9
:1004E000E9F73197AF01461B570BDC01ED91FC9109
:1004F0000280F381E02D19948F929F92AF92BF9268
:10050000EF92FF920F931F93CF93DF93CDB7DEB798
:10051000A1970FB6F894DEBF0FBECDBF7C01FA01E4
:10052000CB0119A2223008F42AE08E010F5D1F4F83
:10053000822E912CB12CA12CBF01A50194010E9407
:100540009404F901CA016A300CF5605DD8016E931C
:100550008D01232B242B252B79F790E080E0109739
:1005600021F0BD01C7010E946D02A1960FB6F8945B
:10057000DEBF0FBECDBFDF91CF911F910F91FF90D6
:10058000EF90BF90AF909F908F900895695CDECF01
:10059000CF92DF92EF92FF920F931F93CF93DF934F
:1005A000EC014115510541F4E881F9810190F08198
:1005B000E02D19958C011FC06B01770FEE08FF0825
:1005C0004A30510541F52AE0F7FE26C0E881F9815D
:1005D0000190F081E02D6DE219958C01442755279B
:1005E000BA014C195D096E097F092AE0CE010E940B
:1005F0007C02080F191F68E272E0CE010E946D02B2
:10060000800F911FDF91CF911F910F91FF90EF907D
:10061000DF90CF900895242FB701A601CE010E944C
:100620007C02C8CF1F920F920FB60F9211242F9306
:100630003F938F939F93AF93BF938091CE029091FE
:10064000CF02A091D002B091D1023091CD0223E02F
:10065000230F2D3758F50196A11DB11D2093CD0212
:100660008093CE029093CF02A093D002B093D10298
:100670008091C9029091CA02A091CB02B091CC02A4
:100680000196A11DB11D8093C9029093CA02A09347
:10069000CB02B093CC02BF91AF919F918F913F91CC
:1006A0002F910F900FBE0F901F90189526E8230FE3
:1006B0000296A11DB11DD2CF1F920F920FB60F92BD
:1006C00011240BB60F922F933F934F935F936F9329
:1006D0007F938F939F93AF93BF93EF93FF938CE29E
:1006E00092E00E948C01FF91EF91BF91AF919F9199
:1006F0008F917F916F915F914F913F912F910F90CB
:100700000BBE0F900FBE0F901F9018951F920F9267
:100710000FB60F9211240BB60F922F938F939F93C6
:10072000EF93FF93E0913C02F0913D028081E091D4
:100730004202F091430282FD1DC0908180914502EA
:100740008F5F8F7320914602821741F0E09145023E
:10075000F0E0E45DFD4F958F80934502FF91EF91AE
:100760009F918F912F910F900BBE0F900FBE0F9006
:100770001F9018958081F2CFCF93DF93CDB7DEB76E
:10078000DF91CF910895CF93DF93CDB7DEB7649714
:100790000FB6F894DEBF0FBECDBF8B859C854AE0B7
:1007A00050E0BC018CE292E00E94C80264960FB651
:1007B000F894DEBF0FBECDBFDF91CF910895CF93E8
:1007C000DF93CDB7DEB740E855E260E070E08CE241
:1007D00092E00E944C020E94C303DF91CF910895E2
:1007E000ECE2F2E01382128288EE93E0A0E0B0E047
:1007F00084839583A683B7838AE192E09183808383
:1008000085EC90E09587848784EC90E097878687D5
:1008100080EC90E0918B808B81EC90E0938B828BCD
:1008200082EC90E0958B848B86EC90E0978B868BA6
:10083000118E128E138E148E0895789484B5826072
:1008400084BD84B5816084BD85B5826085BD85B574
:10085000816085BD80916E00816080936E001092F2
:10086000810080918100826080938100809181006D
:1008700081608093810080918000816080938000FE
:100880008091B10084608093B1008091B00081605C
:100890008093B0008091910082608093910080915C
:1008A000910081608093910080919000816080939D
:1008B00090008091A10082608093A1008091A100AE
:1008C00081608093A1008091A00081608093A0004E
:1008D00080912101826080932101809121018160BA
:1008E000809321018091200181608093200180917B
:1008F0007A00846080937A0080917A00826080938D
:100900007A0080917A00816080937A0080917A00E9
:10091000806880937A001092C1000E94DF030E94D9
:10092000BC030E941B02FBCFA1E21A2EAA1BBB1B19
:10093000FD010DC0AA1FBB1FEE1FFF1FA217B307AB
:10094000E407F50720F0A21BB30BE40BF50B661FC1
:10095000771F881F991F1A9469F760957095809585
:1009600090959B01AC01BD01CF010895EE0FFF1FD3
:10097000881F8BBF0790F691E02D1994F894FFCF54
:10098000353332341415363738393A3B3C3D3E3F27
:1009900040414243444500000000AE01B600E30080
:0C09A000FB011401F20006010D0A00002A
:00000001FF
