:100000000C94F1000C9414050C94E9040C94BE04B7
:100010000C9493040C9468040C943D040C94120406
:100020000C94E7030C9422010C9422010C942201FD
:100030000C9422010C9422010C9422010C942201B4
:100040000C9422010C9422010C9422010C942201A4
:100050000C9422010C9422010C9422010C943D0377
:100060000C9422010C94B1030C9487030C9422018C
:100070000C9422010C9422010C9422010C94220174
:100080000C9422010C9422010C9422010C94220164
:100090000C9422010C9422010C9422010C94220154
:1000A0000C9422010C9422010C9422010C94220144
:1000B0000C9422010C9422010C9422010C94220134
:1000C0000C9422010C9422010C9422010C94220124
:1000D0000C9422010C9422010C9422010C94220114
:1000E0000C9422010C94B0010C9435030C940A0278
:1000F0000C9457020C94A8020C9439030C94D2016E
:100100000C942D030C94B4050C94A1010C942903B8
:100110000C94C4010C9425030C9474010C943103C9
:1001200000002200250028002B002E0031003400A2
:1001300002010000050108010B010000210024005C
:1001400027002A002D0030003300010100000401C7
:1001500007010A0105050505070508080808020248
:1001600002020A0A08080404040401010101010151
:1001700001010303030303030303040707070C0C34
:100180000C0C0C0C0C0C02020202060606060606FB
:1001900006060B0B0B0B0B0B0B0B010210202008A0
:1001A00008102040102040800201020108040201D2
:1001B0000102040810204080804020100804020141
:1001C000800402018040201008040201080402019A
:1001D0000102040810204080010204081020408021
:1001E000B40511241FBECFEFD1E2DEBFCDBF00E0CA
:1001F0000CBF12E0A0E0B2E0E6EDFBE000E00BBFD8
:1002000002C007900D92A636B107D9F723E0A6E603
:10021000B2E001C01D92AC30B207E1F710E0C1EFCF
:10022000D0E000E006C021970109802FFE010E9466
:10023000E105C03FD10780E00807A9F70E943F050C
:100240000C94E9050C940000EFE6F2E0A089B18976
:1002500082E08C93A485B5851C92A685B7858FEC2A
:100260008C93108EA489B58986E08C93A289B3897A
:100270008C9180618C93A289B3898C9188608C93D6
:10028000A289B3898C9180688C930288F389E02DD0
:1002900080818F7D80830895CF93DF9390E0FC0170
:1002A000E656FE4F24918C5A9E4FFC018491882380
:1002B000C1F090E0880F991FFC01E65CFE4FC591EC
:1002C000D491FC01E05EFE4FA591B4919FB7F894E4
:1002D0003881822F809583238883EC91E22BEC93E5
:1002E0009FBFDF91CF910895AF92BF92CF92DF92DF
:1002F000EF92FF920F931F93CF93DF936C017B01DB
:100300008B01040F151FEB015E01AE18BF08C0176B
:10031000D10759F06991D601ED91FC910190F081DE
:10032000E02DC6011995892B79F7C501DF91CF9191
:100330001F910F91FF90EF90DF90CF90BF90AF9003
:100340000895FC01538D448D252F30E0842F90E0DB
:10035000821B930B541710F0CF96089501970895C0
:10036000FC01918D828D981761F0A28DAE0FBF2F89
:10037000B11D5D968C91928D9F5F9F73928F90E0DF
:1003800008958FEF9FEF0895FC01918D828D98174E
:1003900031F0828DE80FF11D858D90E008958FEF8B
:1003A0009FEF0895FC01918D228D892F90E0805C54
:1003B0009F4F821B91098F73992708958FE692E0D2
:1003C0000E94D20121E0892B09F420E0822F0895B8
:1003D000FC01A48DA80FB92FB11DA35ABF4F2C91BA
:1003E000848D90E001968F739927848FA689B789B1
:1003F0002C93A089B1898C91837080648C93938DA8
:10040000848D981306C00288F389E02D80818F7D4A
:1004100080830895EF92FF920F931F93CF93DF9302
:10042000EC0181E0888F9B8D8C8D98131AC0E88930
:10043000F989808185FF15C09FB7F894EE89FF89FF
:100440006083E889F98980818370806480839FBF9D
:1004500081E090E0DF91CF911F910F91FF90EF909D
:100460000895F62E0B8D10E00F5F1F4F0F731127AD
:10047000E02E8C8D8E110CC00FB607FCFACFE889E8
:10048000F989808185FFF5CFCE010E94E801F1CF87
:10049000EB8DEC0FFD2FF11DE35AFF4FF0829FB75C
:1004A000F8940B8FEA89FB8980818062CFCFCF934C
:1004B000DF93EC01888D8823B9F0AA89BB89E8898C
:1004C000F9898C9185FD03C0808186FD0DC00FB632
:1004D00007FCF7CF8C9185FFF2CF808185FFEDCFB0
:1004E000CE010E94E801E9CFDF91CF91089580E02D
:1004F00090E0892B29F00E94DE0181110E9400000A
:1005000080E090E0892B49F080E090E0892B29F091
:100510000E94000081110E94000080E090E0892B81
:1005200049F080E090E0892B29F00E9400008111C1
:100530000E94000080E090E0892B49F080E090E08C
:10054000892B29F00E94000081110C94000008956D
:100550000895089582E00E944C0183E00E944C01BE
:1005600082E10E944C0183E10E944C0184E10E94DF
:100570004C0185E10E944C01A0E0B2E089E393E0E8
:1005800011969C938E93EAE6F0E080818C7F8160E7
:100590008083EC9A85E393E013969C938E93129755
:1005A0008081837F84608083ED9A81E393E01B9652
:1005B0009C938E931A97E9E6F0E080818F738064B4
:1005C0008083EB9A8DE293E019969C938E93189713
:1005D00080818F7C80618083EA9A89E293E017961C
:1005E0009C938E9316978081837F84608083E99AA1
:1005F00085E293E015969C938E93149780818C7F6F
:1006000081608083E89A08950E9424010C94AA02D4
:10061000CF93DF93FC0101900020E9F73197AF0100
:10062000481B590BBC018FE692E00E947401EC015B
:1006300042E050E062E272E08FE692E00E947401D4
:100640008C0F9D1FDF91CF91089585E292E00C946D
:10065000080380E392E00C9408038BE392E00C948F
:10066000080386E492E00C94080381E592E00C9480
:1006700008038CE592E00C9408031F920F920FB6CA
:100680000F9211242F933F938F939F93AF93BF9318
:1006900080916B0290916C02A0916D02B0916E02FC
:1006A00030916A0223E0230F2D3758F50196A11DE2
:1006B000B11D20936A0280936B0290936C02A09309
:1006C0006D02B0936E028091660290916702A091D4
:1006D0006802B09169020196A11DB11D8093660266
:1006E00090936702A0936802B0936902BF91AF91A3
:1006F0009F918F913F912F910F900FBE0F901F9060
:10070000189526E8230F0296A11DB11DD2CF1F9286
:100710000F920FB60F9211240BB60F922F933F93A7
:100720004F935F936F937F938F939F93AF93BF93F9
:10073000EF93FF938FE692E00E94E801FF91EF9123
:10074000BF91AF919F918F917F916F915F914F91E9
:100750003F912F910F900BBE0F900FBE0F901F90E7
:1007600018951F920F920FB60F9211240BB60F928D
:100770002F938F939F93EF93FF93E0917F02F091DC
:1007800080028081E0918502F091860282FD1DC089
:100790009081809188028F5F8F73209189028217E8
:1007A00041F0E0918802F0E0E159FD4F958F809390
:1007B0008802FF91EF919F918F912F910F900BBE27
:1007C0000F900FBE0F901F9018958081F2CF1F924F
:1007D0000F920FB60F9211240BB60F922F933F93E7
:1007E0004F935F936F937F938F939F93AF93BF9339
:1007F000EF93FF93E0910E02F0910F021995FF9194
:10080000EF91BF91AF919F918F917F916F915F9188
:100810004F913F912F910F900BBE0F900FBE0F90F5
:100820001F9018951F920F920FB60F9211240BB6BE
:100830000F922F933F934F935F936F937F938F9379
:100840009F93AF93BF93EF93FF93E0910C02F091CE
:100850000D021995FF91EF91BF91AF919F918F91EB
:100860007F916F915F914F913F912F910F900BBEB0
:100870000F900FBE0F901F9018951F920F920FB6FA
:100880000F9211240BB60F922F933F934F935F93C8
:100890006F937F938F939F93AF93BF93EF93FF9348
:1008A000E0910202F09103021995FF91EF91BF913F
:1008B000AF919F918F917F916F915F914F913F91F8
:1008C0002F910F900BBE0F900FBE0F901F90189599
:1008D0001F920F920FB60F9211240BB60F922F9307
:1008E0003F934F935F936F937F938F939F93AF93B8
:1008F000BF93EF93FF93E0910002F09101021995ED
:10090000FF91EF91BF91AF919F918F917F916F91E7
:100910005F914F913F912F910F900BBE0F900FBEA3
:100920000F901F9018951F920F920FB60F921124DF
:100930000BB60F922F933F934F935F936F937F93D9
:100940008F939F93AF93BF93EF93FF93E0910A022E
:10095000F0910B021995FF91EF91BF91AF919F918B
:100960008F917F916F915F914F913F912F910F9058
:100970000BBE0F900FBE0F901F9018951F920F92F5
:100980000FB60F9211240BB60F922F933F934F93F4
:100990005F936F937F938F939F93AF93BF93EF93E7
:1009A000FF93E0910802F09109021995FF91EF91F0
:1009B000BF91AF919F918F917F916F915F914F9177
:1009C0003F912F910F900BBE0F900FBE0F901F9075
:1009D00018951F920F920FB60F9211240BB60F921B
:1009E0002F933F934F935F936F937F938F939F9337
:1009F000AF93BF93EF93FF93E0910602F09107024C
:100A00001995FF91EF91BF91AF919F918F917F9138
:100A10006F915F914F913F912F910F900BBE0F906F
:100A20000FBE0F901F9018951F920F920FB60F9246
:100A300011240BB60F922F933F934F935F936F93B5
:100A40007F938F939F93AF93BF93EF93FF93E09127
:100A50000402F09105021995FF91EF91BF91AF91BA
:100A60009F918F917F916F915F914F913F912F91C6
:100A70000F900BBE0F900FBE0F901F90189578949B
:100A800084B5826084BD84B5816084BD85B5826093
:100A900085BD85B5816085BD80916E008160809344
:100AA0006E001092810080918100826080938100AD
:100AB00080918100816080938100809180008160BD
:100AC000809380008091B10084608093B100809118
:100AD000B00081608093B00080919100826080932B
:100AE00091008091910081608093910080919000AD
:100AF0008160809390008091A10082608093A1002A
:100B00008091A10081608093A1008091A00081600C
:100B10008093A000809121018260809321018091C7
:100B20002101816080932101809120018160809367
:100B3000200180917A00846080937A0080917A000D
:100B4000826080937A0080917A00816080937A003D
:100B500080917A00806880937A001092C1000E9490
:100B600004030E947702FDCFEFE6F2E013821282C7
:100B700088EE93E0A0E0B0E084839583A683B783FA
:100B800084E192E09183808385EC90E0958784876F
:100B900084EC90E09787868780EC90E0918B808B47
:100BA00081EC90E0938B828B82EC90E0958B848B30
:100BB00086EC90E0978B868B118E128E138E148E9E
:100BC0000895EE0FFF1F881F8BBF0790F691E02D51
:060BD0001994F894FFCF18
:100BD600A802A802A802A802A802A802A802A802BF
:100BE600000000000A027401A1015702D201B001FF
:100BF600C4010D0A00747269676765726564360020
:100C060074726967676572656435007472696767CF
:100C1600657265643400747269676765726564330A
:100C26000074726967676572656432007472696719
:060C3600676572656400B1
:00000001FF
