:100000000C94F5000C94A2050C9477050C944C0507
:100010000C9421050C94F6040C94CB040C94A004CD
:100020000C9475040C9426010C9426010C94260162
:100030000C9426010C9426010C9426010C942601A4
:100040000C9426010C9426010C9426010C94260194
:100050000C9426010C9426010C9426010C94CB03DD
:100060000C9426010C943F040C9415040C94260166
:100070000C9426010C9426010C9426010C94260164
:100080000C9426010C9426010C9426010C94260154
:100090000C9426010C9426010C9426010C94260144
:1000A0000C9426010C9426010C9426010C94260134
:1000B0000C9426010C9426010C9426010C94260124
:1000C0000C9426010C9426010C9426010C94260114
:1000D0000C9426010C9426010C9426010C94260104
:1000E0000C9426010C9418030C9467030C9464017F
:1000F0000C9486010C946D020C94F7050C94280165
:100100000C9420030C9439030C944E030C942C0390
:100110000C9478010C9455010C94BE030C94740358
:100120000C945A030C9420020000220025002800A1
:100130002B002E00310034000201000005010801EF
:100140000B0100002100240027002A002D003000B0
:10015000330001010000040107010A01050505053E
:10016000070508080808020202020A0A080804042F
:10017000040401010101010101010303030303035D
:100180000303040707070C0C0C0C0C0C0C0C0202EC
:10019000020206060606060606060B0B0B0B0B0BE9
:1001A0000B0B010210202008081020401020408076
:1001B000020102010804020101020408102040802B
:1001C00080402010080402018004020180402010B9
:1001D0000804020108040201010204081020408002
:1001E0000102040810204080F70511241FBECFEF44
:1001F000D1E2DEBFCDBF00E00CBF12E0A0E0B2E074
:10020000EEE8FDE000E00BBF02C007900D92A634BF
:10021000B107D9F722E0A6E4B2E001C01D92AC3EDE
:10022000B207E1F710E0C5EFD0E000E006C021978B
:100230000109802FFE010E94BD06C43FD10780E066
:100240000807A9F70E9424060C94C5060C94000028
:10025000AF92BF92CF92DF92EF92FF920F931F93D4
:10026000CF93DF936C017B018B01040F151FEB0112
:100270005E01AE18BF08C017D10759F06991D601C9
:10028000ED91FC910190F081E02DC6011995892B2B
:1002900079F7C501DF91CF911F910F91FF90EF90FA
:1002A000DF90CF90BF90AF900895FC01538D448DA7
:1002B000252F30E0842F90E0821B930B541710F011
:1002C000CF96089501970895FC01918D828D98171E
:1002D00061F0A28DAE0FBF2FB11D5D968C91928DF6
:1002E0009F5F9F73928F90E008958FEF9FEF089527
:1002F000FC01918D828D981731F0828DE80FF11DF0
:10030000858D90E008958FEF9FEF0895FC01918D0A
:10031000228D892F90E0805C9F4F821B91098F7303
:100320009927089586E492E00E94860121E0892BB6
:1003300009F420E0822F0895CF92DF92EF92FF928E
:100340001F93CF93DF93EC016A017B01122FE889A1
:10035000F98982E08083C11481EED806E104F104BA
:10036000A1F060E079E08DE390E0A70196010E94A2
:100370009B062150310941095109569547953795FA
:100380002795211580E1380798F0E889F9891082CE
:1003900060E874E88EE190E0A70196010E949B0658
:1003A00021503109410951095695479537952795AF
:1003B000EC85FD853083EE85FF852083188EEC89E2
:1003C000FD891083EA89FB89808180618083EA89C5
:1003D000FB89808188608083EA89FB8980818068CD
:1003E0008083EA89FB8980818F7D8083DF91CF9133
:1003F0001F91FF90EF90DF90CF900895FC01A48DA6
:10040000A80FB92FB11DA35ABF4F2C91848D90E036
:1004100001968F739927848FA689B7892C93A08919
:10042000B1898C91837080648C93938D848D9813A3
:1004300006C00288F389E02D80818F7D8083089536
:10044000EF92FF920F931F93CF93DF93EC0181E024
:10045000888F9B8D8C8D98131AC0E889F9898081CB
:1004600085FF15C09FB7F894EE89FF896083E889FE
:10047000F98980818370806480839FBF81E090E0F0
:10048000DF91CF911F910F91FF90EF900895F62E7D
:100490000B8D10E00F5F1F4F0F731127E02E8C8D17
:1004A0008E110CC00FB607FCFACFE889F98980815C
:1004B00085FFF5CFCE010E94FE01F1CFEB8DEC0F51
:1004C000FD2FF11DE35AFF4FF0829FB7F8940B8F79
:1004D000EA89FB8980818062CFCFCF93DF93EC01E3
:1004E000888D8823B9F0AA89BB89E889F9898C911C
:1004F00085FD03C0808186FD0DC00FB607FCF7CFD8
:100500008C9185FFF2CF808185FFEDCFCE010E94D7
:10051000FE01E9CFDF91CF91089580E090E0892B33
:1005200029F00E94920181110E94000080E090E079
:10053000892B49F080E090E0892B29F00E9400008F
:1005400081110E94000080E090E0892B49F080E05A
:1005500090E0892B29F00E94000081110E94000088
:1005600080E090E0892B49F080E090E0892B29F031
:100570000E94000081110C9400000895CF93DF9336
:1005800090E0FC01EE55FE4F2491845A9E4FFC01F1
:1005900084918823C9F090E0880F991FFC01EE5BDD
:1005A000FE4FA591B491FC01E85DFE4FC591D49139
:1005B00061110DC09FB7F8948C91209582238C9384
:1005C0008881282328839FBFDF91CF9108956230CF
:1005D00051F49FB7F8943C91822F809583238C939C
:1005E000E8812E2BEFCF8FB7F894EC912E2B2C9324
:1005F0008FBFEACF883008F076C0E82FF0E0EE0F2A
:10060000FF1FE050FE4F718360838150873008F0F8
:100610003DC0E82FF0E08827EF5EFC4F8F4F0C9431
:10062000BD064E03180320032C0339035A03670346
:10063000809169008C7F482B40936900E89A089567
:1006400080916900837F440F551F440F551F482B2D
:1006500040936900E99A0895809169008F7C74E065
:10066000440F551F7A95E1F7482B40936900EA9AA9
:100670000895809169008F7366E0440F551F6A9555
:10068000E1F7482B40936900EB9A089580916A0046
:100690008C7F482B40936A00EC9A089580916A0001
:1006A000837F440F551F440F551F482B40936A000A
:1006B000ED9A089580916A008F7C24E0440F551FC5
:1006C0002A95E1F7482B40936A00EE9A08958091AD
:1006D0006A008F7396E0440F551F9A95E1F7482BF7
:1006E00040936A00EF9A08950895CF93DF9300D066
:1006F00000D0CDB7DEB79A8389834B835C836D834B
:100700007E838B819C81AD81BE81E981FA8126E067
:10071000AC01BD01CF010E949C0126960FB6F89452
:10072000DEBF0FBECDBFDF91CF910895FB010190D9
:100730000020E9F73197AF01461B570BDC01ED9123
:10074000FC910280F381E02D19940F931F93CF93B6
:10075000DF938C01D0E0C0E06115710519F00E94B3
:100760009603EC0168E372E0C8010E9496038C0FC7
:100770009D1FDF91CF911F910F910895CF93DF932C
:10078000CDB7DEB76BE372E086E492E00E94A5038A
:10079000DF91CF9108951F920F920FB60F921124FF
:1007A0002F933F938F939F93AF93BF938091E802D2
:1007B0009091E902A091EA02B091EB023091E70238
:1007C00023E0230F2D3758F50196A11DB11D20936D
:1007D000E7028093E8029093E902A093EA02B093C3
:1007E000EB028091E3029091E402A091E502B091C6
:1007F000E6020196A11DB11D8093E3029093E402ED
:10080000A093E502B093E602BF91AF919F918F91C3
:100810003F912F910F900FBE0F901F90189526E8D3
:10082000230F0296A11DB11DD2CF1F920F920FB6BA
:100830000F9211240BB60F922F933F934F935F9318
:100840006F937F938F939F93AF93BF93EF93FF9398
:1008500086E492E00E94FE01FF91EF91BF91AF917B
:100860009F918F917F916F915F914F913F912F91C8
:100870000F900BBE0F900FBE0F901F9018951F92F8
:100880000F920FB60F9211240BB60F922F938F93E6
:100890009F93EF93FF93E0915602F091570280816E
:1008A000E0915C02F0915D0282FD1DC0908180911B
:1008B0005F028F5F8F7320916002821741F0E09199
:1008C0005F02F0E0EA5BFD4F958F80935F02FF913E
:1008D000EF919F918F912F910F900BBE0F900FBEB4
:1008E0000F901F9018958081F2CF1F920F920FB634
:1008F0000F9211240BB60F922F933F934F935F9358
:100900006F937F938F939F93AF93BF93EF93FF93D7
:10091000E0910E02F0910F021995FF91EF91BF91B6
:10092000AF919F918F917F916F915F914F913F9187
:100930002F910F900BBE0F900FBE0F901F90189528
:100940001F920F920FB60F9211240BB60F922F9396
:100950003F934F935F936F937F938F939F93AF9347
:10096000BF93EF93FF93E0910C02F0910D02199564
:10097000FF91EF91BF91AF919F918F917F916F9177
:100980005F914F913F912F910F900BBE0F900FBE33
:100990000F901F9018951F920F920FB60F9211246F
:1009A0000BB60F922F933F934F935F936F937F9369
:1009B0008F939F93AF93BF93EF93FF93E0910202C6
:1009C000F09103021995FF91EF91BF91AF919F9123
:1009D0008F917F916F915F914F913F912F910F90E8
:1009E0000BBE0F900FBE0F901F9018951F920F9285
:1009F0000FB60F9211240BB60F922F933F934F9384
:100A00005F936F937F938F939F93AF93BF93EF9376
:100A1000FF93E0910002F09101021995FF91EF918F
:100A2000BF91AF919F918F917F916F915F914F9106
:100A30003F912F910F900BBE0F900FBE0F901F9004
:100A400018951F920F920FB60F9211240BB60F92AA
:100A50002F933F934F935F936F937F938F939F93C6
:100A6000AF93BF93EF93FF93E0910A02F0910B02D3
:100A70001995FF91EF91BF91AF919F918F917F91C8
:100A80006F915F914F913F912F910F900BBE0F90FF
:100A90000FBE0F901F9018951F920F920FB60F92D6
:100AA00011240BB60F922F933F934F935F936F9345
:100AB0007F938F939F93AF93BF93EF93FF93E091B7
:100AC0000802F09109021995FF91EF91BF91AF9142
:100AD0009F918F917F916F915F914F913F912F9156
:100AE0000F900BBE0F900FBE0F901F9018951F9286
:100AF0000F920FB60F9211240BB60F922F933F93C4
:100B00004F935F936F937F938F939F93AF93BF9315
:100B1000EF93FF93E0910602F09107021995FF9180
:100B2000EF91BF91AF919F918F917F916F915F9165
:100B30004F913F912F910F900BBE0F900FBE0F90D2
:100B40001F9018951F920F920FB60F9211240BB69B
:100B50000F922F933F934F935F936F937F938F9356
:100B60009F93AF93BF93EF93FF93E0910402F091B3
:100B700005021995FF91EF91BF91AF919F918F91D0
:100B80007F916F915F914F913F912F910F900BBE8D
:100B90000F900FBE0F901F901895CF93DF93CDB796
:100BA000DEB7DF91CF910895CF93DF93CDB7DEB756
:100BB00062E082E00E94BE0241E050E06EEB73E032
:100BC00080E00E94FA02DF91CF910895CF93DF93E6
:100BD000CDB7DEB740E855E260E070E086E492E031
:100BE0000E9475030E94D405DF91CF910895E6E439
:100BF000F2E01382128288EE93E0A0E0B0E08483FA
:100C00009583A683B7838AE292E09183808385EC03
:100C100090E09587848784EC90E09787868780ECC6
:100C200090E0918B808B81EC90E0938B828B82ECB7
:100C300090E0958B848B86EC90E0978B868B118E61
:100C4000128E138E148E0895789484B5826084BDBC
:100C500084B5816084BD85B5826085BD85B58160C0
:100C600085BD80916E00816080936E00109281003E
:100C700080918100826080938100809181008160F9
:100C800080938100809180008160809380008091BA
:100C9000B10084608093B1008091B0008160809346
:100CA000B0008091910082608093910080919100CA
:100CB000816080939100809190008160809390008A
:100CC0008091A10082608093A1008091A100816049
:100CD0008093A1008091A00081608093A00080910A
:100CE00021018260809321018091210181608093A4
:100CF00021018091200181608093200180917A0000
:100D0000846080937A0080917A00826080937A0078
:100D100080917A00816080937A0080917A00806867
:100D200080937A001092C1000E94E6050E94CD05D2
:100D30000E948D02FBCFA1E21A2EAA1BBB1BFD0154
:100D40000DC0AA1FBB1FEE1FFF1FA217B307E407AA
:100D5000F50720F0A21BB30BE40BF50B661F771F02
:100D6000881F991F1A9469F76095709580959095E2
:100D70009B01AC01BD01CF010895EE0FFF1F881F3D
:0E0D80008BBF0790F691E02D1994F894FFCFE9
:100D8E00740374037403740374037403740374039D
:100D9E00353332341415363738393A3B3C3D3E3F05
:100DAE004041424344450000000020022801550105
:100DBE006D028601640178010D0A0074726967671D
:060DCE006572656400007F
:00000001FF
