:020000040000FA
:100000000C949D000C94CE000C94CE000C94CE0069
:100010000C94CE000C94CE000C94CE000C94CE0028
:100020000C94CE000C94CE000C94CE000C94CE0018
:100030000C94CE000C94CE000C94CE000C94CE0008
:100040000C94CE000C94CE000C94CE000C94CE00F8
:100050000C94CE000C94CE000C94CE000C94351B66
:100060000C94CE000C94FF1A0C94D51A0C94CE006C
:100070000C94CE000C94CE000C94CE000C94CE00C8
:100080000C94CE000C94CE000C94CE000C94CE00B8
:100090000C94CE000C94CE000C94CE000C94CE00A8
:1000A0000C94CE000C94CE000C94CE000C94CE0098
:1000B0000C94CE000C94CE000C94CE000C94CE0088
:1000C0000C94CE000C94CE000C94CE000C94CE0078
:1000D0000C94CE000C94CE000C94CE000C94CE0068
:1000E0000C94CE000C9413090C9420010C942E0156
:1000F0000C940C010C94231C0C94FD000C94150220
:100100000C94D0000C94C801000020410000C842AB
:1001100000401C4620BCBE4CCA1B0E5AAEC59D7486
:10012000CDCCCC3D0AD7233C17B7D13877CC2B3276
:100130009595E6241FB14F0A231C11241FBECFEF53
:10014000D1E2DEBFCDBF00E00CBF1DE0A0E0B2E019
:10015000E8E3FEE300E00BBF02C007900D92AA3F68
:10016000B107D9F72EE0AAEFBDE001C01D92A43A75
:10017000B207E1F710E0CDE9D0E000E006C021973A
:100180000109802FFE010E94E41DCC39D10780E0D7
:100190000807A9F70E94501C0C941A1F0C94000029
:1001A000AF92BF92CF92DF92EF92FF920F931F9385
:1001B000CF93DF936C017B018B01040F151FEB01C3
:1001C0005E01AE18BF08C017D10759F06991D6017A
:1001D000ED91FC910190F081E02DC6011995892BDC
:1001E00079F7C501DF91CF911F910F91FF90EF90AB
:1001F000DF90CF90BF90AF900895FC01538D448D58
:10020000252F30E0842F90E0821B930B541710F0C1
:10021000CF96089501970895FC01918D828D9817CE
:1002200061F0A28DAE0FBF2FB11D5D968C91928DA6
:100230009F5F9F73928F90E008958FEF9FEF0895D7
:10024000FC01918D828D981731F0828DE80FF11DA0
:10025000858D90E008958FEF9FEF0895FC01918DBB
:10026000228D892F90E0805C9F4F821B91098F73B4
:100270009927089583E09EE00E942E0121E0892BBA
:1002800009F420E0822F0895CF92DF92EF92FF923F
:100290001F93CF93DF93EC016A017B01122FE88952
:1002A000F98982E08083C11481EED806E104F1046B
:1002B000A1F060E079E08DE390E0A70196010E9453
:1002C000C21D21503109410951095695479537956D
:1002D0002795211580E1380798F0E889F98910827F
:1002E00060E874E88EE190E0A70196010E94C21DCB
:1002F0002150310941095109569547953795279560
:10030000EC85FD853083EE85FF852083188EEC8992
:10031000FD891083EA89FB89808180618083EA8975
:10032000FB89808188608083EA89FB89808180687D
:100330008083EA89FB8980818F7D8083DF91CF91E3
:100340001F91FF90EF90DF90CF900895FC01A48D56
:10035000A80FB92FB11DA35ABF4F2C91848D90E0E7
:1003600001968F739927848FA689B7892C93A089CA
:10037000B1898C91837080648C93938D848D981354
:1003800006C00288F389E02D80818F7D80830895E7
:10039000EF92FF920F931F93CF93DF93EC0181E0D5
:1003A000888F9B8D8C8D98131AC0E889F98980817C
:1003B00085FF15C09FB7F894EE89FF896083E889AF
:1003C000F98980818370806480839FBF81E090E0A1
:1003D000DF91CF911F910F91FF90EF900895F62E2E
:1003E0000B8D10E00F5F1F4F0F731127E02E8C8DC8
:1003F0008E110CC00FB607FCFACFE889F98980810D
:1004000085FFF5CFCE010E94A601F1CFEB8DEC0F59
:10041000FD2FF11DE35AFF4FF0829FB7F8940B8F29
:10042000EA89FB8980818062CFCFCF93DF93EC0193
:10043000888D8823B9F0AA89BB89E889F9898C91CC
:1004400085FD03C0808186FD0DC00FB607FCF7CF88
:100450008C9185FFF2CF808185FFEDCFCE010E9488
:10046000A601E9CFDF91CF91089580E090E0892B3C
:1004700029F00E943A0181110E94000080E090E082
:10048000892B49F080E090E0892B29F00E94000040
:1004900081110E94000080E090E0892B49F080E00B
:1004A00090E0892B29F00E94000081110E94000039
:1004B00080E090E0892B49F080E090E0892B29F0E2
:1004C0000E94000081110C94000008953FB7F89439
:1004D0008091FF0D9091000EA091010EB091020E3F
:1004E00026B5A89B05C02F3F19F00196A11DB11D8F
:1004F0003FBFBA2FA92F982F8827BC01CD01620FCB
:10050000711D811D911D42E0660F771F881F991F85
:100510004A95D1F708958F929F92AF92BF92CF9252
:10052000DF92EF92FF926B017C010E9466024B0109
:100530005C01C114D104E104F104B9F00E94660227
:10054000681979098A099B09683E734081059105FC
:1005500080F321E0C21AD108E108F10888EE880E84
:1005600083E0981EA11CB11CE4CFFF90EF90DF90B8
:10057000CF90BF90AF909F908F900895CF93DF93CF
:100580001F92CDB7DEB78983898181341CF48981BC
:10059000805305C089818F7D8983898187530F901E
:1005A000DF91CF910895CF93DF931F921F92CDB724
:1005B000DEB79A83898389819A81FC012081318108
:1005C00089819A81FC01828193812817390790F4EF
:1005D00089819A81FC0180819181AC014F5F5F4FDD
:1005E00029813A81F90151834083FC018081882F60
:1005F00090E002C08FEF9FEF0F900F90DF91CF91AF
:100600000895CF93DF9300D0CDB7DEB789836A8397
:100610004B839A818981891734F099818B8189175D
:1006200014F081E001C080E00F900F900F90DF91F7
:10063000CF910895CF93DF931F92CDB7DEB7898313
:100640008981873219F08981823211F481E001C0F9
:1006500080E00F90DF91CF910895CF93DF9300D08A
:100660001F92CDB7DEB79C838B838B819C810E94C8
:10067000D3029A83898389819A81992314F480E033
:1006800090E0282F8B819C81FC0124838B819C81AD
:1006900021E0FC0125830F900F900F900F90DF91C8
:1006A000CF910895CF93DF931F921F92CDB7DEB7FE
:1006B0009A83898389819A81FC0115820F900F901A
:1006C000DF91CF910895CF93DF931F92CDB7DEB71F
:1006D000898349E360E389810E9401038823B9F497
:1006E0004AE76FE589810E940103882381F44AE586
:1006F00061E489810E940103882349F489818B3256
:1007000031F089818D3219F089818E3211F481E0C6
:1007100001C080E00F90DF91CF910895CF93DF93D8
:1007200000D01F92CDB7DEB79A8389837C836B8319
:10073000822F0F900F900F900F90DF91CF9108951F
:10074000CF93DF9300D01F92CDB7DEB79A83898312
:100750007C836B83822F0F900F900F900F90DF910F
:10076000CF910895CF93DF931F921F92CDB7DEB73D
:100770009A83898389819A8105960E9452030F90FA
:100780000F90DF91CF910895CF93DF9300D01F9208
:10079000CDB7DEB79C838B838B819C8105969A8332
:1007A000898389819A81FC01958181E08927882349
:1007B00021F089819A810E942D0389819A81FC010F
:1007C00084810F900F900F900F90DF91CF9108953B
:1007D000CF93DF9300D0CDB7DEB79A8389836B8345
:1007E00089819A810E94C403282F81E09B819217FE
:1007F00009F480E0882311F080E005C089819A81A6
:100800000E94B20381E00F900F900F90DF91CF9183
:100810000895CF93DF9300D0CDB7DEB79B838A8353
:100820008A819B810E94C403898389810E9463031A
:10083000882351F08A819B810E94B2038A819B8127
:100840000E94C4038983F1CF81E00F900F900F9035
:10085000DF91CF910895CF93DF9300D000D0CDB733
:10086000DEB79A8389834B835C836D837E83298182
:100870003A818B819C81AD81BE81F9018083918316
:10088000A283B38389819A81FC01158226960FB6D3
:10089000F894DEBF0FBECDBFDF91CF910895CF9307
:1008A000DF931F921F92CDB7DEB79A838983898128
:1008B0009A81FC018481082E000C990B0F900F90F7
:1008C000DF91CF910895CF93DF9300D000D0CDB7C3
:1008D000DEB79A8389837C836B835E834D838981B2
:1008E0009A812B813C81FC013183208389819A810B
:1008F0002D813E81FC013383228326960FB6F89426
:10090000DEBF0FBECDBFDF91CF910895CF93DF93B0
:1009100000D000D0CDB7DEB79A8389837C836B8308
:100920005E834D83E981FA812B813C818D819E819B
:10093000280F391F8B819C81A901BC01CF010E9426
:10094000630426960FB6F894DEBF0FBECDBFDF91CD
:10095000CF910895CF93DF9300D000D01F921F92C4
:10096000CDB7DEB798878F838F8198859A838983E7
:1009700089819A819C01F90185919591A591B49104
:100980009F018B839C83AD83BE833A8329838B81B4
:100990009C81AD81BE81BC01CD0128960FB6F89433
:1009A000DEBF0FBECDBFDF91CF910895CF93DF9310
:1009B00000D000D01F921F92CDB7DEB76D837E832B
:1009C0008F8398878D819E81AF81B88589839A8333
:1009D000AB83BC8389819A81AB81BC81BC01CD0191
:1009E00028960FB6F894DEBF0FBECDBFDF91CF9132
:1009F0000895CF93DF9300D0CDB7DEB79A83898374
:100A00006B830F900F900F90DF91CF910895CF934C
:100A1000DF931F921F92CDB7DEB79A8389838981B6
:100A20009A81880F991F880F991F805E9E4F0E94A0
:100A3000AA04DC01CB01BC01CD010F900F90DF9126
:100A4000CF910895CF93DF931F921F92CDB7DEB75A
:100A50009A83898389819A81880F991F880F991FAA
:100A6000885F9E4F0E94AA04DC01CB01BC01CD012E
:100A70000F900F90DF91CF910895CF93DF9300D027
:100A80001F92CDB7DEB769837A838B839C8389817C
:100A90009A81AB81BC81BC01CD010E94D604DC01EE
:100AA000CB01BC01CD010F900F900F900F90DF9103
:100AB000CF910895CF93DF9300D000D01F921F9263
:100AC000CDB7DEB76B837C838D839E8358874F833E
:100AD0008F819885181619065CF519828F81988583
:100AE000892B09F456C08F81988581709927892BAD
:100AF000A9F08981882F90E00E942205DC01CB01BA
:100B00009C01AD016B817C818D819E810E94041DC1
:100B1000DC01CB018B839C83AD83BE838F81988561
:100B20009595879598878F8389818F5F8983D6CFA5
:100B30008F81988591958195910998878F831A82E5
:100B40008F819885892B29F18F81988581709927CC
:100B5000892BA9F08A81882F90E00E940705DC018B
:100B6000CB019C01AD016B817C818D819E810E94B6
:100B7000041DDC01CB018B839C83AD83BE838F81FD
:100B800098859595879598878F838A818F5F8A83CB
:100B9000D7CF8B819C81AD81BE81BC01CD012896D0
:100BA0000FB6F894DEBF0FBECDBFDF91CF91089591
:100BB000CF93DF93CDB7DEB760E070E080E89FE7CA
:100BC0000E943D05DC01CB01BC01CD01DF91CF913D
:100BD0000895CF93DF931F921F92CDB7DEB79A830C
:100BE000898389819A81FC0182819381A481B58165
:100BF000BC01CD010F900F90DF91CF910895CF935D
:100C0000DF931F921F92CDB7DEB79A8389838981C4
:100C10009A81FC01118210820F900F90DF91CF9189
:100C20000895CF93DF931F921F92CDB7DEB79A83BB
:100C3000898389819A8181159C4D38F089819A81B7
:100C40008115904E10F481E001C080E00F900F906C
:100C5000DF91CF910895CF93DF931F921F92CDB76D
:100C6000DEB79A83898389819A818115984D38F0FE
:100C700089819A8181159C4D10F481E001C080E04A
:100C80000F900F90DF91CF910895CF93DF9300D015
:100C90001F92CDB7DEB79A8389837C836B838B8168
:100CA0009C810E942B06882359F08B819C819C019A
:100CB000337089819A81FC013183208380E02FC0C9
:100CC0008B819C810E9411068823E1F089819A81A1
:100CD000FC01808191819C01322F2227330F330F39
:100CE0008B819C819370822B932BCC01A0E0B0E090
:100CF000119629813A81F90182839383A483B58374
:100D000081E00DC08B819C81CC01A0E0B0E0298105
:100D10003A81F90182839383A483B58381E00F90A4
:100D20000F900F900F90DF91CF910895CF93DF93A5
:100D30001F92CDB7DEB789838981882319F082E0BD
:100D400090E002C080E090E0845C9D4F0F90DF91C6
:100D5000CF910895CF93DF9300D0CDB7DEB78B83CB
:100D600080E00E9496069A83898389819A81FC019A
:100D70008081882311F480E013C089819A81FC016D
:100D800080819B81981731F489819A810196FC01B9
:100D9000808106C089819A8102969A838983E5CFF2
:100DA0000F900F900F90DF91CF910895CF93DF9325
:100DB0001F921F92CDB7DEB79A83898389819A816A
:100DC000FC01828193810F900F90DF91CF91089564
:100DD000CF93DF931F921F92CDB7DEB79A8389839B
:100DE00081E00F900F90DF91CF910895CF93DF9323
:100DF00000D0CDB7DEB79A8389836B8389819A81CE
:100E0000FC0180819181AC014F5F5F4F29813A8164
:100E1000F901518340832B81FC0120830F900F90B7
:100E20000F90DF91CF910895CF93DF93CDB7DEB7C9
:100E30002F970FB6F894DEBF0FBECDBF6A877B87B2
:100E40008C879D875F874E87CE0105969A8389831D
:100E500089819A819C012F5F3F4F3A832983FC014E
:100E600010828A859B85AC85BD8580389105A1055A
:100E7000B10558F489819A819C012F5F3F4F3A83D5
:100E800029832A85FC01208383C08A858F73482F9C
:100E9000406889819A819C012F5F3F4F3A83298363
:100EA000242FFC0120838A859B85AC85BD856894B1
:100EB00015F8B695A795979587951694D1F79C83C5
:100EC0008B838B819C81809770F48B81482F406C41
:100ED00089819A819C012F5F3F4F3A832983242F78
:100EE000FC01208355C08B818F73482F4068898116
:100EF0009A819C012F5F3F4F3A832983242FFC0165
:100F000020838B819C810024880F991F001C880FEF
:100F1000991F001C892F902D9C838B838B819C8132
:100F2000409770F48B81482F406E89819A819C0193
:100F30002F5F3F4F3A832983242FFC01208328C051
:100F40008B818F73482F406889819A819C012F5F24
:100F50003F4F3A832983242FFC0120838B819C817E
:100F60000024880F991F001C880F991F001C892FCF
:100F7000902D9C838B838B81482F406F89819A8130
:100F80009C012F5F3F4F3A832983242FFC0120834C
:100F900089819A8101979A83898389819A81FC0149
:100FA000908181E0992309F480E0882351F08981C0
:100FB0009A81FC0120818E859F85622F0E94F60612
:100FC000E7CF2F960FB6F894DEBF0FBECDBFDF91EF
:100FD000CF910895CF93DF931F921F92CDB7DEB7C5
:100FE0009A83898389819A81FC01828193810F9000
:100FF0000F90DF91CF910895CF93DF931F921F92AF
:10100000CDB7DEB79A83898389819A81FC012081DB
:10101000318189819A81FC01338322830F900F9063
:10102000DF91CF910895CF93DF9300D01F92CDB77A
:10103000DEB79A8389837C836B8389819A812B8134
:101040003C81FC01318320830F900F900F900F9013
:10105000DF91CF910895CF93DF9300D000D000D0DF
:101060001F92CDB7DEB79E838D8378876F835A87B3
:1010700049878D819E81BC01CE0101960E94130893
:1010800089819A81AB81BC81BC01CD012A960FB6C2
:10109000F894DEBF0FBECDBFDF91CF910895CF93FF
:1010A000DF931F921F92CDB7DEB79A838983898120
:1010B0009A81FC01908181E0992309F080E00F90F2
:1010C0000F90DF91CF910895CF93DF9300D0CDB7EC
:1010D000DEB79A8389836B8389819A812B81FC0196
:1010E00020830F900F900F90DF91CF910895CF93B1
:1010F000DF9300D0CDB7DEB79B838A838A819B8143
:10110000FC0180818150682FCE0101960E94640805
:1011100089810F900F900F90DF91CF910895CF9319
:10112000DF931F921F92CDB7DEB79A83898389819F
:101130009A812AE0FC0120830F900F90DF91CF91DC
:101140000895CF93DF931F921F92CDB7DEB79A8396
:10115000898381E00F900F90DF91CF910895CF9315
:10116000DF931F921F92CDB7DEB79A83898381E008
:101170000F900F90DF91CF910895CF93DF931F923F
:101180001F92CDB7DEB79A83898381E00F900F90CD
:10119000DF91CF910895CF93DF931F921F92CDB728
:1011A000DEB79A83898381E00F900F90DF91CF9112
:1011B0000895CF93DF931F921F92CDB7DEB79A8326
:1011C000898389819A81FC0180819181880F991F8F
:1011D000845E9D4FFC01808191810F900F90DF9183
:1011E000CF910895CF93DF931F921F92CDB7DEB7B3
:1011F0009A83898389819A81FC0180819181892BDD
:1012000029F420E030E040E050E004C023E139E080
:1012100040E050E0DA01C901BC01CD010F900F9010
:10122000DF91CF910895CF93DF931F921F92CDB797
:10123000DEB79A8389830F900F90DF91CF91089545
:10124000CF93DF9300D01F92CDB7DEB79A83898307
:101250007C836B8389819A812B813C81FC01318362
:1012600020830F900F900F900F90DF91CF910895F2
:10127000CF93DF9300D000D000D01F921F92CDB744
:10128000DEB7998788877B876A878A859B85FC017B
:101290001182108219828981843008F04FC08885BC
:1012A00099850E94C4038A838A81882389F4CE01A8
:1012B000069662E070E00E94200988859985835B2C
:1012C0009F4F2E813F81FC013183208380E037C016
:1012D0008A810E94BE028B838B81803188F0CE018F
:1012E000049663E070E00E94200988859985835BFD
:1012F0009F4F2C813D81FC013183208380E01FC002
:101300008A859B85FC01808191819C012295329583
:10131000307F3227207F32278B81882F90E0282B47
:10132000392B8A859B85FC013183208388859985AB
:101330000E94B20389818F5F8983ADCF81E02B96B4
:101340000FB6F894DEBF0FBECDBFDF91CF910895E9
:10135000CF93DF9300D000D01F92CDB7DEB79F832D
:101360008E838E819F810E94C403898389810E941C
:1013700063038823A1F08E819F810E94B2038E8136
:101380009F8169810E94F6068E819F810E94C4031D
:10139000898389810E946303882369F711C0CE0184
:1013A000049663E070E00E9420098E819F81835B38
:1013B0009F4F2C813D81FC013183208380E020C040
:1013C0008E819F8160E00E94F6068E819F810E943F
:1013D000E806982F81E08927882389F0CE010296BC
:1013E00064E070E00E9420098E819F81835B9F4FA3
:1013F0002A813B81FC013183208380E001C081E0B0
:1014000027960FB6F894DEBF0FBECDBFDF91CF9108
:1014100008950F931F93CF93DF93CDB7DEB76497F3
:101420000FB6F894DEBF0FBECDBF9C8B8B8BCE0169
:101430000B960E94FF058B899C890E94C4038A83B6
:101440008B899C890E94B2038B899C890E94C4036A
:1014500089838B899C890E94B20399818A8198171C
:1014600009F482C08981882389F4CE01099662E05B
:1014700070E00E9420098B899C89835B9F4F29859E
:101480003A85FC013183208380E08EC089818C35D0
:1014900009F062C08B899C890E94C4038983898179
:1014A000882389F4CE01079662E070E00E9420094B
:1014B0008B899C89835B9F4F2F813885FC01318309
:1014C000208380E071C08981853751F58B899C89A3
:1014D0000E94B2039E012F5E3F4F8B899C89B90108
:1014E0000E943809982F81E08927882311F080E035
:1014F0005BC029893A89CE010B96B9010E94450645
:10150000882381F10B891C89CE010B960E94E90585
:10151000DC01CB01A801BC01CD010E94140794CFCE
:1015200089810E94AA0689838981882389F4CE0152
:10153000059663E070E00E9420098B899C89835B9B
:101540009F4F2D813E81FC013183208380E02CC0A0
:101550008B899C890E94B2038B899C8969810E9436
:10156000F60672CF000070CF8B899C8960E00E94E4
:10157000F6068B899C890E94E806982F81E08927CE
:10158000882389F0CE01039664E070E00E94200970
:101590008B899C89835B9F4F2B813C81FC0131832C
:1015A000208380E001C081E064960FB6F894DEBF2E
:1015B0000FBECDBFDF91CF911F910F910895CF93B3
:1015C000DF931F921F92CDB7DEB79A8389838981FB
:1015D0009A810E94FC0789819A810E94C4030E941B
:1015E0001A03882329F089819A810E94090A04C07C
:1015F00089819A810E94A8090F900F90DF91CF9165
:101600000895CF93DF9300D000D0CDB7DEB79E838F
:101610008D838D819E810E94C40389838D819E81EB
:101620000E94B2038D819E810E94C4038A838D81B2
:101630009E810E94B2039A818981981739F18A812B
:10164000882389F4CE01039662E070E00E942009AD
:101650008D819E81835B9F4F2B813C81FC01318377
:10166000208380E014C08A818C35E1F68D819E81D3
:101670000E94C403982F81E0992309F480E0882315
:1016800089F28D819E810E94B203CCCF81E02696A3
:101690000FB6F894DEBF0FBECDBFDF91CF91089596
:1016A000CF93DF9300D01F92CDB7DEB79C838B839F
:1016B0008B819C810E94C403082E000C990B8B30F7
:1016C000910534F48930910524F5892B39F026C031
:1016D0008D309105F1F08097E1F020C08B819C81E5
:1016E000FC018481882319F082E090E002C081E04F
:1016F00090E0BC01CE0101960E9420098B819C8163
:10170000835B9F4F29813A81FC013183208380E0F4
:101710000BC08B819C810E94B203CACF8B819C81BC
:1017200021E0FC01248381E00F900F900F900F9037
:10173000DF91CF910895CF93DF9300D000D01F9217
:10174000CDB7DEB79E838D836F83CE0107960E944F
:101750004F08882389F0CE01039666E070E00E946E
:1017600020098D819E81835B9F4F2B813C81FC01F1
:101770003183208380E043C08D819E810E94B2032B
:10178000CE0107960E947708282F8D819E81622FB7
:101790000E94080C982F81E08927882311F080E0AF
:1017A0002EC08D819E810E94500B982F81E0892749
:1017B000882311F080E023C08D819E816DE50E9419
:1017C000E803882311F081E01AC08D819E816CE2CC
:1017D0000E94E803982F81E08927882389F263E03B
:1017E00070E0CE0101960E9420098D819E81835B6D
:1017F0009F4F29813A81FC013183208380E0279625
:101800000FB6F894DEBF0FBECDBFDF91CF91089524
:10181000CF93DF9300D0CDB7DEB79A8389836B83F4
:1018200089819A810E94500B982F81E08927882313
:1018300011F080E02CC089819A810E94C403082E97
:10184000000C990B87329105C9F0883291051CF480
:101850008297A1F018C08B35910521F08B37910547
:1018600039F011C089819A816B810E949B0B0FC056
:1018700089819A816B810E944D0C09C089819A816E
:101880000E94010B04C089819A810E9409040F9073
:101890000F900F90DF91CF910895CF93DF9300D0F9
:1018A00000D000D0CDB7DEB798878F836987CE018F
:1018B00009960E944F08882389F0CE01059666E0BC
:1018C00070E00E9420098F819885835B9F4F2D8156
:1018D0003E81FC013183208380E08FC08F81988519
:1018E0000E94B2038F8198850E94500B982F81E04F
:1018F0008927882311F080E080C08F8198856DE76B
:101900000E94E803882311F081E077C0CE01099698
:101910000E947708282F8F819885622F0E94080CDB
:10192000982F81E08927882311F080E066C08F819D
:1019300098850E94500B982F81E08927882311F009
:1019400080E05BC08F8198856AE30E94E803982F4E
:1019500081E08927882389F0CE01039663E070E057
:101960000E9420098F819885835B9F4F2B813C814A
:10197000FC013183208380E040C0CE0109960E94A3
:101980007708282F8F819885622F0E94080C982F46
:1019900081E08927882311F080E02FC08F8198850E
:1019A0000E94500B982F81E08927882311F080E056
:1019B00024C08F8198856DE70E94E803882311F089
:1019C00081E01BC08F8198856CE20E94E803982F0C
:1019D00081E08927882309F499CF63E070E0CE0184
:1019E00001960E9420098F819885835B9F4F2981F2
:1019F0003A81FC013183208380E029960FB6F89468
:101A0000DEBF0FBECDBFDF91CF910895EF92FF9261
:101A10000F931F93CF93DF93CDB7DEB72C970FB6FD
:101A2000F894DEBF0FBECDBF9A8389837C836B831E
:101A30002D833E834F835887E986FA860B871C8760
:101A400029813A8189859A85AB85BC85F901808396
:101A50009183A283B38389819A81FC011482898155
:101A60009A819C012B5F3F4F8D819E81AF81B8850C
:101A7000AC01BD01C9010E942B0489819A812B818F
:101A80003C81FC013487238789819A81835B9F4F46
:101A900060E070E00E9420092C960FB6F894DEBF3B
:101AA0000FBECDBFDF91CF911F910F91FF90EF90AF
:101AB0000895EF92FF920F931F93CF93DF93CDB7CB
:101AC000DEB72C970FB6F894DEBF0FBECDBF9A835A
:101AD00089837C836B832D833E834F835887E9867C
:101AE000FA860B871C8729853A854B855C858D8115
:101AF0009E81AF81B8856B817C81E981FA81790112
:101B00008A019C01AD01CF010E94060D89819A8155
:101B10002C960FB6F894DEBF0FBECDBFDF91CF91EC
:101B20001F910F91FF90EF900895CF93DF931F9235
:101B3000CDB7DEB78983898180332CF089818A33E0
:101B400014F481E001C080E00F90DF91CF910895FF
:101B5000CF93DF931F921F92CDB7DEB79A8389830D
:101B600089819A81FC011182108289819A81FC010C
:101B7000138212820F900F90DF91CF910895CF932F
:101B8000DF931F921F92CDB7DEB79A8389830F90A0
:101B90000F90DF91CF910895CF93DF931F921F9203
:101BA000CDB7DEB79A83898389819A8109960F9090
:101BB0000F90DF91CF910895CF93DF931F921F92E3
:101BC000CDB7DEB79A83898389819A810F900F9070
:101BD000DF91CF910895CF93DF931F921F92CDB7DE
:101BE000DEB79A83898389819A810F900F90DF9164
:101BF000CF910895CF93DF9300D0CDB7DEB79A830E
:101C000089836B8389819A81FC018481282F2078C4
:101C100089819A81FC01248389819A81FC019481C4
:101C20008B81292F282B89819A81FC0124830F9095
:101C30000F900F90DF91CF910895CF93DF931F9274
:101C40001F92CDB7DEB79A83898389819A81FC017F
:101C500084818F770F900F90DF91CF910895CF936C
:101C6000DF931F921F92CDB7DEB79A838983898154
:101C70009A8160E20E94FA0D89819A810E94A80DE2
:101C800089819A810F900F90DF91CF910895CF9322
:101C9000DF931F921F92CDB7DEB79A838983898124
:101CA0009A8160E40E94FA0D89819A810E94A80DB0
:101CB00089819A810F900F90DF91CF910895CF93F2
:101CC000DF9300D01F921F92CDB7DEB79A8389832E
:101CD0007C836B834D8389819A8164E00E94FA0D35
:101CE00089819A812B813C81FC01318320830F9073
:101CF0000F900F900F900F90DF91CF9108951F9349
:101D0000CF93DF9300D000D01F92CDB7DEB79D8375
:101D10008C837F836E838C819D810E94FC078C81E4
:101D20009D810E94090A982F81E08927882311F05C
:101D300080E00FC08C819D810E94EA079A8389838D
:101D400029813A818E819F81412FB9010E945F0EC6
:101D500081E027960FB6F894DEBF0FBECDBFDF91AE
:101D6000CF911F910895CF93DF931F921F92CDB70C
:101D7000DEB79A83898389819A8160E00E94FA0D97
:101D80000F900F90DF91CF910895EF92FF920F93F4
:101D90001F93CF93DF9300D000D000D01F921F92EB
:101DA000CDB7DEB79A838983EB82FC820D831E83D5
:101DB0002F83388749875A876B8789819A8129E0E1
:101DC000FE013396DC0101900D922A95E1F789819D
:101DD0009A8109960E94B30E2B960FB6F894DEBF37
:101DE0000FBECDBFDF91CF911F910F91FF90EF906C
:101DF0000895CF93DF9300D000D0CDB7DEB79A839C
:101E000089834B835C836D837E8389819A816AE0B9
:101E10000E94FA0D29813A818B819C81AD81BE811E
:101E2000F90180839183A283B38326960FB6F89439
:101E3000DEBF0FBECDBFDF91CF910895CF93DF936B
:101E400000D000D0CDB7DEB79A8389834B835C8303
:101E50006D837E8389819A8168E00E94FA0D2981D1
:101E60003A818B819C81AD81BE81F9018083918310
:101E7000A283B38326960FB6F894DEBF0FBECDBF04
:101E8000DF91CF910895CF93DF9300D000D0CDB7ED
:101E9000DEB79A8389834B835C836D837E838981DC
:101EA0009A816CE00E94FA0D29813A818B819C8194
:101EB000AD81BE81F90180839183A283B38326968D
:101EC0000FB6F894DEBF0FBECDBFDF91CF9108955E
:101ED0000F931F93CF93DF93CDB7DEB766970FB6FF
:101EE000F894DEBF0FBECDBF9C8B8B8B7E8B6D8B32
:101EF00019828B899C89FC018081082E000C990B2A
:101F00008B32910551F08D9769F481E089838B893B
:101F10009C8901969C8B8B8B05C08B899C89019633
:101F20009C8B8B8B8B899C89FC0180810E94950DF9
:101F3000982F81E08927882341F08B899C89FC01B7
:101F400080818E3211F081E001C080E0882311F0A1
:101F500080E0D9C11A821B821C821D821E828FEFF3
:101F60009FEFDC018A879B87AC87BD878B899C8923
:101F7000FC0180810E94950D882309F453C08B8950
:101F80009C89FC01808180538E878A819B81AC81F2
:101F9000BD818A399949A949B94108F043C02A81CC
:101FA0003B814C815D81DA01C901880F991FAA1F0D
:101FB000BB1F880F991FAA1FBB1F820F931FA41F4F
:101FC000B51F880F991FAA1FBB1F8A839B83AC83F1
:101FD000BD838E85882F90E0A0E0B0E0809590953D
:101FE000A095B0952A813B814C815D818217930732
:101FF000A407B507B8F08E85882F90E0A0E0B0E088
:102000002A813B814C815D81820F931FA41FB51FE4
:102010008A839B83AC83BD838B899C8901969C8B2F
:102020008B8BA4CF8B899C89FC0180818823E1F470
:102030008981882361F08A819B81AC81BD812D8952
:102040003E89AC01BD01C9010E94F90E0BC08A8115
:102050009B81AC81BD812D893E89AC01BD01C90147
:102060000E941E0F81E04FC18A819B81AC81BD819E
:102070000097A048B105B0F08A819B81AC81BD81F9
:102080002AE030E040E050E0BC01CD010E94C21DDA
:10209000DA01C9018A839B83AC83BD838E818F5F04
:1020A0008E83E2CF8B899C89FC0180810E94950DF3
:1020B000882349F08E818F5F8E838B899C8901965E
:1020C0009C8B8B8BEFCF8B899C89FC0180818E321E
:1020D00009F048C08B899C8901969C8B8B8B8B89DE
:1020E0009C89FC0180810E94950D8823D9F18A8109
:1020F0009B81AC81BD818C3C9C4CAC40B10560F5B2
:102100002A813B814C815D81DA01C901880F991FC9
:10211000AA1FBB1F880F991FAA1FBB1F820F931FE7
:10212000A41FB51F880F991FAA1FBB1F9C01AD01DB
:102130008B899C89FC0180818053882F90E0A0E0EE
:10214000B0E0820F931FA41FB51F8A839B83AC83CB
:10215000BD838E8181508E838B899C8901969C8B57
:102160008B8BBDCF18861F828B899C89FC01808157
:10217000853639F08B899C89FC018081853409F092
:1021800086C08B899C8901969C8B8B8B19868B8949
:102190009C89FC0180818D3241F481E089878B89A3
:1021A0009C8901969C8B8B8B0BC08B899C89FC0135
:1021B00080818B3229F48B899C8901969C8B8B8B37
:1021C0008B899C89FC0180810E94950D882309F4EC
:1021D00054C02F813885C901880F991F880F991F16
:1021E000820F931F880F991F9C018B899C89FC018A
:1021F0008081082E000C990BC097820F931F98873F
:102200008F838E81282F880F330B8F819885820FC3
:10221000931F879764F18985882399F089818823A2
:1022200029F080E090E0A0E0B0E803C080E090E01A
:10223000DC012D893E89AC01BD01C9010E94430F1B
:1022400014C08981882331F00E94D805DC01CB01BC
:10225000B05804C00E94D805DC01CB012D893E890D
:10226000AC01BD01C9010E94430F81E04CC08B89C4
:102270009C8901969C8B8B8BA3CF8985882339F011
:102280008F81988591958195910998878F838E810B
:10229000082E000C990B2F813885820F931F988789
:1022A0008F838B899C89FC018081882311F080E0D9
:1022B0002AC06A817B818C819D810E94C71C8B0111
:1022C0009C018F819885AC01C901B8010E945A0513
:1022D000DC01CB018F87988BA98BBA8B89818823EE
:1022E00031F08F859889A989BA89B05804C08F8543
:1022F0009889A989BA892D893E89AC01BD01C90196
:102300000E94430F81E066960FB6F894DEBF0FBEC1
:10231000CDBFDF91CF911F910F910895CF93DF93A0
:1023200000D0CDB7DEB79A8389836B8389819A8188
:1023300066E00E94FA0D8B81882F90E0A0E0B0E06B
:1023400029813A81F90180839183A283B3830F901D
:102350000F900F90DF91CF910895CF93DF93CDB77A
:10236000DEB72E970FB6F894DEBF0FBECDBF9C87A9
:102370008B877E876D8719828B859C850E94C4031D
:102380008A838A810E946303882329F089818F339D
:1023900010F481E001C080E08823C1F08B859C852A
:1023A0000E94B203898191E0980F9983882F90E071
:1023B0002B853C85820F931F0D962A81FC0120837B
:1023C0008B859C850E94C4038A83DBCF8981882FFB
:1023D00090E02B853C85820F931F0D96FC011082A7
:1023E0008B859C85FC0185858A838A818437D9F415
:1023F0008D859E8561E00E948E118981843089F0EF
:10240000CE01099662E070E00E9420098B859C85D0
:10241000835B9F4F29853A85FC013183208380E0CF
:1024200058C081E056C08A818636D9F48D859E8554
:1024300060E00E948E118981853089F0CE01079677
:1024400062E070E00E9420098B859C85835B9F4F32
:102450002F813885FC013183208380E03AC081E000
:1024600038C08A818E36B1F48981843089F0CE01FA
:10247000059662E070E00E9420098B859C85835B55
:102480009F4F2D813E81FC013183208380E021C05C
:1024900081E01FC08B859C850D962D853E85B901F9
:1024A0000E94680F982F81E08927882389F0CE0148
:1024B000039663E070E00E9420098B859C85835B16
:1024C0009F4F2B813C81FC013183208380E001C040
:1024D00081E02E960FB6F894DEBF0FBECDBFDF9120
:1024E000CF910895CF93DF931F921F92CDB7DEB7A0
:1024F0009A83898389819A810E941D0E8C3061F0B4
:1025000089819A810E941D0E883031F089819A81DB
:102510000E941D0E8A3011F481E001C080E00F900E
:102520000F90DF91CF910895CF93DF931F921F9269
:10253000CDB7DEB79A83898389819A810E9472120E
:10254000982F81E089270F900F90DF91CF91089508
:10255000CF93DF9300D01F92CDB7DEB79A838983E4
:102560007C836B8389819A812B813C81FC0131833F
:1025700020830F900F900F900F90DF91CF910895CF
:10258000CF93DF9300D01F92CDB7DEB79C838B83B0
:102590008B819C81BC01CE0101960E94A812898189
:1025A0009A810F900F900F900F90DF91CF91089527
:1025B000CF93DF9300D01F92CDB7DEB79A83898384
:1025C0007C836B8389819A81FC01228133818B8199
:1025D0009C81280F391F89819A81FC018481958112
:1025E00041E08217930708F440E0842F0F900F908A
:1025F0000F900F90DF91CF910895CF93DF9300D08C
:102600001F92CDB7DEB79A8389837C836B832B813E
:102610003C8189819A81B9010E94D812982F81E06A
:102620008927882341F089819A8121E0FC01208754
:1026300080E090E016C089819A81FC012481358177
:102640008B819C81919581959109280F391F8981F2
:102650009A81FC013583248389819A81FC018481DC
:1026600095810F900F900F900F90DF91CF9108956B
:10267000CF93DF931F921F92CDB7DEB79A838983E2
:1026800089819A8168E070E00E94FD120F900F909E
:10269000DF91CF910895CF93DF931F921F92CDB713
:1026A000DEB79A83898389819A81FC0120813181F7
:1026B00089819A81FC013383228389819A81FC017B
:1026C0002681378189819A81FC0135832483898120
:1026D0009A81FC0110860F900F90DF91CF910895A1
:1026E000CF93DF931F921F92CDB7DEB79A83898372
:1026F00089819A810E944B1389819A8109960E944F
:10270000B30E0F900F90DF91CF910895CF93DF9389
:102710001F921F92CDB7DEB79A83898389819A81F0
:102720000E9438130F900F90DF91CF910895CF93AF
:10273000DF931F921F92CDB7DEB79A838983898179
:102740009A81FC01808191810F900F90DF91CF9150
:102750000895CF93DF9300D000D0CDB7DEB79A8332
:1027600089837C836B835E834D8389819A812B81EE
:102770003C81FC013183208389819A812B813C81BA
:10278000FC01338322838B819C81892B39F02B813F
:102790003C818D819E81820F931F02C080E090E07A
:1027A00029813A81F901958384838B819C81892BCE
:1027B00039F02B813C818D819E81820F931F02C055
:1027C00080E090E029813A81F901978386838981AD
:1027D0009A81FC01108626960FB6F894DEBF0FBED4
:1027E000CDBFDF91CF910895CF93DF931F921F92BA
:1027F000CDB7DEB79A83898389819A81FC011582DE
:1028000089819A81FC01148289819A81FC01178255
:1028100016820F900F90DF91CF910895CF93DF93A1
:102820001F921F92CDB7DEB79A83898389819A81DF
:10283000FC01868197810F900F90DF91CF910895D1
:10284000CF93DF9300D01F921F92CDB7DEB79A834C
:1028500089837C836B834D8389819A81FC01848188
:10286000282F2F7789819A81FC01248389819A817D
:102870002B813C81FC01378326830F900F900F90B2
:102880000F900F90DF91CF910895CF93DF9300D0F9
:102890001F92CDB7DEB79A8389837C836B832B81AC
:1028A0003C8189819A81A901481B590BCA019595E0
:1028B00087959595879595958795282F89819A81F4
:1028C000FC0125830F900F900F900F90DF91CF9117
:1028D0000895CF93DF9300D000D0CDB7DEB79C83AF
:1028E0008B837E836D838D819E810E9486139A8364
:1028F000898389819A81892B19F480E090E02DC029
:102900008B819C81FC0182819381892B91F08B8149
:102910009C81FC018281938129813A81B9010E94C5
:1029200045148B819C8129813A81FC013383228368
:102930000EC08B819C8129813A81FC0131832083E7
:102940008B819C8129813A81FC0133832283898197
:102950009A810E94F41389819A8126960FB6F89481
:10296000DEBF0FBECDBFDF91CF910895CF93DF9330
:1029700000D01F92CDB7DEB79A8389837C836B83A7
:102980002B813C8189819A81B9010E9469140E943E
:10299000EB0D0F900F900F900F90DF91CF91089556
:1029A000CF93DF931F921F92CDB7DEB79A838983AF
:1029B00089819A81FC018581882391F089819A819E
:1029C000FC018581082E000C990B880F991F880F38
:1029D000991F880F991F29813A81820F931F02C086
:1029E00080E090E00F900F90DF91CF910895CF930A
:1029F000DF931F921F92CDB7DEB79A8389838981B7
:102A00009A810F900F90DF91CF910895CF93DF932C
:102A10001F921F92CDB7DEB79A83898389819A81ED
:102A20000F900F90DF91CF910895CF93DF9300D057
:102A300000D0CDB7DEB79A8389834B835C836D83E7
:102A40007E838B819C81AD81BE81E981FA8126E004
:102A5000AC01BD01CF010E94440126960FB6F89447
:102A6000DEBF0FBECDBFDF91CF910895FB01019076
:102A70000020E9F73197AF01461B570BDC01ED91C0
:102A8000FC910280F381E02D19940F931F93CF9353
:102A9000DF938C01D0E0C0E06115710519F00E9450
:102AA0003615EC016DE472E0C8010E9436158C0FFA
:102AB0009D1FDF91CF911F910F91089561157105B1
:102AC00011F00C94361590E080E00895CF93DF93D9
:102AD00000D01F92CDB7DEB79A8389837C836B8346
:102AE0008B819C810E94881E0F900F900F900F90F9
:102AF000DF91CF910895CF93DF9300D01F92CDB790
:102B0000DEB79A8389837C836B838B819C81892B3D
:102B100039F089819A812B813C81B9010E94661527
:102B20000F900F900F900F90DF91CF9108950F931A
:102B30001F93CF93DF931F921F92CDB7DEB79A8377
:102B4000898309811A8189819A8101960E94DC0D0D
:102B50000E949713BC01C8010E947B150F900F9033
:102B6000DF91CF911F910F910895CF93DF931F9223
:102B70001F92CDB7DEB79A83898389819A810E949B
:102B8000971589819A8101960E94BF0D0F900F9031
:102B9000DF91CF910895CF93DF9300D01F92CDB7EF
:102BA000DEB79A8389837C836B838B819C810E94AF
:102BB000EC1D0F900F900F900F90DF91CF91089523
:102BC000CF93DF9300D01F92CDB7DEB79A8389836E
:102BD0007C836B8389819A812B813C81B9010E941E
:102BE000CB150F900F900F900F90DF91CF9108951C
:102BF000CF93DF9300D000D01F921F92CDB7DEB7E6
:102C00009C838B837E836D8358874F838F819885C8
:102C10000E9406159A8389838D819E8129813A813C
:102C2000B9010E94E015BC0129813A818B819C8108
:102C3000A9010E94A9138B819C8128960FB6F89454
:102C4000DEBF0FBECDBFDF91CF910895CF92DF924F
:102C5000EF92FF920F931F93CF93DF93CDB7DEB721
:102C60002E970FB6F894DEBF0FBECDBF9B878A8725
:102C70007D876C874E878A859B85622F0E94F90429
:102C80008A859B856C012FEFC21AD20A2C853D855F
:102C90008A859B85A901BC01CE0101960E94F81589
:102CA000E980FA800B811C812D813E814F815885FE
:102CB0006985C6010E94C50E2E960FB6F894DEBF38
:102CC0000FBECDBFDF91CF911F910F91FF90EF907D
:102CD000DF90CF900895CF93DF9300D01F92CDB7B0
:102CE000DEB79A8389837C836B8329813A818B81C8
:102CF0009C812817390719F480E090E015C089817C
:102D00009A81892B19F48FEF9FEF0EC08B819C81E4
:102D1000892B19F481E090E007C02B813C818981E7
:102D20009A81B9010E94111F0F900F900F900F9080
:102D3000DF91CF910895CF93DF9300D01F92CDB74D
:102D4000DEB79A8389837C836B8389819A81FC01B6
:102D5000808191812B813C81B9010E946B160F907B
:102D60000F900F900F90DF91CF910895CF93DF9345
:102D700000D01F92CDB7DEB79A8389837C836B83A3
:102D80002B813C8189819A81B9010E949B1621E0A7
:102D9000892B09F020E0822F0F900F900F900F9059
:102DA000DF91CF910895CF93DF9300D000D0CDB7BE
:102DB000DEB79C838B837E836D838B819C81FC013A
:102DC000808191819A83898389819A81892B99F065
:102DD00089819A810E940E149C01CE010596B90149
:102DE0000E94B616882339F489819A810E94D014F2
:102DF0009A838983E9CF89819A8126960FB6F894C0
:102E0000DEBF0FBECDBFDF91CF910895CF93DF938B
:102E100000D000D0CDB7DEB79C838B837E836D83DB
:102E20002D813E818B819C81B9010E94D3169A83AA
:102E3000898389819A81892B29F089819A810E94CD
:102E4000F71402C080E090E026960FB6F894DEBF3B
:102E50000FBECDBFDF91CF9108950F931F93CF93F6
:102E6000DF93CDB7DEB766970FB6F894DEBF0FBE1F
:102E7000CDBF9A8B898B7C8B6B8B4D8B2E8BCE0130
:102E800046960E944F08882389F0CE010C9666E092
:102E900070E00E94200989899A89835B9F4F2C8565
:102EA0003D85FC013183208380E001C189899A89B5
:102EB0000E94B20389899A890E94500B982F81E061
:102EC0008927882311F080E0F2C089899A896DE70B
:102ED0000E94E803882311F081E0E9C089899A897A
:102EE0000E94DF0A982F81E08927882311F080E073
:102EF000DEC089899A890E94500B982F81E089272A
:102F0000882311F080E0D3C089899A896AE30E94FE
:102F1000E803982F81E08927882389F0CE010A965B
:102F200063E070E00E94200989899A89835B9F4F42
:102F30002A853B85FC013183208380E0B8C08989E4
:102F40009A890E94D6069F878E879E01225F3F4FF7
:102F5000CE014596B9010E948E03CE0140960E9493
:102F6000CB08882309F458C08E859F850E94C01223
:102F70009C018B899C89B9010E9406179A838983D9
:102F800089819A81892BA9F589899A890E94EA0702
:102F90009F878E8789899A89FC01238534858B894F
:102FA0009C89B9010E9469149C838B838B819C81CD
:102FB000892B89F4CE01089664E070E00E94200914
:102FC00089899A89835B9F4F28853985FC013183E4
:102FD000208380E06CC02E853F858B819C81402FB3
:102FE000B9010E9420148B819C810E94F7149A835E
:102FF0008983CE0146960E947708282F69817A81BD
:1030000089899A89412F0E946218982F81E0892727
:10301000882399F080E04BC0CE0146960E94770845
:10302000282F89899A89622F0E94080C982F81E0A5
:103030008927882311F080E03AC089899A890E9403
:10304000500B982F81E08927882311F080E02FC052
:1030500089899A896DE70E94E803882311F081E04D
:1030600026C089899A896CE20E94E803982F81E042
:103070008927882389F0CE01059663E070E00E94DD
:10308000200989899A89835B9F4F2D813E81FC01AC
:103090003183208380E00BC089899A890E94500B7C
:1030A000982F81E08927882309F418CF80E066965D
:1030B0000FB6F894DEBF0FBECDBFDF91CF911F9149
:1030C0000F9108950F931F93CF93DF9300D000D0FB
:1030D000CDB7DEB79A8389837C836B834D832E8340
:1030E00089819A810E94500B982F81E0892788233B
:1030F00011F080E06DC089819A810E94C403082E7E
:10310000000C990B8732910509F43DC08832910576
:103110001CF48297C1F14AC08B35910521F08B37A1
:103120009105C9F043C0CE0105960E94BD088823D1
:1031300061F08B819C810E94470EBC0189819A813C
:103140002E81402F0E94F31843C089819A816E819D
:103150000E949B0B3DC0CE0105960E94AF088823BC
:1031600061F08B819C810E942F0EBC0189819A8124
:103170002E81412F0E942D172BC089819A816E814B
:103180000E944D0C25C0CE0105960E94A1088823FF
:1031900041F02B813C8189819A81B9010E947F0E87
:1031A00017C089819A810E94010B12C0CE01059639
:1031B0000E94A108882341F02B813C8189819A815A
:1031C000B9010E94AD1104C089819A810E9409044D
:1031D00026960FB6F894DEBF0FBECDBFDF91CF911C
:1031E0001F910F9108951F93CF93DF93CDB7DEB753
:1031F00063970FB6F894DEBF0FBECDBF9F878E8753
:10320000798B688B4A8B2B8BCE0143960E944F089B
:10321000882389F0CE010B9666E070E00E942009B9
:103220008E859F85835B9F4F2B853C85FC01318379
:10323000208380E09EC08E859F850E94B2038E858C
:103240009F850E94500B982F81E08927882311F0D9
:1032500080E08FC08E859F856DE50E94E8038823FE
:1032600011F081E086C01F82188619861A869E0199
:10327000295F3F4FCE014296B9010E94A003CE01C3
:103280000D960E94CB088823A1F18E859F85FC01B5
:103290002385348588899989B9010E94B6149A8357
:1032A000898389819A81892B89F4CE01059664E00E
:1032B00070E00E9420098E859F85835B9F4F2D8142
:1032C0003E81FC013183208380E053C0CE014396D0
:1032D0000E947708282F69817A818E859F85412FEA
:1032E0000E946218982F81E08927882399F080E056
:1032F00040C0CE0143960E947708282F8E859F8577
:10330000622F0E94080C982F81E08927882311F0F2
:1033100080E02FC08E859F850E94500B982F81E002
:103320008927882311F080E024C08E859F856DE574
:103330000E94E803882311F081E01BC08E859F85E1
:103340006CE20E94E803982F81E08927882309F422
:1033500096CFCE01039663E070E00E9420098E852F
:103360009F85835B9F4F2B813C81FC0131832083B0
:1033700080E063960FB6F894DEBF0FBECDBFDF913D
:10338000CF911F910895CF93DF9300D000D01F926B
:103390001F92CDB7DEB79C838B837E836D834F8373
:1033A00028876D817E818B819C812885432F0E9497
:1033B00062188B819C81835B9F4F0E94F208DC0125
:1033C000CB019C01232BB9F4CD0181709927892B66
:1033D00091F48B819C8105960E944F04892B59F0B2
:1033E0008D819E810E949412982F81E089278823E5
:1033F00011F081E001C080E0882349F063E070E0D3
:10340000CE0101960E94200989819A8107C08B8193
:103410009C81835B9F4FFC018081918128960FB630
:10342000F894DEBF0FBECDBFDF91CF910895BF925C
:10343000CF92DF92EF92FF920F931F93CF93DF9380
:10344000CDB7DEB7CB55D1090FB6F894DEBF0FBEAE
:10345000CDBFFE01EC5AFF4F91838083CE018A5A83
:103460009F4FFC0171836083CE01885A9F4FFC01FE
:1034700051834083CE01865A9F4FFC012083CE01A9
:10348000855A9F4FFC010083CE01885A9F4FFC0153
:1034900040815181CE018A5A9F4FFC0120813181A8
:1034A000CE01805B9F4FB9010E948604CE018C5AE9
:1034B0009F4FFC01808191810E947013CE018C5A34
:1034C0009F4FFC01808191810E94DC0D9C01CE0107
:1034D0008A5A9F4FFC018081918140E050E0B90100
:1034E0000E942B086B017C01CE018C5A9F4FFC017E
:1034F000808191810E94DC0DBC01CE01805B9F4FD9
:10350000FC0180819181A281B381870176019C01B8
:10351000AD01CE0101960E94590DCE018C5A9F4FEC
:10352000FC01808191810E94CC0DBC01CE01865AA4
:103530009F4FFC0120814B2DCE0101960E94C319A3
:10354000C55ADF4F0FB6F894DEBF0FBECDBFDF9177
:10355000CF911F910F91FF90EF90DF90CF90BF9090
:1035600008950F93CF93DF9300D000D01F921F9246
:10357000CDB7DEB79B838A837D836C835F834E8365
:1035800028874E815F816C817D818A819B81032F99
:1035900028850E94171A28960FB6F894DEBF0FBE32
:1035A000CDBFDF91CF910F9108951F920F920FB66B
:1035B0000F9211240BB60F922F933F934F935F936B
:1035C0006F937F938F939F93AF93BF93EF93FF93EB
:1035D00083E09EE00E94A601FF91EF91BF91AF9121
:1035E0009F918F917F916F915F914F913F912F911B
:1035F0000F900BBE0F900FBE0F901F9018951F924B
:103600000F920FB60F9211240BB60F922F938F9338
:103610009F93EF93FF93E091130EF091140E80812E
:10362000E091190EF0911A0E82FD1DC090818091DB
:103630001C0E8F5F8F7320911D0E821741F0E09159
:103640001C0EF0E0ED5FF14F958F80931C0EFF9103
:10365000EF919F918F912F910F900BBE0F900FBE06
:103660000F901F9018958081F2CF1F920F920FB686
:103670000F9211242F933F938F939F93AF93BF93F8
:103680008091FB0D9091FC0DA091FD0DB091FE0D70
:103690003091FA0D23E0230F2D3758F50196A11D27
:1036A000B11D2093FA0D8093FB0D9093FC0DA09318
:1036B000FD0DB093FE0D8091FF0D9091000EA09135
:1036C000010EB091020E0196A11DB11D8093FF0D58
:1036D0009093000EA093010EB093020EBF91AF9194
:1036E0009F918F913F912F910F900FBE0F901F9040
:1036F000189526E8230F0296A11DB11DD2CFCF93B6
:10370000DF93CDB7DEB7DF91CF910895CF93DF93ED
:10371000CDB7DEB767970FB6F894DEBF0FBECDBF4B
:103720009D8B8C8B7F8B6E8BCE010396422F60E03E
:1037300071E00E942616CE0101960E948F084E89E4
:103740005F896C897D89CE010396019629810E944B
:10375000B11A9B8B8A8BCE0142960E94F208DC0143
:10376000CB019C01232B29F4CD0181709927892B52
:1037700011F081E001C080E08823A1F060E572E0F3
:1037800083E09EE00E945E15CE0142960E94D90819
:10379000BC0183E09EE00E94451583E09EE00E940C
:1037A000150206C06BE672E083E09EE00E944515BC
:1037B00060EB74E080E090E00E948B02CE01039603
:1037C0000E94B51567960FB6F894DEBF0FBECDBF49
:1037D000DF91CF910895CF93DF93CDB7DEB7CA5273
:1037E000DB400FB6F894DEBF0FBECDBF8AE29BE090
:1037F000E7E8F2E09E012F5F3F4FD90101900D9263
:103800000197E1F76EE370E0CE0101960E94861BFE
:10381000C65DD44F0FB6F894DEBF0FBECDBFDF91AB
:10382000CF910895CF93DF93CDB7DEB740E855E24F
:1038300060E070E083E09EE00E9415150E94EB1BA3
:10384000DF91CF910895E3E0FEE01382128288EECB
:1038500093E0A0E0B0E084839583A683B7838EE2F3
:1038600092E09183808385EC90E09587848784EC57
:1038700090E09787868780EC90E0918B808B81EC3D
:1038800090E0938B828B82EC90E0958B848B86EC1E
:1038900090E0978B868B118E128E138E148E089566
:1038A000789484B5826084BD84B5816084BD85B51B
:1038B000826085BD85B5816085BD80916E00816027
:1038C00080936E00109281008091810082608093CD
:1038D00081008091810081608093810080918000CF
:1038E0008160809380008091B10084608093B100FA
:1038F0008091B00081608093B000809191008260DF
:1039000080939100809191008160809391008091DB
:1039100090008160809390008091A10082608093EC
:10392000A1008091A10081608093A1008091A000FE
:1039300081608093A00080912101826080932101A9
:10394000809121018160809321018091200181601B
:103950008093200180917A00846080937A00809126
:103960007A00826080937A0080917A0081608093EF
:103970007A0080917A00806880937A001092C1006A
:103980000E94121C0E947F1B0E943502FBCFE8940C
:1039900009C097FB3EF490958095709561957F4F97
:1039A0008F4F9F4F9923A9F0F92F96E9BB27939545
:1039B000F695879577956795B795F111F8CFFAF455
:1039C000BB0F11F460FF1BC06F5F7F4F8F4F9F4F86
:1039D00016C0882311F096E911C0772321F09EE8E4
:1039E000872F762F05C0662371F096E8862F70E04A
:1039F00060E02AF09A95660F771F881FDAF7880F24
:103A00009695879597F908950E94171D0C94881D27
:103A10000E947A1D38F00E94811D20F0952311F03C
:103A20000C94711D0C94771D11240C94BC1D0E94E4
:103A3000991D70F3959FC1F3950F50E0551F629F3C
:103A4000F001729FBB27F00DB11D639FAA27F00DF7
:103A5000B11DAA1F649F6627B00DA11D661F829F1E
:103A60002227B00DA11D621F739FB00DA11D621F03
:103A7000839FA00D611D221F749F3327A00D611D20
:103A8000231F849F600D211D822F762F6A2F112402
:103A90009F5750409AF0F1F088234AF0EE0FFF1F35
:103AA000BB1F661F771F881F91505040A9F79E3F8C
:103AB000510580F00C94711D0C94BC1D5F3FE4F324
:103AC000983ED4F3869577956795B795F795E795E2
:103AD0009F5FC1F7FE2B880F911D9695879597F9EB
:103AE000089597F99F6780E870E060E008959FEF80
:103AF00080EC089500240A94161617061806090685
:103B0000089500240A941216130614060506089553
:103B1000092E0394000C11F4882352F0BB0F40F4DB
:103B2000BF2B11F460FF04C06F5F7F4F8F4F9F4F1B
:103B3000089557FD9058440F551F59F05F3F71F09D
:103B40004795880F97FB991F61F09F3F79F0879504
:103B50000895121613061406551FF2CF4695F1DF8D
:103B600008C0161617061806991FF1CF869571051D
:103B7000610508940895E894BB2766277727CB0151
:103B800097F90895A1E21A2EAA1BBB1BFD010DC0D7
:103B9000AA1FBB1FEE1FFF1FA217B307E407F507FD
:103BA00020F0A21BB30BE40BF50B661F771F881FD9
:103BB000991F1A9469F760957095809590959B016F
:103BC000AC01BD01CF010895EE0FFF1F881F8BBF11
:103BD0000790F691E02D19940F931F93CF93DF93E5
:103BE0008230910510F482E090E0E091A20EF09115
:103BF000A30E30E020E0B0E0A0E0309799F421156A
:103C0000310509F44AC0281B390B24303105D8F599
:103C10008A819B816115710589F1FB019383828300
:103C2000FE0111C04081518102811381481759075B
:103C3000E0F04817590799F4109761F012960C9329
:103C4000129713961C933296CF01DF91CF911F915B
:103C50000F9108950093A20E1093A30EF4CF211597
:103C6000310551F04217530738F0A901DB019A01E1
:103C7000BD01DF01F801C1CFEF01F9CF9093A30E91
:103C80008093A20ECDCFFE01E20FF31F819391939B
:103C90002250310939832883D7CF2091A00E30914B
:103CA000A10E232B41F420910202309103023093A4
:103CB000A10E2093A00E2091000230910102211547
:103CC000310541F42DB73EB74091040250910502F1
:103CD000241B350BE091A00EF091A10EE217F30723
:103CE000A0F42E1B3F0B2817390778F0AC014E5F6C
:103CF0005F4F2417350748F04E0F5F1F5093A10EFA
:103D00004093A00E819391939FCFF0E0E0E09CCF91
:103D1000CF93DF930097E9F0FC0132971382128270
:103D2000A091A20EB091A30EED0130E020E010971B
:103D3000A1F420813181820F931F2091A00E309138
:103D4000A10E2817390709F061C0F093A10EE09386
:103D5000A00EDF91CF910895EA01CE17DF07E8F5B5
:103D60004A815B819E0141155105B1F7E901FB8351
:103D7000EA8349915991C40FD51FEC17FD0761F4EF
:103D8000808191810296840F951FE9019983888330
:103D9000828193819B838A83F0E0E0E012968D918B
:103DA0009C9113970097B9F52D913C911197CD01F6
:103DB0000296820F931F2091A00E3091A10E28171A
:103DC000390739F6309751F51092A30E1092A20ED2
:103DD000B093A10EA093A00EBCCFD383C283408129
:103DE0005181840F951FC817D90761F44E5F5F4F4B
:103DF00088819981480F591F518340838A819B8113
:103E0000938382832115310509F0B0CFF093A30E7F
:103E1000E093A20E9ECFFD01DC01C0CF138212827F
:103E2000D7CFFB01DC018D91019080190110D9F3EE
:103E3000990B0895F894FFCF0000A40E800035334D
:103E400032341415363738393A3B3C3D3E3F404119
:103E500042434445B10DB40DBF0DCF0DDC0DE50D52
:103E6000F20D00000000C801D000FD0015022E0177
:103E70000C0120012F2F22225C5C6208660C6E0A66
:103E8000720D7409000D0A00646573657269616CD6
:103E9000697A654A736F6E2829206661696C65646A
:103EA0003A2000646573657269616C697A654A736A
:103EB0006F6E2829207375636365656465640041CE
:103EC00041414141414141414141414141414141E2
:103ED00041414141414141414141414141414141D2
:103EE00041414141414141414141414141414141C2
:103EF00041414141414141414141414141414141B2
:1049E0004141414141414141004F6B00456D70746F
:1049F00079496E70757400496E636F6D706C657483
:104A000065496E70757400496E76616C6964496EB3
:104A1000707574004E6F4D656D6F7279004E6F74D6
:104A2000537570706F7274656400546F6F44656580
:024A3000700014
:020000040003F7
:10E000000D9489F10D94B2F10D94B2F10D94B2F129
:10E010000D94B2F10D94B2F10D94B2F10D94B2F1F0
:10E020000D94B2F10D94B2F10D94B2F10D94B2F1E0
:10E030000D94B2F10D94B2F10D94B2F10D94B2F1D0
:10E040000D94B2F10D94B2F10D94B2F10D94B2F1C0
:10E050000D94B2F10D94B2F10D94B2F10D94B2F1B0
:10E060000D94B2F10D94B2F10D94B2F10D94B2F1A0
:10E070000D94B2F10D94B2F10D94B2F10D94B2F190
:10E080000D94B2F10D94B2F10D94B2F10D94B2F180
:10E090000D94B2F10D94B2F10D94B2F10D94B2F170
:10E0A0000D94B2F10D94B2F10D94B2F10D94B2F160
:10E0B0000D94B2F10D94B2F10D94B2F10D94B2F150
:10E0C0000D94B2F10D94B2F10D94B2F10D94B2F140
:10E0D0000D94B2F10D94B2F10D94B2F10D94B2F130
:10E0E0000D94B2F141546D656761323536300041AF
:10E0F000726475696E6F206578706C6F72657220DE
:10E1000073746B3530305632206279204D4C530099
:10E11000426F6F746C6F616465723E004875683F52
:10E1200000436F6D70696C6564206F6E203D200048
:10E130004350552054797065202020203D20005FF9
:10E140005F4156525F415243485F5F3D2000415658
:10E1500052204C696243205665723D20004743437C
:10E160002056657273696F6E203D20004350552024
:10E1700049442020202020203D20004C6F7720663D
:10E18000757365202020203D20004869676820665F
:10E190007573652020203D200045787420667573D6
:10E1A00065202020203D20004C6F636B2066757336
:10E1B000652020203D20004D617220203720323024
:10E1C000313300312E362E3800342E332E350056A2
:10E1D00023202020414444522020206F7020636F70
:10E1E00064652020202020696E73747275637469E1
:10E1F0006F6E2061646472202020496E74657272B3
:10E20000757074006E6F20766563746F7200726A49
:10E210006D702020006A6D70200057686174207056
:10E220006F72743A00506F7274206E6F7420737541
:10E2300070706F72746564004D7573742062652030
:10E2400061206C6574746572002000577269747483
:10E25000696E672045450052656164696E672045B7
:10E26000450045452065727220636E743D00504F35
:10E27000525400303D5A65726F2061646472003FF1
:10E280003D43505520737461747300403D454550C3
:10E29000524F4D207465737400423D426C696E6B41
:10E2A000204C454400453D44756D70204545505215
:10E2B0004F4D00463D44756D7020464C415348001B
:10E2C000483D48656C70004C3D4C69737420492F83
:10E2D0004F20506F72747300513D51756974005234
:10E2E0003D44756D702052414D00563D73686F7707
:10E2F00020696E7465727275707420566563746FF0
:10E30000727300593D506F727420626C696E6B00BD
:10E310002A0011241FBECFEFD1E2DEBFCDBF01E046
:10E320000CBF12E0A0E0B2E0EEE1FDEF03E00BBFB6
:10E3300002C007900D92A030B107D9F712E0A0E01B
:10E34000B2E001C01D92AE30B107E1F70F9460F367
:10E350000D948DFE01E20EBF0FEF0DBF11241FBE05
:10E360000D9460F30D9400F020E030E040ED57E0B4
:10E3700005C0FA013197F1F72F5F3F4F2817390792
:10E38000C0F308959C01260F311DC901A0E0B0E043
:10E390002F5F3F4FABBFFC018791882361F08093D3
:10E3A000C6008091C00086FFFCCF8091C0008064D1
:10E3B0008093C000EACF08958DE08093C6008091DD
:10E3C000C00086FFFCCF8091C00080648093C000B5
:10E3D0008AE08093C6008091C00086FFFCCF8091C8
:10E3E000C00080648093C00008950F94C2F10F9420
:10E3F000DCF10895FC019081992359F09093C600B7
:10E400008091C00086FFFCCF8091C0008064809323
:10E41000C0003196992379F70895282F982F929567
:10E420009F70892F805D8A3308F0895F8093C600D2
:10E430008091C00086FFFCCF8091C00080648093F3
:10E44000C000822F8F70982F905D9A3308F0995FEB
:10E450009093C6008091C00086FFFCCF8091C000E1
:10E4600080648093C00008959C01FB01853691056E
:10E470001CF46330710594F0C90164E670E00F94F8
:10E480002EFE605D7F4F6093C6008091C00086FFC6
:10E49000FCCF8091C00080648093C0002B30310598
:10E4A00014F43297B4F0C90164E670E00F942EFEC4
:10E4B0006AE070E00F942EFE605D7F4F6093C600AF
:10E4C0008091C00086FFFCCF8091C0008064809363
:10E4D000C000C9016AE070E00F942EFEC0968093E0
:10E4E000C6008091C00086FFFCCF8091C000806490
:10E4F0008093C00008951F93182F8EE692EE60E07F
:10E500000F94C2F11093C6008091C00086FFFCCF2B
:10E510008091C00080648093C0000F94DCF11F9153
:10E5200008952F923F924F925F926F927F928F92B7
:10E530009F92AF92BF92CF92DF92EF92FF920F9392
:10E540001F93DF93CF93CDB7DEB762970FB6F894E2
:10E55000DEBF0FBECDBF382E622ECA01DB015C01CB
:10E560006D01772420E2222E2E010894411C511CBB
:10E570008BC081E0A81680E0B80681E0C80680E084
:10E58000D80628F0C601AA27BB270F940DF2BB2797
:10E59000AD2D9C2D8B2D0F940DF28A2D0F940DF225
:10E5A0002092C6008091C00086FFFCCF8091C00001
:10E5B00080648093C0009DE29093C6008091C0006B
:10E5C00086FFFCCF8091C00080648093C0002092C1
:10E5D000C6008091C00086FFFCCF8091C00080649F
:10E5E0008093C00019828601750188249924A1E0D6
:10E5F0003A1651F03A1620F0B2E03B1661F409C029
:10E600000BBFF701779007C0C7010F9477FE782EF4
:10E6100002C0F7017080872D0F940DF22092C60082
:10E620008091C00086FFFCCF8091C0008064809301
:10E63000C000872D8052F401EF70F0708F3520F408
:10E64000E40DF51D708204C0E40DF51D8EE280839B
:10E650000894E11CF11C011D111D0894811C911CE2
:10E6600090E18916910409F0C2CF80E190E0A0E02A
:10E67000B0E0A80EB91ECA1EDB1E198AC2010F9493
:10E68000FAF10F94DCF16A94662009F072CF629679
:10E690000FB6F894DEBF0FBECDBFCF91DF911F91B3
:10E6A0000F91FF90EF90DF90CF90BF90AF909F9031
:10E6B0008F907F906F905F904F903F902F90089534
:10E6C0002F923F924F925F926F927F928F929F9282
:10E6D000AF92BF92CF92DF92EF92FF920F931F9370
:10E6E000DF93CF93CDB7DEB7CD53D1400FB6F894BB
:10E6F000DEBF0FBECDBF01E20EBF0FEF0DBF94B75F
:10E70000F894A89514BE80916000886180936000A1
:10E7100010926000789493FF05C0E0910002F091A0
:10E7200001021995279A2F9A8091C00082608093E8
:10E73000C00080E18093C40088E18093C1000000A4
:10E74000EE24FF24870144E0A42EB12CCC24DD2448
:10E7500024C0C5010197F1F70894E11CF11C011DCB
:10E76000111D21E2E2162EE4F20620E0020720E06D
:10E77000120718F031E0C32ED12CC801B70127ECE5
:10E780003BE140E050E00F9441FE611571058105C9
:10E79000910519F485B1805885B98091C00087FD35
:10E7A00003C0C114D104A9F2A6014F5F5F4FC25E3E
:10E7B000DE4F59834883CE51D140C25EDE4F8881FF
:10E7C0009981CE51D140019711F00D9410FEC05D9A
:10E7D000DE4F19821882C053D14060E0C15DDE4F28
:10E7E0001882CF52D14088249924C35DDE4F19820C
:10E7F0001882CD52D140C05EDE4F188219821A8233
:10E800001B82C052D140CE5CDE4F188219821A8220
:10E810001B82C253D140EE24FF2487010BBFF701B6
:10E8200007911691C45CDE4F19830883CC53D14005
:10E830000D940BFEC25EDE4F28813981CE51D1404E
:10E840002130310509F52091C600C25EDE4F1982E4
:10E850001882CE51D14022C02F5F3F4F4F4F5F4FA4
:10E86000213082E138078AE7480780E0580780F0C6
:10E87000C45CDE4FE881F981CC53D140EF5FFF4F9C
:10E8800019F0EE27FF27099420E030E040E050E047
:10E890008091C00087FFE0CF2091C600C35DDE4FAE
:10E8A00048815981CD52D1404F5F5F4FC35DDE4FEC
:10E8B00059834883CD52D140213209F063C64A3092
:10E8C000510508F05FC60894811C911C53E0851621
:10E8D000910409F059C600E010E018C081E280936D
:10E8E000C6008091C00086FFFCCF8091C00080648C
:10E8F0008093C0002F5F3F4F2931310579F70F9486
:10E90000DCF10F5F1F4F0530110519F020E030E0FA
:10E91000E5CF10920A0210920B0210920C02109294
:10E920000D02109206021092070210920802109235
:10E930000902109202021092030210920402109235
:10E9400005028FEE90EE60E00F94F5F180E191EE1C
:10E9500060E00F94C2F18091C00087FFFCCF9091DE
:10E96000C600903608F09F759032B8F09093C600BC
:10E970008091C00086FFFCCF8091C00080648093AE
:10E98000C000A0E2A093C6008091C00086FFFCCF2B
:10E990008091C00080648093C000983409F4D7C18E
:10E9A0009934B8F4923409F459C1933458F490333B
:10E9B00019F1903308F4E3C59F33A1F1903409F0C5
:10E9C000DEC5BDC0953409F470C1963409F0D7C5D1
:10E9D00098C1923509F42BC2933538F49C3409F46C
:10E9E000F5C1913509F0CBC518C2963509F445C279
:10E9F000993509F0C4C567C483E792EE62E00F94CD
:10EA0000F5F110920602109207021092080210927D
:10EA1000090210920A0210920B0210920C0210923C
:10EA20000D0213C18FE792EE62E00F94F5F18FEEC5
:10EA300090EE60E00F94F5F181E291EE60E00F94CA
:10EA4000C2F187EB91EE60E00F94F5F180E391EE77
:10EA500060E00F94C2F184EE90EE60E00F94F5F167
:10EA60008FE391EE60E00F94C2F186E090E061E008
:10EA700070E00F9434F20F94DCF18DE591EE60E0DC
:10EA80000F94C2F189EC91EE60E00F94F5F18EE401
:10EA900091EE60E00F94C2F183EC91EE60E00F9490
:10EAA000F5F18CE691EE60E00F94C2F18EE10F94E7
:10EAB0000DF288E90F940DF281E00F940DF20F949E
:10EAC000DCF18BE791EE60E00F94C2F119E0E0E039
:10EAD000F0E010935700E4918E2F0F940DF20F94F5
:10EAE000DCF18AE891EE60E00F94C2F1E3E0F0E03F
:10EAF00010935700E4918E2F0F940DF20F94DCF1D8
:10EB000089E991EE60E00F94C2F1E2E0F0E0109349
:10EB10005700E4918E2F0F940DF20F94DCF188EAE8
:10EB200091EE60E00F94C2F1E1E0F0E01093570045
:10EB30001491812F0F940DF20F94DCF107CF8BE825
:10EB400092EE62E00F94F5F18BE492EE60E00F94A8
:10EB5000F5F10F94DCF100E010E019C0C8016F2D51
:10EB60000F947FFEFF2031F489E492EE60E00F9471
:10EB7000C2F10BC0F092C6008091C00086FFFCCFAE
:10EB80008091C00080648093C0000F5F1F4FC80158
:10EB900081519F41A0E0B0E0ABBFFC01F790BAE229
:10EBA000FB1621F0E2E000301E07C1F60F94DCF105
:10EBB0000F94DCF187E592EE60E00F94F5F10F948D
:10EBC000DCF1CC24DD2400E010E01EC0C8010F946D
:10EBD00077FEF82E882331F489E492EE60E00F94FA
:10EBE000C2F10BC08093C6008091C00086FFFCCFAD
:10EBF0008091C00080648093C000FE1419F00894D6
:10EC0000C11CD11C0F5F1F4FC80181519F41A0E063
:10EC1000B0E0ABBFFC01E790FAE2EF1621F022E092
:10EC20000030120799F60F94DCF10F94DCF182E6C4
:10EC300092EE60E00F94C2F1C60161E070E00F94C3
:10EC400034F20F94DCF10F94DCF110920202109276
:10EC50000302109204021092050278CE89E992EE26
:10EC600062E00F94F5F1279A2F9A16C02F9880E052
:10EC700090E0E0EDF7E03197F1F7019684369105E9
:10EC8000C1F72F9A80E090E0E0EDF7E03197F1F7DF
:10EC9000019684369105C1F78091C00087FFE6CFC9
:10ECA0008091C00087FFFCCF64C485EA92EE62E0E9
:10ECB0000F94F5F140910202509103026091040219
:10ECC0007091050281E020E10F9491F2809102029F
:10ECD00090910302A0910402B091050280509F4FD1
:10ECE000AF4FBF4F8093020290930302A0930402A0
:10ECF000B093050280509041A040B04008F426CE69
:10ED0000A4CF83EB92EE62E00F94F5F140910602FE
:10ED100050910702609108027091090280E020E1A1
:10ED20000F9491F28091060290910702A09108023F
:10ED3000B091090280509F4FAF4FBF4F80930602A2
:10ED400090930702A0930802B0930902FFCD80ECD4
:10ED500092EE62E00F94F5F183E792EE60E00F949B
:10ED6000F5F18FE792EE60E00F94F5F18BE892EE0B
:10ED700060E00F94F5F189E992EE60E00F94F5F10F
:10ED800085EA92EE60E00F94F5F183EB92EE60E09D
:10ED90000F94F5F180EC92EE60E00F94F5F187ECC2
:10EDA00092EE60E00F94F5F188ED92EE60E00F9442
:10EDB000F5F18FED92EE60E00F94F5F18AEE92EEB0
:10EDC00060E00F94F5F183E093EEBDCD87EC92EE19
:10EDD00062E00F94F5F181E40F947BF282E40F94EA
:10EDE0007BF283E40F947BF284E40F947BF285E45E
:10EDF0000F947BF286E40F947BF287E40F947BF20E
:10EE000088E40F947BF28AE40F947BF28BE40F94F6
:10EE10007BF28CE40F947BF299CD88ED92EE62E068
:10EE20000F94F5F1772473948824992409C48FED05
:10EE300092EE62E00F94F5F140910A0250910B02BC
:10EE400060910C0270910D0282E020E10F9491F22A
:10EE500080910A0290910B02A0910C02B0910D02D8
:10EE600080509F4FAF4FBF4F80930A0290930B0289
:10EE7000A0930C02B0930D0269CD8AEE92EE62E08F
:10EE80000F94F5F184EE90EE60E00F94F5F18FECC5
:10EE900091EE60E00F94F5F1662477244301CC5D98
:10EEA000DE4F19821882C452D140D401C301B695F5
:10EEB000A79597958795CA5DDE4F88839983AA8326
:10EEC000BB83C652D140CC5DDE4FA881B981C4520C
:10EED000D1401196CC5DDE4FB983A883C452D14096
:10EEE000CD0162E070E00F9434F2B0E2B093C6005E
:10EEF0008091C00086FFFCCF8091C0008064809329
:10EF0000C000EDE2E093C6008091C00086FFFCCF18
:10EF10008091C00080648093C000F0E2F093C6004E
:10EF20008091C00086FFFCCF8091C00080648093F8
:10EF3000C000CA5DDE4FE880F9800A811B81C6529D
:10EF4000D140BB27A12F902F8F2D0F940DF2CA5DBA
:10EF5000DE4F8881C652D1400F940DF2B0E2FB2EF5
:10EF6000F092C6008091C00086FFFCCF8091C00067
:10EF700080648093C0000DE30093C6008091C000C0
:10EF800086FFFCCF8091C00080648093C00010E2B7
:10EF90001093C6008091C00086FFFCCF8091C00016
:10EFA00080648093C0008BBEF3012791C65DDE4F65
:10EFB0002883CA52D140A22EBB24CC24DD2408943D
:10EFC000611C711C811C911C8BBEF3018791282E42
:10EFD0003324442455240894611C711C811C911C09
:10EFE0008BBEF3013791C55DDE4F3883CB52D140E4
:10EFF0000894611C711C811C911C8BBEF30147910C
:10F00000C45DDE4F4883CC52D140ADEFEA2EAFEF66
:10F01000FA2EAFEF0A2FAFEF1A2F6E0C7F1C801E57
:10F02000911E142D032DF22CEE24EA0CFB1C0C1D5A
:10F030001D1D0F940DF220E22093C6008091C000A8
:10F0400086FFFCCF8091C00080648093C000C65DC5
:10F05000DE4F8881CA52D1400F940DF230E23093D6
:10F06000C6008091C00086FFFCCF8091C000806404
:10F070008093C000C45DDE4F8881CC52D1400F9494
:10F080000DF240E24093C6008091C00086FFFCCFA5
:10F090008091C00080648093C000C55DDE4F888190
:10F0A000CB52D1400F940DF250E25093C6008091A4
:10F0B000C00086FFFCCF8091C00080648093C000B8
:10F0C0008FEFE8168FEFF80680E0080780E018075A
:10F0D00031F484E092EE60E00F94C2F1DFC0D80119
:10F0E000C7018070907CA070B0708050904CA040A0
:10F0F000B040D1F52FEF3FE340E050E0E222F322B1
:10F1000004231523CA5DDE4FA880B980CA80DB8046
:10F11000C652D140AE0CBF1CC01ED11EAA0CBB1CD7
:10F12000CC1CDD1C8EE092EE60E00F94C2F1BB2798
:10F13000A12F902F8F2D0F940DF28E2D0F940DF285
:10F1400030E23093C6008091C00086FFFCCF8091F2
:10F15000C00080648093C0004EE34093C60080915D
:10F16000C00086FFFCCF87C08EE09EEFA0E0B0E03D
:10F17000E822F9220A231B239CE0E91694E9F90608
:10F1800090E0090790E0190709F088C0C45DDE4FE0
:10F19000A881CC52D140EA2EFF2400E010E0102FCD
:10F1A0000F2DFE2CEE24C55DDE4FB881CB52D14031
:10F1B000EB0EF11C011D111DD601C501817090706F
:10F1C000A070B070DC0199278827E80EF91E0A1F8D
:10F1D0001B1F20EF30E040E050E0A222B322C42207
:10F1E000D52241E1AA0CBB1CCC1CDD1C4A95D1F7F1
:10F1F000EA0CFB1C0C1D1D1D81E090E0A0E0B0E0BE
:10F20000282239224A225B2235E1220C331C441C7D
:10F21000551C3A95D1F7E20CF31C041D151D57013E
:10F220006801AA0CBB1CCC1CDD1C85E192EE60E0E1
:10F230000F94C2F1C801AA27BB270F940DF2BB2778
:10F24000A12F902F8F2D0F940DF28E2D0F940DF274
:10F2500090E29093C6008091C00086FFFCCF809121
:10F26000C00080648093C000AEE3A093C60080918C
:10F27000C00086FFFCCF8091C00080648093C000F6
:10F28000C601AA27BB270F940DF2BB27AD2D9C2DDD
:10F290008B2D0F940DF28A2D0F940DF20F94DCF14B
:10F2A000CC5DDE4FE881F981C452D140F99709F471
:10F2B0004DCBF4E0EF2EF12C012D112D6E0C7F1CA7
:10F2C000801E911EF2CD83E093EE62E00F94F5F183
:10F2D0008AE192EE60E00F94C2F18091C00087FF56
:10F2E000FCCF1091C6001F751093C6008091C0001E
:10F2F00086FFFCCF8091C00080648093C0000F9493
:10F30000DCF1812F81548A3108F036C1163409F4BA
:10F3100095C0173490F4133409F44EC0143430F40B
:10F320001134F1F0123409F01DC130C0143409F465
:10F3300059C0153409F016C16BC01A3409F4C4C0A1
:10F340001B3438F4173409F48FC0183409F00AC19B
:10F35000A1C01B3409F4D2C01C3409F003C1E8C0B9
:10F360008FEF81B90DC082B1809582B980E090E0C5
:10F37000E0EDF7E03197F1F70196883C9105C1F790
:10F380008091C00087FFEFCF12B8EFC08FEF84B934
:10F390000DC085B1809585B980E090E0E0EDF7E0A3
:10F3A0003197F1F70196883C9105C1F78091C00033
:10F3B00087FFEFCF15B8D9C08FEF87B90DC088B1DF
:10F3C000809588B980E090E0E0EDF7E03197F1F7C3
:10F3D0000196883C9105C1F78091C00087FFEFCF6F
:10F3E00018B8C3C08FEF8AB90DC08BB180958BB9A7
:10F3F00080E090E0E0EDF7E03197F1F70196883C8E
:10F400009105C1F78091C00087FFEFCF1BB8ADC059
:10F410008FEF8DB90DC08EB180958EB980E090E0F0
:10F42000E0EDF7E03197F1F70196883C9105C1F7DF
:10F430008091C00087FFEFCF1EB897C08FEF80BBD1
:10F440000DC081B3809581BB80E090E0E0EDF7E0F6
:10F450003197F1F70196883C9105C1F78091C00082
:10F4600087FFEFCF11BA81C08FEF83BB0DC084B38C
:10F47000809584BB80E090E0E0EDF7E03197F1F714
:10F480000196883C9105C1F78091C00087FFEFCFBE
:10F4900014BA6BC08FEF809301010FC080910201FD
:10F4A00080958093020180E090E0E0EDF7E03197F5
:10F4B000F1F70196883C9105C1F78091C00087FF64
:10F4C000EDCF1092020151C08FEF809304010FC065
:10F4D0008091050180958093050180E090E0E0ED4A
:10F4E000F7E03197F1F70196883C9105C1F78091DB
:10F4F000C00087FFEDCF1092050137C08FEF8093DA
:10F5000007010FC08091080180958093080180E079
:10F5100090E0E0EDF7E03197F1F70196883C910536
:10F52000C1F78091C00087FFEDCF109208011DC088
:10F530008FEF80930A010FC080910B01809580931B
:10F540000B0180E090E0E0EDF7E03197F1F70196F4
:10F55000883C9105C1F78091C00087FFEDCF1092E4
:10F560000B0103C085E292EEEEC98091C00087FFD7
:10F57000FCCF8091C600EAC988E392EEE4C98CE131
:10F5800091EEE1C988249924933011F1943028F444
:10F59000913089F09230B8F408C0953061F195301F
:10F5A000F0F0963009F048C043C02B3109F042C951
:10F5B00091E06BE13FC96227C15DDE4F2883CF52E6
:10F5C000D14092E037C9B22FA0E0622793E032C960
:10F5D000822F90E0A82BB92B622794E02BC92E3004
:10F5E00009F039C3622795E0C05DDE4F19821882A9
:10F5F000C053D1401FC9E1E0F0E0EC0FFD1FC05D3A
:10F60000DE4F08811981C053D140E00FF11F2083E4
:10F610000F5F1F4FC05DDE4F19830883C053D14079
:10F6200062270A171B0709F005C9D80196E002C92D
:10F63000261709F010C303C0973009F0FBC87724E0
:10F640009981933109F412C19431C8F4963009F4C8
:10F65000D8C0973050F4923009F406C1933009F4C1
:10F660006DC0913009F059C253C0913109F477C08F
:10F67000923108F0BBC0903109F04FC2F5C098310B
:10F6800009F487C0993150F4953109F4EFC09531F0
:10F6900008F4C6C1963109F040C2C2C19A3109F4DA
:10F6A0006CC09A3108F491C09B3109F45BC09D3164
:10F6B00009F033C29D81903359F48F81882311F46E
:10F6C0009EE11CC0813011F091E018C098E916C08D
:10F6D000892F807591F0903539F4E0E0F0E089E011
:10F6E0008093570094910AC0983539F4E3E0F0E034
:10F6F00089E080935700949101C090E01A821B82A8
:10F700008D818C831D829E831F8227E030E009C299
:10F710001A8288E08B8381E48C8386E58D8382E581
:10F720008E8389E48F8383E5888780E589878FE5E9
:10F730008A8782E38B872BE030E0F3C18A818139AD
:10F7400041F0823941F0803911F48FE005C080E04A
:10F7500003C082E001C08AE01A828B8344C0772410
:10F76000739482C08D81882311F48EE12CC0813086
:10F7700011F081E028C088E926C01A82E1E0F0E0BB
:10F7800089E08093570084918B831C8224E030E0D1
:10F79000C8C18B81803589F48C81883039F4E2E0EE
:10F7A000F0E089E08093570084910DC0E0E0F0E044
:10F7B00089E080935700849106C0E3E0F0E089E09F
:10F7C0008093570084911A82DFCF8D81836C99E0FA
:10F7D000E1E0F0E0082E90935700E89507B600FCB2
:10F7E000FDCF1A821B8223E030E09BC180EC8A832C
:10F7F000CE5CDE4F188219821A821B82C253D1401E
:10F800008EC18A8190E0A0E0B0E0582F44273327D2
:10F8100022278B8190E0A0E0B0E0DC0199278827C7
:10F82000282B392B4A2B5B2B8D8190E0A0E0B0E098
:10F83000282B392B4A2B5B2B8C8190E0A0E0B0E089
:10F84000BA2FA92F982F8827282B392B4A2B5B2BCF
:10F85000220F331F441F551FC05EDE4F288339839C
:10F860004A835B83C052D1401A8259C13A81C95C34
:10F87000DE4F3883C753D140CA5CDE4F1882C6536F
:10F88000D1408B81C82EDD24CA5CDE4F488159816E
:10F89000C653D140C42AD52A933109F082C0CE5C28
:10F8A000DE4F88819981AA81BB81C253D1408050AB
:10F8B000904CA340B04030F583E0CE5CDE4FE88052
:10F8C000F9800A811B81C253D140F70100935B008C
:10F8D00080935700E89507B600FCFDCFCE5CDE4F65
:10F8E000088119812A813B81C253D14000501F4FAA
:10F8F0002F4F3F4FCE5CDE4F088319832A833B8313
:10F90000C253D140C05EDE4F488159816A817B81FC
:10F91000C052D140DE011B9631E08C9111962C91A2
:10F9200011971296C75CDE4F2883C953D140C85C3B
:10F93000DE4F1882C853D14090E0C85CDE4FE881AA
:10F94000F981C853D1408E2B9F2B0C01FA01609393
:10F950005B0030935700E89511244E5F5F4F6F4F67
:10F960007F4F0EEFE02E0FEFF02ECE0CDF1CC114F8
:10F97000D10499F685E0C05EDE4F088119812A81A5
:10F980003B81C052D140F80120935B008093570027
:10F99000E89507B600FCFDCF81E180935700E8951C
:10F9A00035C0C05EDE4F88819981AA81BB81C0527B
:10F9B000D140B695A795979587957C018601ABE0D8
:10F9C000AA2EB12CAC0EBD1E0BC0D5016D915D01F0
:10F9D000C7010F947FFE0894E11CF11C01501040F8
:10F9E0000115110591F7A60160E070E0440F551F65
:10F9F000661F771FC05EDE4FE880F9800A811B8199
:10FA0000C052D1404E0D5F1D601F711F1A82C05E33
:10FA1000DE4F488359836A837B83C052D1407FC0C5
:10FA2000FA80C55CDE4FF882CB53D140C65CDE4F16
:10FA30001882CA53D1408B81C82EDD24C65CDE4FAC
:10FA400008811981CA53D140C02AD12A1A828981DA
:10FA5000BE016D5F7F4F843121F59601C05EDE4FA0
:10FA6000E880F9800A811B81C052D1400BBFF701A9
:10FA700087919691DB018C9311969C936E5F7F4FDB
:10FA8000D801C7010296A11DB11DC05EDE4F88835B
:10FA90009983AA83BB83C052D14022503040F1F6F3
:10FAA00036C0C05EDE4F288139814A815B81C052F9
:10FAB000D1400894C108D108760100E010E0089414
:10FAC000C11CD11C0894E11CF11C011D111DE20E8A
:10FAD000F31E041F151F21BDBB27A52F942F832FB5
:10FAE00082BD2F5F3F4F4F4F5F4FF89A80B5DB01CC
:10FAF0008D93BD012E153F054007510761F7C05E8C
:10FB0000DE4F288339834A835B83C052D1409601FC
:10FB10002D5F3F4FFB01108204C080EC8A8322E0FE
:10FB200030E08BE18093C6008091C00086FFFCCF5F
:10FB30008091C00080648093C000C15DDE4FF88179
:10FB4000CF52D140F093C6008091C00086FFFCCF19
:10FB50008091C00080648093C000432F3093C60022
:10FB60008091C00086FFFCCF8091C00080648093AC
:10FB7000C000922F2093C6008091C00086FFFCCF6A
