:020000040000FA
:100000000C9489000C94BA000C94BA000C94BA00B9
:100010000C94BA000C94BA000C94BA000C94BA0078
:100020000C94BA000C94BA000C94BA000C94BA0068
:100030000C94BA000C94BA000C94BA000C94BA0058
:100040000C94BA000C94BA000C94BA000C94BA0048
:100050000C94BA000C94BA000C94BA000C94DC0511
:100060000C94BA000C94A20C0C94740E0C94BA006C
:100070000C94BA000C94BA000C94BA000C94BA0018
:100080000C94BA000C94BA000C94BA000C94BA0008
:100090000C94BA000C94BA000C94BA000C94BA00F8
:1000A0000C94BA000C94BA000C94BA000C94BA00E8
:1000B0000C94BA000C94BA000C94BA000C94BA00D8
:1000C0000C94BA000C94BA000C94BA000C94BA00C8
:1000D0000C94BA000C94BA000C94BA000C94BA00B8
:1000E0000C94BA000C9471020C945A0C0C94B40148
:1000F0000C94A40E0C94770F0C94A6020C94BC00E4
:100100000C940D030C94AC030C94E0020C94A70126
:100110005A0C11241FBECFEFD1E2DEBFCDBF00E0ED
:100120000CBF12E0A0E0B2E0E4E5F5E200E00BBFB6
:1001300002C007900D92A43CB107D9F723E0A4ECCC
:10014000B2E001C01D92AA36B207E1F710E0C9E89B
:10015000D0E000E006C021970109802FFE010E9437
:100160009212C838D10780E00807A9F70E9425102D
:100170000C94A8120C940000CF93DF9300D000D011
:100180001F921F92CDB7DEB79C838B837E836D83D6
:1001900058874F831A8219828F8198859C0121503C
:1001A000310938872F8321E0892B09F420E02223AD
:1001B00011F18B819C81FC0180819181FC01208166
:1001C00031818D819E81AC014F5F5F4F5E834D8396
:1001D000FC0140818B819C81642FF901199521E0FC
:1001E000892B09F420E0222331F089819A8101963C
:1001F0009A838983D1CF89819A8128960FB6F89402
:10020000DEBF0FBECDBFDF91CF910895CF93DF93B7
:1002100000D000D0CDB7DEB79A8389837C836B830F
:100220005E834D8389819A81FC0180819181029650
:10023000FC01208131814D815E816B817C818981CE
:100240009A81F901199526960FB6F894DEBF0FBE74
:10025000CDBFDF91CF910895CF93DF931F921F926F
:10026000CDB7DEB79A83898389819A81FC01808129
:1002700091810F900F90DF91CF910895CF93DF93ED
:100280001F921F92CDB7DEB79A83898389819A81A5
:10029000FC01848195810F900F90DF91CF9108959B
:1002A000CF93DF9300D01F92CDB7DEB79C838B83B3
:1002B0008B819C81FC0180899189FC018081882F40
:1002C00090E08470992721E0892B09F020E0222317
:1002D00071F18B819C81FC0186899789FC01808169
:1002E00089838B819C81FC01818D8F5F8F738A83D1
:1002F0008B819C81FC01928D81E02A81291709F470
:1003000080E08823E1F08B819C81FC01818D882F26
:1003100090E02B813C81820F931F4D962981FC0137
:1003200020838B819C812A81FC01218F09C08B81D4
:100330009C81FC0186899789FC01808101C00000B5
:100340000F900F900F900F90DF91CF910895CF9362
:10035000DF931F921F92CDB7DEB79A8389830F90E8
:100360000F90DF91CF910895CF93DF931F921F924B
:10037000CDB7DEB79A83898380E090E00F900F902D
:10038000DF91CF910895CF93DF931F921F92CDB746
:10039000DEB79A83898328E832E089819A81FC015B
:1003A0003183208389819A81FC01138212820F900C
:1003B0000F90DF91CF910895CF93DF931F921F92FB
:1003C000CDB7DEB79A83898389819A810E94C30160
:1003D00024E932E089819A81FC01318320832981DB
:1003E0003A8188EE93E0A0E0B0E0F9018483958340
:1003F000A683B7830F900F90DF91CF910895CF928E
:10040000DF92EF92FF920F931F93CF93DF93CDB7BD
:10041000DEB72E970FB6F894DEBF0FBECDBF9A831E
:1004200089837C836B835E834D8338872F831A8710
:100430000987FC86EB86DE86CD8689819A810E94BB
:10044000DC0126EA32E089819A81FC013183208334
:1004500089819A812B813C81FC01358724878981A0
:100460009A812D813E81FC013787268789819A8177
:100470002F813885FC01318B208B89819A812985D8
:100480003A85FC01338B228B89819A812B853C85AF
:10049000FC01358B248B89819A812D853E85FC0159
:1004A000378B268B89819A81FC01118E89819A81F3
:1004B000FC01128E89819A81FC01138E89819A81B7
:1004C000FC01148E2E960FB6F894DEBF0FBECDBF82
:1004D000DF91CF911F910F91FF90EF90DF90CF9020
:1004E0000895CF93DF9300D01F92CDB7DEB79C83E2
:1004F0008B838B819C81FC01838D89838B819C8183
:10050000FC01848D8A8399818A81981768F089819A
:10051000882F90E02FE330E0281B390B8A81882F49
:1005200090E0820F931F0BC08A81282F30E08981D1
:10053000882F90E0A901481B590BCA0101970F9021
:100540000F900F900F90DF91CF910895CF93DF938D
:1005500000D0CDB7DEB79B838A838A819B81FC0163
:10056000218D8A819B81FC01928D81E0291709F000
:1005700080E0882319F08FEF9FEF1CC08A819B8158
:10058000FC01828D882F90E02A813B81820F931F8E
:100590004D96FC01808189838A819B81FC01828D3B
:1005A0008F5F282F2F738A819B81FC01228F898185
:1005B000882F90E00F900F900F90DF91CF910895CA
:1005C000CF93DF931F921F92CDB7DEB79A838983B3
:1005D00089819A81FC01218D89819A81FC01928D0A
:1005E00081E0291709F080E0882319F08FEF9FEF51
:1005F0000FC089819A81FC01828D882F90E029812A
:100600003A81820F931F4D96FC018081882F90E0E4
:100610000F900F90DF91CF910895CF93DF931F92AA
:100620001F92CDB7DEB79A83898389819A81FC01B5
:10063000818D882F90E09C01205C3F4F89819A81B9
:10064000FC01828D882F90E0A901481B590BCA013B
:100650008F7399270F900F90DF91CF910895CF93CB
:10066000DF93CDB7DEB784EC92E00E940D0321E06A
:10067000892B09F420E0822FDF91CF910895CF9349
:10068000DF93CDB7DEB780E090E0892B31F00E9498
:100690002F03882311F081E001C080E0882311F04E
:1006A0000E94000080E090E0892B51F080E090E013
:1006B000892B31F00E940000882311F081E001C0F5
:1006C00080E0882311F00E94000080E090E0892BF8
:1006D00051F080E090E0892B31F00E9400008823E7
:1006E00011F081E001C080E0882311F00E94000039
:1006F00080E090E0892B51F080E090E0892B31F090
:100700000E940000882311F081E001C080E088236E
:1007100011F00E940000DF91CF910895CF93DF93F5
:100720001F921F92CDB7DEB79A8389838FE590E041
:1007300029813A81F9012081FC0120830F900F90DB
:10074000DF91CF910895CF93DF93CDB7DEB7F894C3
:1007500081E0DF91CF910895CF93DF93CDB7DEB7DE
:100760000E949A120F931F93CF93DF9300D01F9292
:10077000CDB7DEB79A8389837C836B838B819C8121
:10078000892B19F480E090E015C089819A81FC01E1
:10079000808191810296FC01008111818B819C8175
:1007A0000E949F12AC012B813C8189819A81B90101
:1007B000F80119950F900F900F900F90DF91CF9146
:1007C0001F910F910895CF93DF93CDB7DEB7DF91DF
:1007D000CF910895CF93DF93CDB7DEB7789484E4BB
:1007E00090E0FC01208184E490E02260FC01208301
:1007F00084E490E0FC01208184E490E02160FC012D
:10080000208385E490E0FC01208185E490E0226073
:10081000FC01208385E490E0FC01208185E490E0E8
:100820002160FC0120838EE690E0FC0120818EE6B1
:1008300090E02160FC01208381E890E0FC011082BF
:1008400081E890E0FC01208181E890E02260FC01D9
:10085000208381E890E0FC01208181E890E0216024
:10086000FC01208380E890E0FC01208180E890E09A
:100870002160FC01208381EB90E0FC01208181EB71
:1008800090E02460FC01208380EB90E0FC0120815B
:1008900080EB90E02160FC01208381E990E0FC0185
:1008A000208181E990E02260FC01208381E990E0D1
:1008B000FC01208181E990E02160FC01208380E936
:1008C00090E0FC01208180E990E02160FC01208320
:1008D00081EA90E0FC01208181EA90E02260FC0145
:1008E000208381EA90E0FC01208181EA90E0216090
:1008F000FC01208380EA90E0FC01208180EA90E006
:100900002160FC01208381E291E0FC01208181E2F1
:1009100091E02260FC01208381E291E0FC012081D2
:1009200081E291E02160FC01208380E291E0FC0102
:10093000208180E291E02160FC0120838AE790E041
:10094000FC0120818AE790E02460FC0120838AE793
:1009500090E0FC0120818AE790E02260FC01208386
:100960008AE790E0FC0120818AE790E02160FC01A9
:1009700020838AE790E0FC0120818AE790E02068EC
:10098000FC01208381EC90E0FC011082DF91CF918B
:100990000895CF93DF931F921F92CDB7DEB79A834E
:1009A000898389819A81029798F089819A81880F39
:1009B000991F880F991F9A83898389819A81059746
:1009C0009A83898389819A810197F1F79A83898330
:1009D0000F900F90DF91CF910895CF93DF9300D0C8
:1009E00000D0CDB7DEB78FE590E0FC0180818D832C
:1009F000F8948091660390916703A0916803B09189
:100A0000690389839A83AB83BC8386E490E0FC010D
:100A100080818E8385E390E0FC018081882F90E0C7
:100A200081709927892B71F08E818F3F59F08981D0
:100A30009A81AB81BC810196A11DB11D89839A83E6
:100A4000AB83BC838FE590E02D81FC0120838981FD
:100A50009A81AB81BC812227382F492F5A2F8E8152
:100A6000882F90E0A0E0B0E0820F931FA41FB51F75
:100A7000880F991FAA1FBB1F880F991FAA1FBB1F92
:100A8000BC01CD0126960FB6F894DEBF0FBECDBFD8
:100A9000DF91CF910895EF92FF920F931F93CF9321
:100AA000DF9300D000D01F921F92CDB7DEB76D83C9
:100AB0007E838F8398870E94ED04DC01CB018983BC
:100AC0009A83AB83BC8337C00E94E30317C08D8138
:100AD0009E81AF81B8850197A109B1098D839E835D
:100AE000AF83B88789819A81AB81BC8188519C4F43
:100AF000AF4FBF4F89839A83AB83BC838D819E8127
:100B0000AF81B885892B8A2B8B2BA9F00E94ED042D
:100B10009B01AC0189819A81AB81BC8179018A01F9
:100B2000E81AF90A0A0B1B0BD801C701883E93404B
:100B3000A105B10560F68D819E81AF81B885892BB5
:100B40008A2B8B2B09F628960FB6F894DEBF0FBEC2
:100B5000CDBFDF91CF911F910F91FF90EF9008953E
:100B6000CF93DF9300D01F921F92CDB7DEB78FE5F2
:100B700090E0FC0180818983F894809162039091D8
:100B80006303A0916403B09165038A839B83AC8364
:100B9000BD838FE590E02981FC0120838A819B81C0
:100BA000AC81BD81BC01CD010F900F900F900F90D3
:100BB0000F90DF91CF9108951F920F920FB60F9271
:100BC00011248F939F93AF93BF93CF93DF93CDB7B0
:100BD000DEB72597DEBFCDBF80916203909163039E
:100BE000A0916403B091650389839A83AB83BC832E
:100BF000809161038D8389819A81AB81BC8101964B
:100C0000A11DB11D89839A83AB83BC838D818D5FC8
:100C10008D838D818D3770F08D818D578D83898186
:100C20009A81AB81BC810196A11DB11D89839A83F4
:100C3000AB83BC838D818093610389819A81AB8171
:100C4000BC818093620390936303A0936403B09389
:100C500065038091660390916703A0916803B0914A
:100C600069030196A11DB11D8093660390936703EC
:100C7000A0936803B09369030F900F900F900F90AB
:100C80000F90DF91CF91BF91AF919F918F910F9076
:100C90000FBE0F901F901895CF93DF93CDB7DEB79F
:100CA000DF91CF910895CF93DF93CDB7DEB7DF917A
:100CB000CF910895CF93DF931F921F92CDB7DEB7E8
:100CC0009A83898380E090E00F900F90DF91CF911D
:100CD0000895CF93DF93CDB7DEB70E949A12CF93DA
:100CE000DF93CDB7DEB7AB970FB6F894DEBF0FBE7C
:100CF000CDBF9EA38DA34FA358A769A77AA72BA703
:100D0000CE01049680969A83898389819A81FC0119
:100D100010828BA5823010F48AE08BA78BA5282F38
:100D200030E040E050E08FA198A5A9A5BAA5BC018C
:100D3000CD010E947012DC01CB018B838BA5282F83
:100D400030E040E050E08FA198A5A9A5BAA5BC016C
:100D5000CD010E947012DA01C9018FA398A7A9A73B
:100D6000BAA78B818A3024F48B81805D282F03C041
:100D70008B81895C282F89819A8101979A83898345
:100D800089819A81FC0120838FA198A5A9A5BAA584
:100D9000892B8A2B8B2B11F629813A818DA19EA15B
:100DA000B9010E94B203AB960FB6F894DEBF0FBE36
:100DB000CDBFDF91CF910895CF93DF931F921F9204
:100DC000CDB7DEB79A83898389819A8164EB72E01B
:100DD0000E94B2030F900F90DF91CF910895CF93AF
:100DE000DF9300D01F92CDB7DEB79A8389837C83CF
:100DF0006B838B819C81FC0180819181FC0120812E
:100E0000318149815A818B819C81BA01F9011995FF
:100E10000F900F900F900F90DF91CF910895CF9387
:100E2000DF9300D000D0CDB7DEB79C838B837E8369
:100E30006D832D813E818B819C81B9010E94EF06DB
:100E40009A8389838B819C810E94DC069C01898125
:100E50009A81820F931F9A83898389819A8126962A
:100E60000FB6F894DEBF0FBECDBFDF91CF910895CE
:100E7000CF93DF9300D000D01F921F92CDB7DEB783
:100E80009A8389834B835C836D837E8338872F832A
:100E90008F819885892B79F489819A81FC018081E1
:100EA0009181FC01208131814B8189819A81642F5C
:100EB000F90119950CC02F818B819C81AD81BE8178
:100EC000E981FA81AC01BD01CF010E946F0628962D
:100ED0000FB6F894DEBF0FBECDBFDF91CF9108955E
:100EE000CF93DF9300D000D000D01F92CDB7DEB7F4
:100EF0009C838B834D835E836F8378873A872987B2
:100F000029853A858D819E81AF81B885EB81FC81F1
:100F1000AC01BD01CF010E9438079A8389838B8180
:100F20009C810E94DC069C0189819A81820F931F1B
:100F30009A83898389819A812A960FB6F894DEBFB5
:100F40000FBECDBFDF91CF910895CF93DF9300D037
:100F500000D0CDB7DEB79A8389837C836B835E83B1
:100F60004D838B819C81CC01A0E0B0E02D813E813E
:100F7000E981FA81AC01BD01CF010E9438072696B4
:100F80000FB6F894DEBF0FBECDBFDF91CF910895AD
:100F9000CF93DF9300D000D01F921F92CDB7DEB762
:100FA0009C838B837E836D8358874F834F815885C5
:100FB0002D813E818B819C81B9010E94A5079A8376
:100FC00089838B819C810E94DC069C0189819A81A6
:100FD000820F931F9A83898389819A8128960FB6FD
:100FE000F894DEBF0FBECDBFDF91CF910895CF93B0
:100FF000DF9300D01F921F92CDB7DEB79A8389830B
:101000006B835D834C838B81882F90E0A0E0B0E000
:101010002C813D81E981FA81AC01BD01CF010E94A3
:1010200038070F900F900F900F900F90DF91CF9196
:101030000895CF93DF9300D000D01F92CDB7DEB7D5
:101040009C838B836D835F834E832E813F818B8155
:101050009C81A9016D810E94F7079A8389838B8106
:101060009C810E94DC069C0189819A81820F931FDA
:101070009A83898389819A8127960FB6F894DEBF77
:101080000FBECDBFDF91CF910895CF93DF9300D0F6
:10109000CDB7DEB79A8389836B8389819A81FC01FE
:1010A00080819181FC01208131814B8189819A81EC
:1010B000642FF90119950F900F900F90DF91CF9148
:1010C0000895CF93DF9300D01F921F92CDB7DEB764
:1010D0009C838B836D838B819C816D810E944508ED
:1010E0009A8389838B819C810E94DC069C01898183
:1010F0009A81820F931F9A83898389819A810F90A5
:101100000F900F900F900F90DF91CF910895CF9394
:10111000DF9300D000D000D01F92CDB7DEB79C8304
:101120008B834D835E836F8378873A872987898590
:101130009A85892B79F48B819C81FC018081918136
:10114000FC01208131814D818B819C81642FF901CB
:1011500019954BC089859A850A97D9F58D819E810D
:10116000AF81B885BB2344F58B819C816DE20E94E1
:1011700045089A8389838D819E81AF81B885B0951A
:10118000A095909581959F4FAF4FBF4F8D839E83C4
:10119000AF83B8878D819E81AF81B885EB81FC815B
:1011A0002AE0AC01BD01CF010E946F069C0189813C
:1011B0009A81820F931F19C08D819E81AF81B8855E
:1011C000EB81FC812AE0AC01BD01CF010E946F06DA
:1011D0000CC029858D819E81AF81B885EB81FC8112
:1011E000AC01BD01CF010E946F062A960FB6F8949C
:1011F000DEBF0FBECDBFDF91CF910895CF93DF93B8
:1012000000D000D000D01F92CDB7DEB79C838B8377
:101210004D835E836F8378873A87298729853A854E
:101220008D819E81AF81B885EB81FC81AC01BD01D0
:10123000CF010E9487089A8389838B819C810E94B9
:10124000DC069C0189819A81820F931F9A8389838E
:1012500089819A812A960FB6F894DEBF0FBECDBF62
:10126000DF91CF910895CF93DF9300D000D0CDB719
:10127000DEB79A8389837C836B835E834D838B8106
:101280009C81092E000CAA0BBB0B2D813E81E981AC
:10129000FA81AC01BD01CF010E94870826960FB6E6
:1012A000F894DEBF0FBECDBFDF91CF910895CF93ED
:1012B000DF9300D000D01F921F92CDB7DEB79C8382
:1012C0008B837E836D8358874F834F8158852D8113
:1012D0003E818B819C81B9010E9433099A83898365
:1012E0008B819C810E94DC069C0189819A81820FFE
:1012F000931F9A83898389819A8128960FB6F894DF
:10130000DEBF0FBECDBFDF91CF910895CF93DF93A6
:1013100000D01F92CDB7DEB79A8389837C836B831D
:101320002B813C8189819A81B9010E94B2030F907F
:101330000F900F900F90DF91CF910895CF92DF9291
:10134000EF92FF921F93CF93DF93CDB7DEB76897ED
:101350000FB6F894DEBF0FBECDBF9B8B8A8B4C8B34
:101360005D8B6E8B7F8B288F1A8219822C893D8929
:101370004E895F896C897D898E899F890E946B1255
:10138000882311F081E001C080E0882339F08A8948
:101390009B8967EB72E00E94860939C18C899D891F
:1013A000AE89BF896C017D01E894F7F811E02FEF59
:1013B0003FEF4FE75FE7C701B6010E946B1288233A
:1013C00059F42FEF3FEF4FE75FE7C701B6010E94E7
:1013D000A11018160CF410E081E08127882F90E00E
:1013E0008170882339F08A899B896BEB72E00E94B7
:1013F00086090DC12FEF3FEF4FE75FE46C897D89D0
:101400008E899F890E94F91118163CF48A899B895C
:101410006FEB72E00E948609FAC02FEF3FEF4FE7B3
:101420005FEC6C897D898E899F890E94A110882339
:101430003CF48A899B896FEB72E00E948609E7C0C1
:1014400020E030E0A9016C897D898E899F890E9406
:10145000A1108823ACF48A899B896DE20E9445081B
:101460009C0189819A81820F931F9A8389838C8939
:101470009D89AE89BF89B0588C8B9D8BAE8BBF8BFD
:1014800080E090E0A0E0BFE38B839C83AD83BE83CC
:101490001F829F81888D9817A0F420E030E040E201
:1014A00051E46B817C818D819E810E94A610DC01BC
:1014B000CB018B839C83AD83BE838F818F5F8F83B2
:1014C000E8CF2B813C814D815E816C897D898E893D
:1014D0009F890E943510DC01CB018C8B9D8BAE8BDC
:1014E000BF8B6C897D898E899F890E941811DC01D0
:1014F000CB018C879D87AE87BF876C857D858E8568
:101500009F850E944711DC01CB019C01AD016C89D4
:101510007D898E899F890E943410DC01CB018887E8
:101520009987AA87BB878C859D85AE85BF85EA890B
:10153000FB892AE030E0AC01BD01CF010E943807F1
:101540009C0189819A81820F931F9A838983888D58
:10155000882361F08A899B896EE20E9445089C017C
:1015600089819A81820F931F9A838983888D9FEF47
:10157000980F988F91E0882309F490E0992309F45B
:1015800044C020E030E040E251E4688579858A85F6
:101590009B850E94FE11DC01CB0188879987AA8771
:1015A000BB87688579858A859B850E941811DC0137
:1015B000CB01998B888B288939898A899B894AE054
:1015C00050E0B9010E94A5079C0189819A81820F90
:1015D000931F9A83898388899989CC01A0E0B0E020
:1015E000BC01CD010E944711DC01CB019C01AD0182
:1015F000688579858A859B850E943410DC01CB0142
:1016000088879987AA87BB87B1CF89819A81689695
:101610000FB6F894DEBF0FBECDBFDF91CF911F9103
:10162000FF90EF90DF90CF900895CF93DF9300D09D
:1016300000D01F921F92CDB7DEB79A8389834B8368
:101640005C836D837E8338872F832F818B819C8180
:10165000AD81BE81E981FA81AC01BD01CF010E945B
:101660009E0928960FB6F894DEBF0FBECDBFDF915E
:10167000CF910895CF93DF9300D000D000D01F9278
:10168000CDB7DEB79C838B834D835E836F83788772
:101690003A87298729853A858D819E81AF81B885D2
:1016A000EB81FC81AC01BD01CF010E94150B9A8337
:1016B00089838B819C810E94DC069C0189819A81AF
:1016C000820F931F9A83898389819A812A960FB604
:1016D000F894DEBF0FBECDBFDF91CF910895CF93B9
:1016E000DF9300D000D0CDB7DEB79C838B837E83A1
:1016F0006D832D813E818B819C81B9010E94860979
:101700009A8389838B819C810E94DC069C0189815C
:101710009A81820F931F9A83898389819A81269661
:101720000FB6F894DEBF0FBECDBFDF91CF91089505
:101730000F931F93CF93DF9300D01F92CDB7DEB7E7
:101740009A8389837C836B838B819C810E943E0179
:101750008C018B819C810E942C019C0189819A8142
:10176000A801B9010E9406010F900F900F900F90F1
:10177000DF91CF911F910F910895CF93DF9300D008
:1017800000D0CDB7DEB79C838B837E836D832D81A4
:101790003E818B819C81B9010E94980B9A83898339
:1017A0008B819C810E94DC069C0189819A81820F39
:1017B000931F9A83898389819A8126960FB6F8941C
:1017C000DEBF0FBECDBFDF91CF910895CF93DF93E2
:1017D000CDB7DEB72C970FB6F894DEBF0FBECDBFE6
:1017E0009A8789877C876B878B859C859A83898379
:1017F0001C821B8289819A819C012F5F3F4F3A8313
:1018000029839E838D838D819E81FC0184918F83AA
:101810008F81888788858823C9F089859A85FC010E
:1018200080819181FC012081318189859A8568853B
:10183000F901199521E0892B09F420E0222331F0E8
:101840008B819C8101969C838B83D4CF8B819C81DF
:101850002C960FB6F894DEBF0FBECDBFDF91CF91AF
:101860000895CF93DF9300D000D0CDB7DEB79C832F
:101870008B837E836D832D813E818B819C81B90119
:101880000E94E60B9A8389838B819C810E94DC06EF
:101890009C0189819A81820F931F9A838983898110
:1018A0009A8126960FB6F894DEBF0FBECDBFDF91AA
:1018B000CF910895CF93DF93CDB7DEB76FEF7FEF72
:1018C00081E090E00E94670CDF91CF910895CF9264
:1018D000DF92EF92FF920F931F93CF93DF9300D08D
:1018E0001F92CDB7DEB79A8389837C836B8389810E
:1018F0009A810197D1F48B819C810196B1F40F2ECE
:10190000F6ECCF2ED12CF02D0F2EF2ECEF2EF12C89
:10191000F02D01EC10E020EC30E044EC50E065EC00
:1019200070E084EC92E00E94FF010F900F900F9006
:101930000F90DF91CF911F910F91FF90EF90DF906B
:10194000CF9008951F920F920FB60F9211240BB6ED
:101950000F922F933F934F935F936F937F938F9348
:101960009F93AF93BF93EF93FF93CF93DF93CDB745
:10197000DEB784EC92E00E945001DF91CF91FF919D
:10198000EF91BF91AF919F918F917F916F915F91F7
:101990004F913F912F910F900BBE0F900FBE0F9064
:1019A0001F901895CF93DF931F921F92CDB7DEB78C
:1019B0009A83898389819A81FC018081918106962D
:1019C000FC012081318189819A81F90119958981F0
:1019D0009A81FC0182899389FC01208189819A8105
:1019E000FC01828993892F7EFC01208389819A8161
:1019F000FC0182899389FC01208189819A81FC0103
:101A000082899389277FFC01208389819A81FC0147
:101A100082899389FC01208189819A81FC018289D4
:101A200093892F77FC01208389819A81FC01828927
:101A30009389FC01208189819A81FC0182899389A3
:101A40002F7DFC01208389819A81FC01228D89816F
:101A50009A81FC01218F0F900F90DF91CF91089513
:101A6000CF93DF9300D000D000D0CDB7DEB79C83FA
:101A70008B834D835E836F837887298780E099E02D
:101A8000ADE3B0E02D813E814F815885BC01CD0191
:101A90000E947012DA01C9010197A109B109B69536
:101AA000A795979587959A8389838B819C81FC0163
:101AB0008089918922E0FC0120838D819E81AF8104
:101AC000B8858115914EA105B10529F089819A81CA
:101AD00081159041F0F08B819C81FC018089918976
:101AE000FC01108280E894E8AEE1B0E02D813E81F7
:101AF0004F815885BC01CD010E947012DA01C901E5
:101B00000197A109B109B695A795979587959A83ED
:101B1000898389819A81292F33278B819C81FC01BC
:101B200084859585FC0120838B819C81FC018685C1
:101B300097852981FC0120838B819C81FC01108E7B
:101B40008B819C81FC01848995892985FC012083F6
:101B50008B819C81FC0182899389FC0120818B818E
:101B60009C81FC01828993892061FC0120838B8107
:101B70009C81FC0182899389FC0120818B819C815D
:101B8000FC01828993892860FC0120838B819C81E0
:101B9000FC0182899389FC0120818B819C81FC015D
:101BA000828993892068FC0120838B819C81FC01C0
:101BB00082899389FC0120818B819C81FC0182892F
:101BC00093892F7DFC01208329960FB6F894DEBF00
:101BD0000FBECDBFDF91CF910895CF93DF9300D09B
:101BE00000D0CDB7DEB79A8389834B835C836D8346
:101BF0007E838B819C81AD81BE81E981FA8126E063
:101C0000AC01BD01CF010E94300D26960FB6F894AD
:101C1000DEBF0FBECDBFDF91CF910895CF93DF938D
:101C200000D0CDB7DEB79B838A838A819B81FC017C
:101C3000848D882F90E02A813B81820F931F835AE5
:101C40009F4FFC01808189838A819B81FC01848D67
:101C5000882F90E001968F739078992324F4019750
:101C6000806C9F6F0196282F8A819B81FC01248FB5
:101C70008A819B81FC01868997892981FC012083C7
:101C80008A819B81FC0180899189FC01808183701C
:101C9000282F20648A819B81FC0180899189FC0125
:101CA00020838A819B81FC01238D8A819B81FC0199
:101CB000948D81E0291709F080E0882379F08A81EA
:101CC0009B81FC0182899389FC0120818A819B810F
:101CD000FC01828993892F7DFC0120830F900F9056
:101CE0000F90DF91CF9108951F920F920FB60F9230
:101CF00011240BB60F922F933F934F935F936F93E3
:101D00007F938F939F93AF93BF93EF93FF93CF9363
:101D1000DF93CDB7DEB784EC92E00E940E0EDF9128
:101D2000CF91FF91EF91BF91AF919F918F917F9153
:101D30006F915F914F913F912F910F900BBE0F903C
:101D40000FBE0F901F901895CF93DF9300D000D057
:101D50001F921F92CDB7DEB79F838E8368878E81D7
:101D60009F8121E0FC01208F8E819F81FC01238DCA
:101D70008E819F81FC01848D281779F48E819F814B
:101D8000FC0180899189FC018081882F90E080721C
:101D90009927892B11F081E001C080E0882369F147
:101DA0008FE590E0FC0180818D830E94A3038983ED
:101DB00089818823D9F08E819F81FC01868997894A
:101DC0002885FC0120838E819F81FC018089918977
:101DD000FC0180818370282F20648E819F81FC010B
:101DE00080899189FC0120831982E2CFCE0105967A
:101DF0000E948E0381E090E071C08E819F81FC0182
:101E0000838D882F90E001968F739078992324F426
:101E10000197806C9F6F01968B838E819F81FC015F
:101E2000948D81E02B81291709F080E0882301F14E
:101E30008FE590E0FC0180818095881F8827881FAE
:101E4000882359F38E819F81FC0180899189FC014F
:101E50008081882F90E08072992721E0892B09F4F6
:101E600020E02223D1F28E819F810E940E0ED5CFD9
:101E70008E819F81FC01838D882F90E02E813F8190
:101E8000820F931F835A9F4F2885FC0120838FE583
:101E900090E0FC0180818C830E94A3038A838A8165
:101EA0008823B1F08E819F812B81FC01238F8E814D
:101EB0009F81FC0182899389FC0120818E819F8111
:101EC000FC01828993892062FC0120831A82E7CF7A
:101ED000CE0104960E948E0381E090E028960FB612
:101EE000F894DEBF0FBECDBFDF91CF910895CF93A1
:101EF000DF931F921F92CDB7DEB79A8389838981C2
:101F00009A81FC01908D81E08927882309F04EC0D9
:101F100089819A81FC0182899389FC018081882FC3
:101F200090E080729927892B69F489819A81FC015C
:101F300080899189FC018081882F90E080749927A5
:101F4000892B11F481E001C080E0882379F18FE5CD
:101F500090E0FC01808188237CF089819A81FC01DA
:101F600082899389FC018081882F90E08072992773
:101F7000892B11F081E001C080E0882349F289813A
:101F80009A81FC0180899189FC018081882F90E0F1
:101F90008072992721E0892B09F420E0222309F49B
:101FA000B7CF89819A810E940E0EB2CF0F900F9009
:101FB000DF91CF910895CF93DF931F921F92CDB7FA
:101FC000DEB71A8219820F900F90DF91CF9108959A
:101FD000CF93DF9300D01F92CDB7DEB789819A816E
:101FE00002969A83898389819A81FC0180819181FB
:101FF0009C838B838B819C8121E005970CF420E0EE
:10200000222319F084E090E002C086E090E00F9077
:102010000F900F900F90DF91CF910895CF93DF93A2
:102020001F921F92CDB7DEB740E855E260E070E046
:1020300084EC92E00E94ED0D0E94E80F9A83898360
:102040000F900F90DF91CF910895CF93DF93CDB78D
:10205000DEB70E94EA030E9453060E940E100E94FF
:10206000DB0F0E943F03FBCF5058BB27AA270E94DB
:102070004C100C94BF110E94B11138F00E94B8119D
:1020800020F039F49F3F19F426F40C94AE110EF4AD
:10209000E095E7FB0C94A811E92F0E94D01158F3AA
:1020A000BA17620773078407950720F079F4A6F53D
:1020B0000C94F2110EF4E0950B2EBA2FA02D0B010B
:1020C000B90190010C01CA01A0011124FF27591B7D
:1020D00099F0593F50F4503E68F11A16F040A22F83
:1020E000232F342F4427585FF3CF469537952795F4
:1020F000A795F0405395C9F77EF41F16BA0B620BF3
:10210000730B840BBAF09150A1F0FF0FBB1F661F39
:10211000771F881FC2F70EC0BA0F621F731F841F7C
:1021200048F4879577956795B795F7959E3F08F0A2
:10213000B0CF9395880F08F09927EE0F9795879564
:1021400008950E94841108F481E008950E94BA1055
:102150000C94BF110E94B81158F00E94B11140F0C8
:1021600029F45F3F29F00C94A81151110C94F3113C
:102170000C94AE110E94D01168F39923B1F355234A
:1021800091F3951B550BBB27AA276217730784078A
:1021900038F09F5F5F4F220F331F441FAA1FA9F320
:1021A00035D00E2E3AF0E0E832D091505040E6950E
:1021B000001CCAF72BD0FE2F29D0660F771F881F6F
:1021C000BB1F261737074807AB07B0E809F0BB0B62
:1021D000802DBF01FF2793585F4F3AF09E3F510576
:1021E00078F00C94A8110C94F3115F3FE4F3983E3F
:1021F000D4F3869577956795B795F7959F5FC9F75F
:10220000880F911D9695879597F90895E1E0660FDF
:10221000771F881FBB1F621773078407BA0720F058
:10222000621B730B840BBA0BEE1F88F7E0950895C1
:102230000E94D81188F09F5798F0B92F9927B7516D
:10224000B0F0E1F0660F771F881F991F1AF0BA955A
:10225000C9F714C0B13091F00E94F211B1E00895B5
:102260000C94F211672F782F8827B85F39F0B93FA7
:10227000CCF3869577956795B395D9F73EF490950D
:102280008095709561957F4F8F4F9F4F0895E8948B
:1022900009C097FB3EF490958095709561957F4FAE
:1022A0008F4F9F4F9923A9F0F92F96E9BB2793955C
:1022B000F695879577956795B795F111F8CFFAF46C
:1022C000BB0F11F460FF1BC06F5F7F4F8F4F9F4F9D
:1022D00016C0882311F096E911C0772321F09EE8FB
:1022E000872F762F05C0662371F096E8862F70E061
:1022F00060E02AF09A95660F771F881FDAF7880F3B
:102300009695879597F90895990F0008550FAA0B90
:10231000E0E8FEEF16161706E807F907C0F01216F8
:102320001306E407F50798F0621B730B840B950BFB
:1023300039F40A2661F0232B242B252B21F4089550
:102340000A2609F4A140A6958FEF811D811D0895ED
:1023500097F99F6780E870E060E008959FEF80EC58
:10236000089500240A9416161706180609060895FB
:1023700000240A9412161306140605060895092E61
:102380000394000C11F4882352F0BB0F40F4BF2BD0
:1023900011F460FF04C06F5F7F4F8F4F9F4F089510
:1023A00057FD9058440F551F59F05F3F71F0479506
:1023B000880F97FB991F61F09F3F79F087950895EB
:1023C000121613061406551FF2CF4695F1DF08C00A
:1023D000161617061806991FF1CF86957105610527
:1023E00008940895E894BB2766277727CB0197F9CF
:1023F00008950E94841108F48FEF08950E9411122D
:102400000C94BF110E94B11138F00E94B81120F055
:10241000952311F00C94A8110C94AE1111240C9476
:10242000F3110E94D01170F3959FC1F3950F50E006
:10243000551F629FF001729FBB27F00DB11D639F76
:10244000AA27F00DB11DAA1F649F6627B00DA11D1C
:10245000661F829F2227B00DA11D621F739FB00DC2
:10246000A11D621F839FA00D611D221F749F332732
:10247000A00D611D231F849F600D211D822F762FCB
:102480006A2F11249F5750409AF0F1F088234AF0A8
:10249000EE0FFF1FBB1F661F771F881F9150504014
:1024A000A9F79E3F510580F00C94A8110C94F311EC
:1024B0005F3FE4F3983ED4F3869577956795B7959B
:1024C000F795E7959F5FC1F7FE2B880F911D9695B5
:1024D000879597F908950E948411880B990B0895A8
:1024E000A1E21A2EAA1BBB1BFD010DC0AA1FBB1F18
:1024F000EE1FFF1FA217B307E407F50720F0A21B8A
:10250000B30BE40BF50B661F771F881F991F1A94F6
:1025100069F760957095809590959B01AC01BD0120
:10252000CF010895EE0FFF1F881F8BBF0790F69114
:10253000E02D199481E090E0F8940C94A812FC012D
:1025400001900020E9F7809590958E0F9F1F0895C8
:10255000F894FFCF353332341415363738393A3BD7
:102560003C3D3E3F404142434445353332341415EF
:10257000363738393A3B3C3D3E3F40414243444583
:10258000353332341415363738393A3B3C3D3E3F0B
:1025900040414243444535333234141536373839D7
:1025A0003A3B3C3D3E3F4041424344453533323463
:1025B0001415363738393A3B3C3D3E3F40414243A3
:1025C0004445353332341415363738393A3B3C3DBF
:1025D0003E3F40414243444500000000AC03BC0084
:1025E000B401A70100000000AC03BC00B401A701C6
:1025F000AC03AC03AC0300000000A40EBC007102ED
:10260000770F0D03A602E0020D0A006E616E0069ED
:082610006E66006F76660000A3
:020000040003F7
:10E000000D9489F10D94B2F10D94B2F10D94B2F129
:10E010000D94B2F10D94B2F10D94B2F10D94B2F1F0
:10E020000D94B2F10D94B2F10D94B2F10D94B2F1E0
:10E030000D94B2F10D94B2F10D94B2F10D94B2F1D0
:10E040000D94B2F10D94B2F10D94B2F10D94B2F1C0
:10E050000D94B2F10D94B2F10D94B2F10D94B2F1B0
:10E060000D94B2F10D94B2F10D94B2F10D94B2F1A0
:10E070000D94B2F10D94B2F10D94B2F10D94B2F190
:10E080000D94B2F10D94B2F10D94B2F10D94B2F180
:10E090000D94B2F10D94B2F10D94B2F10D94B2F170
:10E0A0000D94B2F10D94B2F10D94B2F10D94B2F160
:10E0B0000D94B2F10D94B2F10D94B2F10D94B2F150
:10E0C0000D94B2F10D94B2F10D94B2F10D94B2F140
:10E0D0000D94B2F10D94B2F10D94B2F10D94B2F130
:10E0E0000D94B2F141546D656761323536300041AF
:10E0F000726475696E6F206578706C6F72657220DE
:10E1000073746B3530305632206279204D4C530099
:10E11000426F6F746C6F616465723E004875683F52
:10E1200000436F6D70696C6564206F6E203D200048
:10E130004350552054797065202020203D20005FF9
:10E140005F4156525F415243485F5F3D2000415658
:10E1500052204C696243205665723D20004743437C
:10E160002056657273696F6E203D20004350552024
:10E1700049442020202020203D20004C6F7720663D
:10E18000757365202020203D20004869676820665F
:10E190007573652020203D200045787420667573D6
:10E1A00065202020203D20004C6F636B2066757336
:10E1B000652020203D20004D617220203720323024
:10E1C000313300312E362E3800342E332E350056A2
:10E1D00023202020414444522020206F7020636F70
:10E1E00064652020202020696E73747275637469E1
:10E1F0006F6E2061646472202020496E74657272B3
:10E20000757074006E6F20766563746F7200726A49
:10E210006D702020006A6D70200057686174207056
:10E220006F72743A00506F7274206E6F7420737541
:10E2300070706F72746564004D7573742062652030
:10E2400061206C6574746572002000577269747483
:10E25000696E672045450052656164696E672045B7
:10E26000450045452065727220636E743D00504F35
:10E27000525400303D5A65726F2061646472003FF1
:10E280003D43505520737461747300403D454550C3
:10E29000524F4D207465737400423D426C696E6B41
:10E2A000204C454400453D44756D70204545505215
:10E2B0004F4D00463D44756D7020464C415348001B
:10E2C000483D48656C70004C3D4C69737420492F83
:10E2D0004F20506F72747300513D51756974005234
:10E2E0003D44756D702052414D00563D73686F7707
:10E2F00020696E7465727275707420566563746FF0
:10E30000727300593D506F727420626C696E6B00BD
:10E310002A0011241FBECFEFD1E2DEBFCDBF01E046
:10E320000CBF12E0A0E0B2E0EEE1FDEF03E00BBFB6
:10E3300002C007900D92A030B107D9F712E0A0E01B
:10E34000B2E001C01D92AE30B107E1F70F9460F367
:10E350000D948DFE01E20EBF0FEF0DBF11241FBE05
:10E360000D9460F30D9400F020E030E040ED57E0B4
:10E3700005C0FA013197F1F72F5F3F4F2817390792
:10E38000C0F308959C01260F311DC901A0E0B0E043
:10E390002F5F3F4FABBFFC018791882361F08093D3
:10E3A000C6008091C00086FFFCCF8091C0008064D1
:10E3B0008093C000EACF08958DE08093C6008091DD
:10E3C000C00086FFFCCF8091C00080648093C000B5
:10E3D0008AE08093C6008091C00086FFFCCF8091C8
:10E3E000C00080648093C00008950F94C2F10F9420
:10E3F000DCF10895FC019081992359F09093C600B7
:10E400008091C00086FFFCCF8091C0008064809323
:10E41000C0003196992379F70895282F982F929567
:10E420009F70892F805D8A3308F0895F8093C600D2
:10E430008091C00086FFFCCF8091C00080648093F3
:10E44000C000822F8F70982F905D9A3308F0995FEB
:10E450009093C6008091C00086FFFCCF8091C000E1
:10E4600080648093C00008959C01FB01853691056E
:10E470001CF46330710594F0C90164E670E00F94F8
:10E480002EFE605D7F4F6093C6008091C00086FFC6
:10E49000FCCF8091C00080648093C0002B30310598
:10E4A00014F43297B4F0C90164E670E00F942EFEC4
:10E4B0006AE070E00F942EFE605D7F4F6093C600AF
:10E4C0008091C00086FFFCCF8091C0008064809363
:10E4D000C000C9016AE070E00F942EFEC0968093E0
:10E4E000C6008091C00086FFFCCF8091C000806490
:10E4F0008093C00008951F93182F8EE692EE60E07F
:10E500000F94C2F11093C6008091C00086FFFCCF2B
:10E510008091C00080648093C0000F94DCF11F9153
:10E5200008952F923F924F925F926F927F928F92B7
:10E530009F92AF92BF92CF92DF92EF92FF920F9392
:10E540001F93DF93CF93CDB7DEB762970FB6F894E2
:10E55000DEBF0FBECDBF382E622ECA01DB015C01CB
:10E560006D01772420E2222E2E010894411C511CBB
:10E570008BC081E0A81680E0B80681E0C80680E084
:10E58000D80628F0C601AA27BB270F940DF2BB2797
:10E59000AD2D9C2D8B2D0F940DF28A2D0F940DF225
:10E5A0002092C6008091C00086FFFCCF8091C00001
:10E5B00080648093C0009DE29093C6008091C0006B
:10E5C00086FFFCCF8091C00080648093C0002092C1
:10E5D000C6008091C00086FFFCCF8091C00080649F
:10E5E0008093C00019828601750188249924A1E0D6
:10E5F0003A1651F03A1620F0B2E03B1661F409C029
:10E600000BBFF701779007C0C7010F9477FE782EF4
:10E6100002C0F7017080872D0F940DF22092C60082
:10E620008091C00086FFFCCF8091C0008064809301
:10E63000C000872D8052F401EF70F0708F3520F408
:10E64000E40DF51D708204C0E40DF51D8EE280839B
:10E650000894E11CF11C011D111D0894811C911CE2
:10E6600090E18916910409F0C2CF80E190E0A0E02A
:10E67000B0E0A80EB91ECA1EDB1E198AC2010F9493
:10E68000FAF10F94DCF16A94662009F072CF629679
:10E690000FB6F894DEBF0FBECDBFCF91DF911F91B3
:10E6A0000F91FF90EF90DF90CF90BF90AF909F9031
:10E6B0008F907F906F905F904F903F902F90089534
:10E6C0002F923F924F925F926F927F928F929F9282
:10E6D000AF92BF92CF92DF92EF92FF920F931F9370
:10E6E000DF93CF93CDB7DEB7CD53D1400FB6F894BB
:10E6F000DEBF0FBECDBF01E20EBF0FEF0DBF94B75F
:10E70000F894A89514BE80916000886180936000A1
:10E7100010926000789493FF05C0E0910002F091A0
:10E7200001021995279A2F9A8091C00082608093E8
:10E73000C00080E18093C40088E18093C1000000A4
:10E74000EE24FF24870144E0A42EB12CCC24DD2448
:10E7500024C0C5010197F1F70894E11CF11C011DCB
:10E76000111D21E2E2162EE4F20620E0020720E06D
:10E77000120718F031E0C32ED12CC801B70127ECE5
:10E780003BE140E050E00F9441FE611571058105C9
:10E79000910519F485B1805885B98091C00087FD35
:10E7A00003C0C114D104A9F2A6014F5F5F4FC25E3E
:10E7B000DE4F59834883CE51D140C25EDE4F8881FF
:10E7C0009981CE51D140019711F00D9410FEC05D9A
:10E7D000DE4F19821882C053D14060E0C15DDE4F28
:10E7E0001882CF52D14088249924C35DDE4F19820C
:10E7F0001882CD52D140C05EDE4F188219821A8233
:10E800001B82C052D140CE5CDE4F188219821A8220
:10E810001B82C253D140EE24FF2487010BBFF701B6
:10E8200007911691C45CDE4F19830883CC53D14005
:10E830000D940BFEC25EDE4F28813981CE51D1404E
:10E840002130310509F52091C600C25EDE4F1982E4
:10E850001882CE51D14022C02F5F3F4F4F4F5F4FA4
:10E86000213082E138078AE7480780E0580780F0C6
:10E87000C45CDE4FE881F981CC53D140EF5FFF4F9C
:10E8800019F0EE27FF27099420E030E040E050E047
:10E890008091C00087FFE0CF2091C600C35DDE4FAE
:10E8A00048815981CD52D1404F5F5F4FC35DDE4FEC
:10E8B00059834883CD52D140213209F063C64A3092
:10E8C000510508F05FC60894811C911C53E0851621
:10E8D000910409F059C600E010E018C081E280936D
:10E8E000C6008091C00086FFFCCF8091C00080648C
:10E8F0008093C0002F5F3F4F2931310579F70F9486
:10E90000DCF10F5F1F4F0530110519F020E030E0FA
:10E91000E5CF10920A0210920B0210920C02109294
:10E920000D02109206021092070210920802109235
:10E930000902109202021092030210920402109235
:10E9400005028FEE90EE60E00F94F5F180E191EE1C
:10E9500060E00F94C2F18091C00087FFFCCF9091DE
:10E96000C600903608F09F759032B8F09093C600BC
:10E970008091C00086FFFCCF8091C00080648093AE
:10E98000C000A0E2A093C6008091C00086FFFCCF2B
:10E990008091C00080648093C000983409F4D7C18E
:10E9A0009934B8F4923409F459C1933458F490333B
:10E9B00019F1903308F4E3C59F33A1F1903409F0C5
:10E9C000DEC5BDC0953409F470C1963409F0D7C5D1
:10E9D00098C1923509F42BC2933538F49C3409F46C
:10E9E000F5C1913509F0CBC518C2963509F445C279
:10E9F000993509F0C4C567C483E792EE62E00F94CD
:10EA0000F5F110920602109207021092080210927D
:10EA1000090210920A0210920B0210920C0210923C
:10EA20000D0213C18FE792EE62E00F94F5F18FEEC5
:10EA300090EE60E00F94F5F181E291EE60E00F94CA
:10EA4000C2F187EB91EE60E00F94F5F180E391EE77
:10EA500060E00F94C2F184EE90EE60E00F94F5F167
:10EA60008FE391EE60E00F94C2F186E090E061E008
:10EA700070E00F9434F20F94DCF18DE591EE60E0DC
:10EA80000F94C2F189EC91EE60E00F94F5F18EE401
:10EA900091EE60E00F94C2F183EC91EE60E00F9490
:10EAA000F5F18CE691EE60E00F94C2F18EE10F94E7
:10EAB0000DF288E90F940DF281E00F940DF20F949E
:10EAC000DCF18BE791EE60E00F94C2F119E0E0E039
:10EAD000F0E010935700E4918E2F0F940DF20F94F5
:10EAE000DCF18AE891EE60E00F94C2F1E3E0F0E03F
:10EAF00010935700E4918E2F0F940DF20F94DCF1D8
:10EB000089E991EE60E00F94C2F1E2E0F0E0109349
:10EB10005700E4918E2F0F940DF20F94DCF188EAE8
:10EB200091EE60E00F94C2F1E1E0F0E01093570045
:10EB30001491812F0F940DF20F94DCF107CF8BE825
:10EB400092EE62E00F94F5F18BE492EE60E00F94A8
:10EB5000F5F10F94DCF100E010E019C0C8016F2D51
:10EB60000F947FFEFF2031F489E492EE60E00F9471
:10EB7000C2F10BC0F092C6008091C00086FFFCCFAE
:10EB80008091C00080648093C0000F5F1F4FC80158
:10EB900081519F41A0E0B0E0ABBFFC01F790BAE229
:10EBA000FB1621F0E2E000301E07C1F60F94DCF105
:10EBB0000F94DCF187E592EE60E00F94F5F10F948D
:10EBC000DCF1CC24DD2400E010E01EC0C8010F946D
:10EBD00077FEF82E882331F489E492EE60E00F94FA
:10EBE000C2F10BC08093C6008091C00086FFFCCFAD
:10EBF0008091C00080648093C000FE1419F00894D6
:10EC0000C11CD11C0F5F1F4FC80181519F41A0E063
:10EC1000B0E0ABBFFC01E790FAE2EF1621F022E092
:10EC20000030120799F60F94DCF10F94DCF182E6C4
:10EC300092EE60E00F94C2F1C60161E070E00F94C3
:10EC400034F20F94DCF10F94DCF110920202109276
:10EC50000302109204021092050278CE89E992EE26
:10EC600062E00F94F5F1279A2F9A16C02F9880E052
:10EC700090E0E0EDF7E03197F1F7019684369105E9
:10EC8000C1F72F9A80E090E0E0EDF7E03197F1F7DF
:10EC9000019684369105C1F78091C00087FFE6CFC9
:10ECA0008091C00087FFFCCF64C485EA92EE62E0E9
:10ECB0000F94F5F140910202509103026091040219
:10ECC0007091050281E020E10F9491F2809102029F
:10ECD00090910302A0910402B091050280509F4FD1
:10ECE000AF4FBF4F8093020290930302A0930402A0
:10ECF000B093050280509041A040B04008F426CE69
:10ED0000A4CF83EB92EE62E00F94F5F140910602FE
:10ED100050910702609108027091090280E020E1A1
:10ED20000F9491F28091060290910702A09108023F
:10ED3000B091090280509F4FAF4FBF4F80930602A2
:10ED400090930702A0930802B0930902FFCD80ECD4
:10ED500092EE62E00F94F5F183E792EE60E00F949B
:10ED6000F5F18FE792EE60E00F94F5F18BE892EE0B
:10ED700060E00F94F5F189E992EE60E00F94F5F10F
:10ED800085EA92EE60E00F94F5F183EB92EE60E09D
:10ED90000F94F5F180EC92EE60E00F94F5F187ECC2
:10EDA00092EE60E00F94F5F188ED92EE60E00F9442
:10EDB000F5F18FED92EE60E00F94F5F18AEE92EEB0
:10EDC00060E00F94F5F183E093EEBDCD87EC92EE19
:10EDD00062E00F94F5F181E40F947BF282E40F94EA
:10EDE0007BF283E40F947BF284E40F947BF285E45E
:10EDF0000F947BF286E40F947BF287E40F947BF20E
:10EE000088E40F947BF28AE40F947BF28BE40F94F6
:10EE10007BF28CE40F947BF299CD88ED92EE62E068
:10EE20000F94F5F1772473948824992409C48FED05
:10EE300092EE62E00F94F5F140910A0250910B02BC
:10EE400060910C0270910D0282E020E10F9491F22A
:10EE500080910A0290910B02A0910C02B0910D02D8
:10EE600080509F4FAF4FBF4F80930A0290930B0289
:10EE7000A0930C02B0930D0269CD8AEE92EE62E08F
:10EE80000F94F5F184EE90EE60E00F94F5F18FECC5
:10EE900091EE60E00F94F5F1662477244301CC5D98
:10EEA000DE4F19821882C452D140D401C301B695F5
:10EEB000A79597958795CA5DDE4F88839983AA8326
:10EEC000BB83C652D140CC5DDE4FA881B981C4520C
:10EED000D1401196CC5DDE4FB983A883C452D14096
:10EEE000CD0162E070E00F9434F2B0E2B093C6005E
:10EEF0008091C00086FFFCCF8091C0008064809329
:10EF0000C000EDE2E093C6008091C00086FFFCCF18
:10EF10008091C00080648093C000F0E2F093C6004E
:10EF20008091C00086FFFCCF8091C00080648093F8
:10EF3000C000CA5DDE4FE880F9800A811B81C6529D
:10EF4000D140BB27A12F902F8F2D0F940DF2CA5DBA
:10EF5000DE4F8881C652D1400F940DF2B0E2FB2EF5
:10EF6000F092C6008091C00086FFFCCF8091C00067
:10EF700080648093C0000DE30093C6008091C000C0
:10EF800086FFFCCF8091C00080648093C00010E2B7
:10EF90001093C6008091C00086FFFCCF8091C00016
:10EFA00080648093C0008BBEF3012791C65DDE4F65
:10EFB0002883CA52D140A22EBB24CC24DD2408943D
:10EFC000611C711C811C911C8BBEF3018791282E42
:10EFD0003324442455240894611C711C811C911C09
:10EFE0008BBEF3013791C55DDE4F3883CB52D140E4
:10EFF0000894611C711C811C911C8BBEF30147910C
:10F00000C45DDE4F4883CC52D140ADEFEA2EAFEF66
:10F01000FA2EAFEF0A2FAFEF1A2F6E0C7F1C801E57
:10F02000911E142D032DF22CEE24EA0CFB1C0C1D5A
:10F030001D1D0F940DF220E22093C6008091C000A8
:10F0400086FFFCCF8091C00080648093C000C65DC5
:10F05000DE4F8881CA52D1400F940DF230E23093D6
:10F06000C6008091C00086FFFCCF8091C000806404
:10F070008093C000C45DDE4F8881CC52D1400F9494
:10F080000DF240E24093C6008091C00086FFFCCFA5
:10F090008091C00080648093C000C55DDE4F888190
:10F0A000CB52D1400F940DF250E25093C6008091A4
:10F0B000C00086FFFCCF8091C00080648093C000B8
:10F0C0008FEFE8168FEFF80680E0080780E018075A
:10F0D00031F484E092EE60E00F94C2F1DFC0D80119
:10F0E000C7018070907CA070B0708050904CA040A0
:10F0F000B040D1F52FEF3FE340E050E0E222F322B1
:10F1000004231523CA5DDE4FA880B980CA80DB8046
:10F11000C652D140AE0CBF1CC01ED11EAA0CBB1CD7
:10F12000CC1CDD1C8EE092EE60E00F94C2F1BB2798
:10F13000A12F902F8F2D0F940DF28E2D0F940DF285
:10F1400030E23093C6008091C00086FFFCCF8091F2
:10F15000C00080648093C0004EE34093C60080915D
:10F16000C00086FFFCCF87C08EE09EEFA0E0B0E03D
:10F17000E822F9220A231B239CE0E91694E9F90608
:10F1800090E0090790E0190709F088C0C45DDE4FE0
:10F19000A881CC52D140EA2EFF2400E010E0102FCD
:10F1A0000F2DFE2CEE24C55DDE4FB881CB52D14031
:10F1B000EB0EF11C011D111DD601C501817090706F
:10F1C000A070B070DC0199278827E80EF91E0A1F8D
:10F1D0001B1F20EF30E040E050E0A222B322C42207
:10F1E000D52241E1AA0CBB1CCC1CDD1C4A95D1F7F1
:10F1F000EA0CFB1C0C1D1D1D81E090E0A0E0B0E0BE
:10F20000282239224A225B2235E1220C331C441C7D
:10F21000551C3A95D1F7E20CF31C041D151D57013E
:10F220006801AA0CBB1CCC1CDD1C85E192EE60E0E1
:10F230000F94C2F1C801AA27BB270F940DF2BB2778
:10F24000A12F902F8F2D0F940DF28E2D0F940DF274
:10F2500090E29093C6008091C00086FFFCCF809121
:10F26000C00080648093C000AEE3A093C60080918C
:10F27000C00086FFFCCF8091C00080648093C000F6
:10F28000C601AA27BB270F940DF2BB27AD2D9C2DDD
:10F290008B2D0F940DF28A2D0F940DF20F94DCF14B
:10F2A000CC5DDE4FE881F981C452D140F99709F471
:10F2B0004DCBF4E0EF2EF12C012D112D6E0C7F1CA7
:10F2C000801E911EF2CD83E093EE62E00F94F5F183
:10F2D0008AE192EE60E00F94C2F18091C00087FF56
:10F2E000FCCF1091C6001F751093C6008091C0001E
:10F2F00086FFFCCF8091C00080648093C0000F9493
:10F30000DCF1812F81548A3108F036C1163409F4BA
:10F3100095C0173490F4133409F44EC0143430F40B
:10F320001134F1F0123409F01DC130C0143409F465
:10F3300059C0153409F016C16BC01A3409F4C4C0A1
:10F340001B3438F4173409F48FC0183409F00AC19B
:10F35000A1C01B3409F4D2C01C3409F003C1E8C0B9
:10F360008FEF81B90DC082B1809582B980E090E0C5
:10F37000E0EDF7E03197F1F70196883C9105C1F790
:10F380008091C00087FFEFCF12B8EFC08FEF84B934
:10F390000DC085B1809585B980E090E0E0EDF7E0A3
:10F3A0003197F1F70196883C9105C1F78091C00033
:10F3B00087FFEFCF15B8D9C08FEF87B90DC088B1DF
:10F3C000809588B980E090E0E0EDF7E03197F1F7C3
:10F3D0000196883C9105C1F78091C00087FFEFCF6F
:10F3E00018B8C3C08FEF8AB90DC08BB180958BB9A7
:10F3F00080E090E0E0EDF7E03197F1F70196883C8E
:10F400009105C1F78091C00087FFEFCF1BB8ADC059
:10F410008FEF8DB90DC08EB180958EB980E090E0F0
:10F42000E0EDF7E03197F1F70196883C9105C1F7DF
:10F430008091C00087FFEFCF1EB897C08FEF80BBD1
:10F440000DC081B3809581BB80E090E0E0EDF7E0F6
:10F450003197F1F70196883C9105C1F78091C00082
:10F4600087FFEFCF11BA81C08FEF83BB0DC084B38C
:10F47000809584BB80E090E0E0EDF7E03197F1F714
:10F480000196883C9105C1F78091C00087FFEFCFBE
:10F4900014BA6BC08FEF809301010FC080910201FD
:10F4A00080958093020180E090E0E0EDF7E03197F5
:10F4B000F1F70196883C9105C1F78091C00087FF64
:10F4C000EDCF1092020151C08FEF809304010FC065
:10F4D0008091050180958093050180E090E0E0ED4A
:10F4E000F7E03197F1F70196883C9105C1F78091DB
:10F4F000C00087FFEDCF1092050137C08FEF8093DA
:10F5000007010FC08091080180958093080180E079
:10F5100090E0E0EDF7E03197F1F70196883C910536
:10F52000C1F78091C00087FFEDCF109208011DC088
:10F530008FEF80930A010FC080910B01809580931B
:10F540000B0180E090E0E0EDF7E03197F1F70196F4
:10F55000883C9105C1F78091C00087FFEDCF1092E4
:10F560000B0103C085E292EEEEC98091C00087FFD7
:10F57000FCCF8091C600EAC988E392EEE4C98CE131
:10F5800091EEE1C988249924933011F1943028F444
:10F59000913089F09230B8F408C0953061F195301F
:10F5A000F0F0963009F048C043C02B3109F042C951
:10F5B00091E06BE13FC96227C15DDE4F2883CF52E6
:10F5C000D14092E037C9B22FA0E0622793E032C960
:10F5D000822F90E0A82BB92B622794E02BC92E3004
:10F5E00009F039C3622795E0C05DDE4F19821882A9
:10F5F000C053D1401FC9E1E0F0E0EC0FFD1FC05D3A
:10F60000DE4F08811981C053D140E00FF11F2083E4
:10F610000F5F1F4FC05DDE4F19830883C053D14079
:10F6200062270A171B0709F005C9D80196E002C92D
:10F63000261709F010C303C0973009F0FBC87724E0
:10F640009981933109F412C19431C8F4963009F4C8
:10F65000D8C0973050F4923009F406C1933009F4C1
:10F660006DC0913009F059C253C0913109F477C08F
:10F67000923108F0BBC0903109F04FC2F5C098310B
:10F6800009F487C0993150F4953109F4EFC09531F0
:10F6900008F4C6C1963109F040C2C2C19A3109F4DA
:10F6A0006CC09A3108F491C09B3109F45BC09D3164
:10F6B00009F033C29D81903359F48F81882311F46E
:10F6C0009EE11CC0813011F091E018C098E916C08D
:10F6D000892F807591F0903539F4E0E0F0E089E011
:10F6E0008093570094910AC0983539F4E3E0F0E034
:10F6F00089E080935700949101C090E01A821B82A8
:10F700008D818C831D829E831F8227E030E009C299
:10F710001A8288E08B8381E48C8386E58D8382E581
:10F720008E8389E48F8383E5888780E589878FE5E9
:10F730008A8782E38B872BE030E0F3C18A818139AD
:10F7400041F0823941F0803911F48FE005C080E04A
:10F7500003C082E001C08AE01A828B8344C0772410
:10F76000739482C08D81882311F48EE12CC0813086
:10F7700011F081E028C088E926C01A82E1E0F0E0BB
:10F7800089E08093570084918B831C8224E030E0D1
:10F79000C8C18B81803589F48C81883039F4E2E0EE
:10F7A000F0E089E08093570084910DC0E0E0F0E044
:10F7B00089E080935700849106C0E3E0F0E089E09F
:10F7C0008093570084911A82DFCF8D81836C99E0FA
:10F7D000E1E0F0E0082E90935700E89507B600FCB2
:10F7E000FDCF1A821B8223E030E09BC180EC8A832C
:10F7F000CE5CDE4F188219821A821B82C253D1401E
:10F800008EC18A8190E0A0E0B0E0582F44273327D2
:10F8100022278B8190E0A0E0B0E0DC0199278827C7
:10F82000282B392B4A2B5B2B8D8190E0A0E0B0E098
:10F83000282B392B4A2B5B2B8C8190E0A0E0B0E089
:10F84000BA2FA92F982F8827282B392B4A2B5B2BCF
:10F85000220F331F441F551FC05EDE4F288339839C
:10F860004A835B83C052D1401A8259C13A81C95C34
:10F87000DE4F3883C753D140CA5CDE4F1882C6536F
:10F88000D1408B81C82EDD24CA5CDE4F488159816E
:10F89000C653D140C42AD52A933109F082C0CE5C28
:10F8A000DE4F88819981AA81BB81C253D1408050AB
:10F8B000904CA340B04030F583E0CE5CDE4FE88052
:10F8C000F9800A811B81C253D140F70100935B008C
:10F8D00080935700E89507B600FCFDCFCE5CDE4F65
:10F8E000088119812A813B81C253D14000501F4FAA
:10F8F0002F4F3F4FCE5CDE4F088319832A833B8313
:10F90000C253D140C05EDE4F488159816A817B81FC
:10F91000C052D140DE011B9631E08C9111962C91A2
:10F9200011971296C75CDE4F2883C953D140C85C3B
:10F93000DE4F1882C853D14090E0C85CDE4FE881AA
:10F94000F981C853D1408E2B9F2B0C01FA01609393
:10F950005B0030935700E89511244E5F5F4F6F4F67
:10F960007F4F0EEFE02E0FEFF02ECE0CDF1CC114F8
:10F97000D10499F685E0C05EDE4F088119812A81A5
:10F980003B81C052D140F80120935B008093570027
:10F99000E89507B600FCFDCF81E180935700E8951C
:10F9A00035C0C05EDE4F88819981AA81BB81C0527B
:10F9B000D140B695A795979587957C018601ABE0D8
:10F9C000AA2EB12CAC0EBD1E0BC0D5016D915D01F0
:10F9D000C7010F947FFE0894E11CF11C01501040F8
:10F9E0000115110591F7A60160E070E0440F551F65
:10F9F000661F771FC05EDE4FE880F9800A811B8199
:10FA0000C052D1404E0D5F1D601F711F1A82C05E33
:10FA1000DE4F488359836A837B83C052D1407FC0C5
:10FA2000FA80C55CDE4FF882CB53D140C65CDE4F16
:10FA30001882CA53D1408B81C82EDD24C65CDE4FAC
:10FA400008811981CA53D140C02AD12A1A828981DA
:10FA5000BE016D5F7F4F843121F59601C05EDE4FA0
:10FA6000E880F9800A811B81C052D1400BBFF701A9
:10FA700087919691DB018C9311969C936E5F7F4FDB
:10FA8000D801C7010296A11DB11DC05EDE4F88835B
:10FA90009983AA83BB83C052D14022503040F1F6F3
:10FAA00036C0C05EDE4F288139814A815B81C052F9
:10FAB000D1400894C108D108760100E010E0089414
:10FAC000C11CD11C0894E11CF11C011D111DE20E8A
:10FAD000F31E041F151F21BDBB27A52F942F832FB5
:10FAE00082BD2F5F3F4F4F4F5F4FF89A80B5DB01CC
:10FAF0008D93BD012E153F054007510761F7C05E8C
:10FB0000DE4F288339834A835B83C052D1409601FC
:10FB10002D5F3F4FFB01108204C080EC8A8322E0FE
:10FB200030E08BE18093C6008091C00086FFFCCF5F
:10FB30008091C00080648093C000C15DDE4FF88179
:10FB4000CF52D140F093C6008091C00086FFFCCF19
:10FB50008091C00080648093C000432F3093C60022
:10FB60008091C00086FFFCCF8091C00080648093AC
:10FB7000C000922F2093C6008091C00086FFFCCF6A
:10FB80008091C00080648093C0008EE08093C600A6
:10FB90008091C00086FFFCCF8091C000806480937C
:10FBA000C00065E1C15DDE4FE880CF52D1406E25D7
:10FBB00069276427FE01319610C090819093C6009A
:10FBC0008091C00086FFFCCF31968091C000806498
:10FBD0008093C0006927215030402115310569F715
:10FBE0006093C6008091C00086FFFCCF8091C0006A
:10FBF00080648093C00085B1805885B9772081F4F6
:10FC0000C15DDE4F0881CF52D1400F5FC15DDE4F35
:10FC10000883CF52D14090E0A0E0B0E00D941AF4F8
:10FC200027982F9880E090E020ED37E0F901319798
:10FC3000F1F7019684369105C9F700008091C00064
:10FC40008D7F8093C00081E180935700E895EE2777
:10FC5000FF270994FFCF90E00D941AF497FB092E2B
:10FC600007260AD077FD04D02ED006D000201AF443
:10FC7000709561957F4F0895F6F7909581959F4F08
:10FC80000895A1E21A2EAA1BBB1BFD010DC0AA1FDD
:10FC9000BB1FEE1FFF1FA217B307E407F50720F0F5
:10FCA000A21BB30BE40BF50B661F771F881F991F70
:10FCB0001A9469F760957095809590959B01AC01B9
:10FCC000BD01CF010895AA1BBB1B51E107C0AA1FAC
:10FCD000BB1FA617B70710F0A61BB70B881F991FED
:10FCE0005A95A9F780959095BC01CD010895F99991
:10FCF000FECF92BD81BDF89A992780B50895262F31
:10FD0000F999FECF1FBA92BD81BD20BD0FB6F89400
:0EFD1000FA9AF99A0FBE01960895F894FFCF63
:00000001FF
