:100000000C9472000C9493000C9493000C94930045
:100010000C9493000C9493000C9493000C94930014
:100020000C9493000C9493000C9493000C94930004
:100030000C9493000C9493000C9493000C949300F4
:100040000C9493000C9493000C9493000C949300E4
:100050000C9493000C9493000C9493000C949500D2
:100060000C9493000C9493000C9493000C949300C4
:100070000C9493000C9493000C9493000C949300B4
:100080000C9493000C9493000C9493000C949300A4
:100090000C9493000C9493000C9493000C94930094
:1000A0000C9493000C9493000C9493000C94930084
:1000B0000C9493000C9493000C9493000C94930074
:1000C0000C9493000C9493000C9493000C94930064
:1000D0000C9493000C9493000C9493000C94930054
:1000E0000C94930011241FBECFEFD1E2DEBFCDBF31
:1000F00000E00CBF12E0A0E0B2E0E0E9F3E000E0D5
:100100000BBF02C007900D92A030B107D9F722E0D3
:10011000A0E0B2E001C01D92AD30B207E1F70E944D
:100120004B010C94C6010C9400001F920F920FB665
:100130000F9211242F933F938F939F93AF93BF936D
:100140008091090290910A02A0910B02B0910C02D9
:100150003091080223E0230F2D3758F50196A11D99
:10016000B11D209308028093090290930A02A09384
:100170000B02B0930C028091040290910502A091B1
:100180000602B09107020196A11DB11D80930402E1
:1001900090930502A0930602B0930702BF91AF911E
:1001A0009F918F913F912F910F900FBE0F901F90B5
:1001B000189526E8230F0296A11DB11DD2CFCF932B
:1001C000DF93CDB7DEB7DF91CF910895CF93DF9363
:1001D000CDB7DEB7DF91CF910895CF93DF93CDB741
:1001E000DEB7809100029091010290930302809308
:1001F0000202DF91CF910895CF93DF931F921F9258
:10020000CDB7DEB780910202909103029A83898371
:100210000E94ED0089819A810F900F90DF91CF911C
:100220000895CF93DF931F921F92CDB7DEB79A83C5
:1002300089830E94ED0089819A81FC0180819181EE
:1002400090930102809300020F900F90DF91CF9165
:100250000895CF93DF931F921F92CDB7DEB7CE01E3
:1002600001960E9411010F900F90DF91CF91089598
:10027000CF93DF931F921F92CDB7DEB70E94290163
:100280000E94ED000E94FC009A8389830F900F90DA
:10029000DF91CF910895789484B5826084BD84B550
:1002A000816084BD85B5826085BD85B5816085BD71
:1002B00080916E00816080936E0010928100809129
:1002C00081008260809381008091810081608093B1
:1002D0008100809180008160809380008091B100D6
:1002E00084608093B1008091B00081608093B00001
:1002F0008091910082608093910080919100816053
:100300008093910080919000816080939000809113
:10031000A10082608093A1008091A1008160809300
:10032000A1008091A00081608093A00080912101B4
:10033000826080932101809121018160809321015D
:100340008091200181608093200180917A008460F7
:1003500080937A0080917A00826080937A00809105
:100360007A00816080937A0080917A00806880931F
:100370007A001092C1000E943801C0E0D0E00E94D3
:10038000DF002097E1F30E940000F9CFF894FFCF3F
:00000001FF
